S02B00002F686F6D652F73696D6F6E2F4D542D432F4D443430372D74656D706C6174652F44656275672F525498
S3152000000000BFDFF814D00CF058FD0CF095FD0CF075
S3152000001066BDFEE700BF000000C00120A3F5803AC0
S31520000020704700BF154B002B08BF114B9D46FFF7AD
S31520000030F5FF00218B460F461148124A121A0DF081
S3152000004030F80C4B002B00D098470B4B002B00D0E0
S3152000005098470020002104000D000B480CF040FEBC
S315200000600DF0C4F8200029000CF066FD0CF03EFED1
S315200000700000080000000000000000000000000052
S315200000804CE10020DCF2002035D2002080B400AF05
S31520000090164BD3F88830154A43F47003C2F88830DB
S315200000A0134B1B68124A43F001031360104B0022C6
S315200000B09A600F4B1B680E4A23F0847323F4803317
S315200000C013600B4B0B4A5A60094B1B68084A23F4F2
S315200000D080231360064B0022DA60044B4FF0006247
S315200000E09A6000BFBD465DF8047B704700ED00E0D6
S315200000F0003802401030002480B487B000AF0023BF
S315200001003B6100237B610223FB600023BB6002234B
S315200001107B60344B9B6803F00C033B613B69082BE7
S3152000012011D03B69082B44D83B69002B03D03B698F
S31520000130042B04D03DE02C4B2C4A1A603DE02A4B80
S315200001402B4A1A6039E0274B5B689B0D03F00103AD
S31520000150BB60244B5B6803F03F037B60BB68002BCE
S315200001600CD0234A7B68B2FBF3F31E4A52689209ED
S31520000170C2F3080202FB03F37B610BE01B4A7B6898
S31520000180B2FBF3F3174A52689209C2F3080202FB44
S3152000019003F37B61134B5B681B0C03F003030133F2
S315200001A05B00FB607A69FB68B2FBF3F30E4A1360CF
S315200001B003E00D4B0D4A1A6000BF0A4B9B681B09D2
S315200001C003F00F030B4AD35C3B61074B1A683B696C
S315200001D022FA03F3044A136000BF1C37BD465DF8BC
S315200001E0047B704700380240D4E000200024F4004D
S315200001F000127A0070DF002080B586B000AF7860EC
S315200002007B68002B0BD14FF0100383F31188BFF3CB
S315200002106F8FBFF34F8F3B6100BF00BFFDE71C23ED
S31520000220BB60BB681C2B0BD04FF0100383F31188E7
S31520000230BFF36F8FBFF34F8FFB6000BF00BFFDE79B
S315200002407B687B617B69002B07D07B6900221A6063
S315200002507B690433184600F067FB7B69184618371C
S31520000260BD4680BD80B58CB000AFF860B9607A60BD
S315200002703B60FB68BB6200237B627B68B3F1807FB7
S315200002800BD34FF0100383F31188BFF36F8FBFF3A7
S315200002904F8FBB6100BF00BFFDE77B68002B0BD1F2
S315200002A04FF0100383F31188BFF36F8FBFF34F8F87
S315200002B07B6100BF00BFFDE704F0F4FF0346002B7F
S315200002C002D13B68002B01D1012300E00023002B43
S315200002D00BD14FF0100383F31188BFF36F8FBFF359
S315200002E04F8F3B6100BF00BFFDE703F0DDFEBB6A19
S315200002F01B683B62B968F86800F0A6F93A6ABB68E1
S315200003001A437B6813407A689A420DD13A6ABB68D1
S315200003101343FB62BB6A1A687B68DB431A40BB6ADD
S315200003201A6000233B6013E03B68002B0BD0BB6AAE
S31520000330181D7B6843F0A0633A68194604F0B8FAA2
S315200003400023FB6204E0BB6A1B68FB6201237B621D
S3152000035003F0B8FEF8613B68002B2CD0FB69002B1C
S3152000036007D1174B4FF080521A60BFF34F8FBFF360
S315200003706F8F05F08FF9F862FB6A03F00073002B8C
S3152000038015D106F01DFFBB6A1B68FB62FA6A7B6803
S3152000039013407A689A4206D1BB6A1A687B68DB43A7
S315200003A01A40BB6A1A6006F03DFF01237B62FB6A96
S315200003B023F07F43FB62FB6A18463037BD4680BD7B
S315200003C004ED00E080B590B000AFF860B9607A60C7
S315200003D03B60FB687B630023BB6300233B63FB68B6
S315200003E0002B0BD14FF0100383F31188BFF36F8FCF
S315200003F0BFF34F8F3B6200BF00BFFDE7BB68B3F181
S31520000400807F0BD34FF0100383F31188BFF36F8FD8
S31520000410BFF34F8FFB6100BF00BFFDE7BB68002B1A
S315200004200BD14FF0100383F31188BFF36F8FBFF307
S315200004304F8FBB6100BF00BFFDE704F033FF0346CB
S31520000440002B02D1BB6C002B01D1012300E000233D
S31520000450002B0BD14FF0100383F31188BFF36F8F5E
S31520000460BFF34F8F7B6100BF00BFFDE703F01CFE8B
S315200004707B6B1B68FB623A68B968F86A00F0F9F989
S31520000480B862BB6A002B0ED0FB6AFB630023BB64F9
S315200004907B68002B28D07B6B1A68BB68DB431A402D
S315200004A07B6B1A6020E0BB6C002B04D1FB6AFB63DC
S315200004B001233B6318E07B68002B03D0BB6B43F022
S315200004C08073BB633B68002B03D0BB6B43F0806318
S315200004D0BB637B6B181DBA68BB6B1343BA6C19469A
S315200004E004F0E6F90023FB6303F0ECFD7862BB6CB5
S315200004F0002B31D07B6A002B07D11A4B4FF080524C
S315200005001A60BFF34F8FBFF36F8F05F0C3F8F86300
S31520000510FB6B03F00073002B1AD106F051FE7B6BA8
S315200005201B68FB633A68B968F86B00F0A2F90346CA
S31520000530002B09D07B68002B06D07B6B1A68BB6822
S31520000540DB431A407B6B1A6001233B6306F06AFE8D
S31520000550FB6B23F07F43FB63FB6B18464037BD469E
S3152000056080BD00BF04ED00E080B586B000AF7860A6
S3152000057039607B687B617B68002B0BD14FF01003C1
S3152000058083F31188BFF36F8FBFF34F8FFB6000BFDC
S3152000059000BFFDE73B68B3F1807F0BD34FF010031C
S315200005A083F31188BFF36F8FBFF34F8FBB6000BFFC
S315200005B000BFFDE706F004FE7B691B683B617B6993
S315200005C01A683B68DB431A407B691A6006F02AFEEC
S315200005D03B6918461837BD4680BD80B584B000AF4C
S315200005E07860396000233A687968044806F0C4FBCD
S315200005F0F860FB6818461037BD4680BD59080020B4
S3152000060080B489B000AF78607B68FB61EFF311821C
S315200006104FF0100383F31188BFF36F8FBFF34F8F13
S31520000620FA60BB60FB68BB61FB691B687B61BB69C9
S315200006303B613B6983F3118800BF7B6918462437E9
S31520000640BD465DF8047B704780B58EB000AF7860FC
S31520000650396000233B637B68BB620023FB627B68B7
S31520000660002B0BD14FF0100383F31188BFF36F8F4C
S31520000670BFF34F8F3B6100BF00BFFDE73B68B3F17F
S31520000680807F0BD34FF0100383F31188BFF36F8F56
S31520000690BFF34F8FFB6000BF00BFFDE7BB6A04338B
S315200006A07B627B6A08333B6203F0FEFC7B6ADB6875
S315200006B07B63BB6A1A683B681A43BB6A1A603CE0D4
S315200006C07B6B5B68FB617B6B1B68BB610023FB62FA
S315200006D0BB6903F07F437B61BB6923F07F43BB612A
S315200006E07B6903F08063002B08D1BB6A1A68BB695B
S315200006F01340002B0BD00123FB6208E0BB6A1A686B
S31520000700BB691340BA699A4201D10123FB62FB6A95
S31520000710002B10D07B6903F08073002B03D03A6B3B
S31520000720BB6913433B63BB6A1B6843F000731946DE
S31520000730786B04F035FAFB697B637A6B3B6A9A42E5
S31520000740BED1BB6A1A683B6BDB431A40BB6A1A6090
S3152000075003F0B8FCBB6A1B6818463837BD4680BD17
S3152000076080B586B000AF78607B687B617B69002BA3
S315200007700BD14FF0100383F31188BFF36F8FBFF3B4
S315200007804F8FFB6000BF00BFFDE77B6904333B61F1
S3152000079003F08AFC18E03B69DA683B6908339A4221
S315200007A00BD14FF0100383F31188BFF36F8FBFF384
S315200007B04F8FBB6000BF00BFFDE73B69DB684FF092
S315200007C00071184604F0ECF93B691B68002BE2D156
S315200007D003F078FC00BF1837BD4680BD80B487B0D3
S315200007E000AF786039607B687B617B69002B0BD119
S315200007F04FF0100383F31188BFF36F8FBFF34F8F32
S31520000800FB6000BF00BFFDE73B68002B0BD14FF01C
S31520000810100383F31188BFF36F8FBFF34F8FBB6035
S3152000082000BF00BFFDE73B687A691A6001233B6180
S315200008303B6918461C37BD465DF8047B704780B57A
S3152000084082B000AF7860396039687868FFF7FCFEBF
S3152000085000BF0837BD4680BD80B582B000AF786046
S31520000860396039687868FFF77FFE00BF0837BD46D4
S3152000087080BD80B487B000AFF860B9607A6000238D
S315200008807B617B68002B07D1FA68BB681340002B7D
S315200008900AD001237B6107E0FA68BB681340BA6877
S315200008A09A4201D101237B617B6918461C37BD46DC
S315200008B05DF8047B704780B586B000AFF860B960FC
S315200008C07A607B68BA68F968044806F055FA786158
S315200008D07B6918461837BD4680BD00BF3F080020FB
S315200008E080B485B000AF78607B68BB607B68002BE6
S315200008F002D10023FB6002E0BB689B69FB60FB68BA
S3152000090018461437BD465DF8047B704780B483B023
S3152000091000AF786039607B683A689A6100BF0C370F
S31520000920BD465DF8047B704780B483B000AF786025
S315200009307B6803F108027B685A607B684FF0FF32C0
S315200009409A607B6803F108027B68DA607B6803F1B2
S3152000095008027B681A617B6800221A6000BF0C3788
S31520000960BD465DF8047B704780B483B000AF7860E5
S315200009707B6800221A6100BF0C37BD465DF8047BF8
S31520000980704780B485B000AF786039607B685B685B
S31520000990FB603B68FA685A60FB689A683B689A6015
S315200009A0FB689B683A685A60FB683A689A603B68BD
S315200009B07A681A617B681B685A1C7B681A6000BFBC
S315200009C01437BD465DF8047B704780B485B000AF10
S315200009D0786039603B681B68BB60BB68B3F1FF3F3A
S315200009E003D17B681B69FB600CE07B680833FB60E6
S315200009F002E0FB685B68FB60FB685B681B68BA68A3
S31520000A009A42F6D2FB685A683B685A603B685B6834
S31520000A103A689A603B68FA689A60FB683A685A6056
S31520000A203B687A681A617B681B685A1C7B681A6067
S31520000A3000BF1437BD465DF8047B704780B485B08F
S31520000A4000AF78607B681B69FB607B685B687A68AF
S31520000A5092689A607B689B687A6852685A60FB68DD
S31520000A605B687A689A4203D17B689A68FB685A6009
S31520000A707B6800221A61FB681B685A1EFB681A6095
S31520000A80FB681B6818461437BD465DF8047B704723
S31520000A9080B586B000AF7860396001237B617B68C2
S31520000AA03B613B69002B0BD14FF0100383F3118878
S31520000AB0BFF36F8FBFF34F8FFB6000BF00BFFDE713
S31520000AC03B69002B5DD03B69DB6B002B59D03B6922
S31520000AD01A6C3B69DB6B0021A3FB0223002B00D0A1
S31520000AE001210B46002B4CD106F06AFB3B691A68A4
S31520000AF03B69DB6B3969096C01FB03F31A443B69DB
S31520000B009A603B6900229A633B691A683B695A607E
S31520000B103B691A683B69DB6B013B3969096C01FB50
S31520000B2003F31A443B69DA603B69FF2283F84420C9
S31520000B303B69FF2283F845203B68002B14D13B6993
S31520000B401B69002B1AD03B691033184603F04EFF61
S31520000B500346002B12D0164B4FF080521A60BFF37B
S31520000B604F8FBFF36F8F09E03B6910331846FFF7AD
S31520000B70DBFE3B6924331846FFF7D6FE06F052FB10
S31520000B8001E000237B617B69002B0BD14FF0100322
S31520000B9083F31188BFF36F8FBFF34F8FBB6000BF06
S31520000BA000BFFDE77B6918461837BD4680BD00BFEC
S31520000BB004ED00E080B58CB002AFF860B9607A60D1
S31520000BC03B6000237B623B68002B0BD14FF0100368
S31520000BD083F31188BFF36F8FBFF34F8F3B6200BF44
S31520000BE000BFFDE7FB68002B2DD03B68002B2AD0E9
S31520000BF07B68002B02D0BB68002B24D07B68002B9F
S31520000C0002D1BB68002B1ED150237B617B69502B00
S31520000C100BD04FF0100383F31188BFF36F8FBFF310
S31520000C204F8FFB6100BF00BFFDE77B693B687B629E
S31520000C3097F830207B6A009313467A68B968F8687B
S31520000C4000F04EF80EE07B6A002B0BD14FF010031C
S31520000C5083F31188BFF36F8FBFF34F8FBB6100BF44
S31520000C6000BFFDE77B6A18462837BD4680BD80B4A5
S31520000C7089B000AFF860B9607A60FB68FB61FB69F8
S31520000C80002B0BD14FF0100383F31188BFF36F8F26
S31520000C90BFF34F8F7B6100BF00BFFDE77B68002B52
S31520000CA00BD14FF0100383F31188BFF36F8FBFF37F
S31520000CB04F8F3B6100BF00BFFDE7BB68002B03D011
S31520000CC0FB691A68BB681A607B68FA691A60012397
S31520000CD0BB61BB6918462437BD465DF8047B704767
S31520000CE080B584B000AFF860B9607A60FB70BB68ED
S31520000CF0002B03D1BB69BA691A6002E0BB697A6826
S31520000D001A60BB69FA68DA63BB69BA681A6401219A
S31520000D10B869FFF7BDFEBB69FA7883F84C2000BF9F
S31520000D201037BD4680BD80B582B000AF78607B6845
S31520000D30002B0ED07B6800229A607B6800221A6006
S31520000D407B680022DA60002300220021786800F008
S31520000D500AF900BF0837BD4680BD80B588B002AF0E
S31520000D6003463960FB7101237B6100233B61FB79DC
S31520000D7000933B68002239697869FFF71BFFF8600A
S31520000D80F868FFF7D0FFFB6818461837BD4680BDC8
S31520000D9080B586B000AF78607B683B617B68002BAE
S31520000DA00BD14FF0100383F31188BFF36F8FBFF37E
S31520000DB04F8FFB6000BF00BFFDE706F001FA3B69DD
S31520000DC01B68002B03D13B699B687B6101E00023F4
S31520000DD07B6106F027FA7B6918461837BD4680BD29
S31520000DE080B485B000AF78607B68002B0BD14FF0C4
S31520000DF0100383F31188BFF36F8FBFF34F8FBB6050
S31520000E0000BF00BFFDE77B681B68002B03D17B6812
S31520000E109B68FB6001E00023FB60FB6818461437E3
S31520000E20BD465DF8047B704790B587B000AF78600B
S31520000E307B683B613B69002B0BD14FF0100383F39A
S31520000E401188BFF36F8FBFF34F8FFB6000BF00BFCA
S31520000E50FDE73B699C6804F0FDF903469C4211D1ED
S31520000E603B69DB685A1E3B69DA603B69DB68002B0D
S31520000E7005D1002300220021386900F074F80123EF
S31520000E807B6101E000237B617B6918461C37BD46E8
S31520000E9090BD90B587B000AF786039607B683B61C4
S31520000EA03B69002B0BD14FF0100383F31188BFF35E
S31520000EB06F8FBFF34F8FFB6000BF00BFFDE73B691D
S31520000EC09C6804F0C7F903469C4207D13B69DB685E
S31520000ED05A1C3B69DA6001237B610CE0396838696A
S31520000EE000F084FB78617B69002B04D03B69DB68CA
S31520000EF05A1C3B69DA607B6918461C37BD4690BD93
S31520000F0080B588B002AFF860B9607A6000237B6153
S31520000F10FB68002B13D0BA68FB689A420FD80223CD
S31520000F2000937B6800220021F868FFF743FE786172
S31520000F307B69002B12D07B69BA689A630EE07B69C5
S31520000F40002B0BD14FF0100383F31188BFF36F8F63
S31520000F50BFF34F8F3B6100BF00BFFDE77B6918469B
S31520000F601837BD4680BD80B58EB000AFF860B96039
S31520000F707A603B6000237B63FB683B633B6B002B03
S31520000F800BD14FF0100383F31188BFF36F8FBFF39C
S31520000F904F8FBB6200BF00BFFDE7BB68002B03D1AC
S31520000FA03B6B1B6C002B01D1012300E00023002B9F
S31520000FB00BD14FF0100383F31188BFF36F8FBFF36C
S31520000FC04F8F7B6200BF00BFFDE73B68022B03D13A
S31520000FD03B6BDB6B012B01D1012300E00023002BAF
S31520000FE00BD14FF0100383F31188BFF36F8FBFF33C
S31520000FF04F8F3B6200BF00BFFDE704F053F9034665
S31520001000002B02D17B68002B01D1012300E00023B5
S31520001010002B0BD14FF0100383F31188BFF36F8F92
S31520001020BFF34F8FFB6100BF00BFFDE706F0C8F896
S315200010303B6B9A6B3B6BDB6B9A4202D33B68022B72
S3152000104029D13A68B968386B00F08FFEF8623B6B9D
S315200010505B6A002B10D03B6B2433184603F0C6FC8A
S315200010600346002B13D0404B4FF080521A60BFF33B
S315200010704F8FBFF36F8F0AE0FB6A002B07D03A4BE6
S315200010804FF080521A60BFF34F8FBFF36F8F06F079
S31520001090C9F8012363E07B68002B03D106F0C2F870
S315200010A000235CE07B6B002B06D107F11403184666
S315200010B003F064FE01237B6306F0B4F802F0F4FF2C
S315200010C006F07EF83B6B93F844305BB2B3F1FF3FFA
S315200010D003D13B6B002283F844203B6B93F84530C9
S315200010E05BB2B3F1FF3F03D13B6B002283F845206F
S315200010F006F098F83A1D07F114031146184603F036
S3152000110053FE0346002B24D1386B00F04BFF0346D9
S31520001110002B18D03B6B10337A681146184603F023
S31520001120A1FB386B00F0B1FE02F0CCFF0346002B8A
S315200011307FF47CAF0C4B4FF080521A60BFF34F8F79
S31520001140BFF36F8F72E7386B00F09FFE02F0BAFF95
S315200011506CE7386B00F099FE02F0B4FF00231846C6
S315200011603837BD4680BD00BF04ED00E080B592B0A3
S3152000117000AFF860B9607A603B60FB683B643B6C0B
S31520001180002B0BD14FF0100383F31188BFF36F8F21
S31520001190BFF34F8FFB6200BF00BFFDE7BB68002B8C
S315200011A003D13B6C1B6C002B01D1012300E00023F3
S315200011B0002B0BD14FF0100383F31188BFF36F8FF1
S315200011C0BFF34F8FBB6200BF00BFFDE73B68022B1A
S315200011D003D13B6CDB6B012B01D1012300E0002303
S315200011E0002B0BD14FF0100383F31188BFF36F8FC1
S315200011F0BFF34F8F7B6200BF00BFFDE706F0BDF84F
S31520001200EFF311824FF0100383F31188BFF36F8F32
S31520001210BFF34F8F3A62FB613B6AFB633B6C9A6B71
S315200012203B6CDB6B9A4202D33B68022B47D13B6C6B
S3152000123093F8453087F83B303B6C9B6B7B633A6871
S31520001240B968386C00F091FD97F93B30B3F1FF3F58
S3152000125012D13B6C5B6A002B2ED03B6C2433184694
S3152000126003F0C4FB0346002B26D07B68002B23D03B
S315200012707B6801221A601FE003F050F8386397F963
S315200012803B303A6B9A4217D997F93B307F2B0BD1DB
S315200012904FF0100383F31188BFF36F8FBFF34F8F87
S315200012A0BB6100BF00BFFDE797F83B300133DBB2DF
S315200012B05AB23B6C83F8452001237B6401E000236E
S315200012C07B64FB6B7B617B6983F3118800BF7B6C3E
S315200012D018464837BD4680BD80B590B000AF7860CF
S315200012E039607B68BB63BB6B002B0BD14FF01003BF
S315200012F083F31188BFF36F8FBFF34F8F7B6200BFDD
S3152000130000BFFDE7BB6B1B6C002B0BD04FF010030F
S3152000131083F31188BFF36F8FBFF34F8F3B6200BFFC
S3152000132000BFFDE7BB6B1B68002B03D1BB6B9B6823
S31520001330002B01D1012300E00023002B0BD14FF01D
S31520001340100383F31188BFF36F8FBFF34F8FFB61B9
S3152000135000BF00BFFDE706F010F8EFF311824FF053
S31520001360100383F31188BFF36F8FBFF34F8FBA61DA
S315200013707B61BB697B63BB6B9B6B3B63BB6BDB6B33
S315200013803A6B9A4243D2BB6B93F8453087F82F309D
S315200013903B6B5A1CBB6B9A6397F92F30B3F1FF3F17
S315200013A012D1BB6B5B6A002B2ED0BB6B2433184645
S315200013B003F01CFB0346002B26D03B68002B23D0D2
S315200013C03B6801221A601FE002F0A8FFB86297F975
S315200013D02F30BA6A9A4217D997F92F307F2B0BD123
S315200013E04FF0100383F31188BFF36F8FBFF34F8F36
S315200013F03B6100BF00BFFDE797F82F300133DBB21A
S315200014005AB2BB6B83F845200123FB6301E000231E
S31520001410FB637B6BFB60FB6883F3118800BFFB6B70
S3152000142018464037BD4680BD80B58CB000AFF86009
S31520001430B9607A600023FB62FB68BB62BB6A002B43
S315200014400BD14FF0100383F31188BFF36F8FBFF3D7
S315200014504F8F3B6200BF00BFFDE7BB68002B03D167
S31520001460BB6A1B6C002B01D1012300E00023002B5B
S315200014700BD14FF0100383F31188BFF36F8FBFF3A7
S315200014804F8FFB6100BF00BFFDE703F00BFF034654
S31520001490002B02D17B68002B01D1012300E0002321
S315200014A0002B0BD14FF0100383F31188BFF36F8FFE
S315200014B0BFF34F8FBB6100BF00BFFDE705F080FE85
S315200014C0BB6A9B6B7B627B6A002B1FD0B968B86AAC
S315200014D000F0B5FC7B6A5A1EBB6A9A63BB6A1B691D
S315200014E0002B0FD0BB6A1033184603F07FFA034651
S315200014F0002B07D03C4B4FF080521A60BFF34F8F22
S31520001500BFF36F8F05F08EFE012369E07B68002B09
S3152000151003D105F087FE002362E0FB6A002B06D18B
S3152000152007F11003184603F029FC0123FB6205F09E
S3152000153079FE02F0B9FD05F043FEBB6A93F844300C
S315200015405BB2B3F1FF3F03D1BB6A002283F844208C
S31520001550BB6A93F845305BB2B3F1FF3F03D1BB6A58
S31520001560002283F8452005F05DFE3A1D07F11003A1
S315200015701146184603F018FC0346002B23D1B86AFF
S3152000158000F0D5FC0346002B17D0BB6A24337A68BB
S315200015901146184603F066F9B86A00F076FC02F0A8
S315200015A091FD0346002B89D10F4B4FF080521A60D4
S315200015B0BFF34F8FBFF36F8F80E7B86A00F065FCEB
S315200015C002F080FD7AE7B86A00F05FFC02F07AFD4F
S315200015D0B86A00F0ACFC0346002B3FF46FAF002343
S315200015E018463037BD4680BD04ED00E080B58CB08E
S315200015F000AF786039600023FB627B687B62002342
S31520001600BB627B6A002B0BD14FF0100383F311884A
S31520001610BFF36F8FBFF34F8FBB6100BF00BFFDE7E6
S315200016207B6A1B6C002B0BD04FF0100383F31188C1
S31520001630BFF36F8FBFF34F8F7B6100BF00BFFDE706
S3152000164003F030FE0346002B02D13B68002B01D16C
S31520001650012300E00023002B0BD14FF0100383F36E
S315200016601188BFF36F8FBFF34F8F3B6100BF00BF61
S31520001670FDE705F0A5FD7B6A9B6B3B623B6A002B71
S3152000168024D03B6A5A1E7B6A9A637B6A1B68002BAE
S3152000169004D104F017F802467B6A9A607B6A1B69BC
S315200016A0002B0FD07B6A1033184603F09FF90346B0
S315200016B0002B07D04C4B4FF080521A60BFF34F8F50
S315200016C0BFF36F8F05F0AEFD012389E03B68002B49
S315200016D003D105F0A7FD002382E0FB6A002B06D18B
S315200016E007F10803184603F049FB0123FB6205F0C6
S315200016F099FD02F0D9FC05F063FD7B6A93F844302E
S315200017005BB2B3F1FF3F03D17B6A002283F844200A
S315200017107B6A93F845305BB2B3F1FF3F03D17B6A16
S31520001720002283F8452005F07DFD3A4607F108039F
S315200017301146184603F038FB0346002B32D1786A4F
S3152000174000F0F5FB0346002B26D07B6A1B68002B96
S3152000175009D105F035FD7B6A9B68184603F0C0FD6C
S31520001760B86205F05FFD7B6A24333A681146184655
S3152000177003F078F8786A00F088FB02F0A3FC0346B1
S31520001780002B7FF476AF184B4FF080521A60BFF3D0
S315200017904F8FBFF36F8F6CE7786A00F076FB02F00D
S315200017A091FC66E7786A00F070FB02F08BFC786AA1
S315200017B000F0BDFB0346002B3FF45BAFBB6A002B5A
S315200017C00DD005F0FDFC786A00F0B7FAF8617B6A67
S315200017D09B68F969184603F0AFFE05F023FD002348
S315200017E018463037BD4680BD04ED00E080B58EB08A
S315200017F000AFF860B9607A6000237B63FB683B63C7
S315200018003B6B002B0BD14FF0100383F31188BFF3F2
S315200018106F8FBFF34F8F7B6200BF00BFFDE7BB68B2
S31520001820002B03D13B6B1B6C002B01D1012300E065
S315200018300023002B0BD14FF0100383F31188BFF345
S315200018406F8FBFF34F8F3B6200BF00BFFDE703F0F2
S3152000185029FD0346002B02D17B68002B01D10123F1
S3152000186000E00023002B0BD14FF0100383F31188E7
S31520001870BFF36F8FBFF34F8FFB6100BF00BFFDE744
S3152000188005F09EFC3B6B9B6BFB62FB6A002B21D019
S315200018903B6BDB68BB62B968386B00F0D0FA3B6BF8
S315200018A0BA6ADA603B6B5B6A002B0FD03B6B243342
S315200018B0184603F09BF80346002B07D03C4B4FF00D
S315200018C080521A60BFF34F8FBFF36F8F05F0AAFCCB
S315200018D0012369E07B68002B03D105F0A3FC0023DC
S315200018E062E07B6B002B06D107F11403184603F048
S315200018F045FA01237B6305F095FC02F0D5FB05F044
S315200019005FFC3B6B93F844305BB2B3F1FF3F03D1EE
S315200019103B6B002283F844203B6B93F845305BB247
S31520001920B3F1FF3F03D13B6B002283F8452005F03E
S3152000193079FC3A1D07F114031146184603F034FAD0
S315200019400346002B23D1386B00F0F1FA0346002B17
S3152000195017D03B6B24337A681146184602F082FF73
S31520001960386B00F092FA02F0ADFB0346002B87D1CC
S315200019700F4B4FF080521A60BFF34F8FBFF36F8F1C
S315200019807EE7386B00F081FA02F09CFB78E7386B33
S3152000199000F07BFA02F096FB386B00F0C8FA03469B
S315200019A0002B3FF46DAF002318463837BD4680BD67
S315200019B004ED00E080B590B000AFF860B9607A60C1
S315200019C0FB68BB63BB6B002B0BD14FF0100383F37B
S315200019D01188BFF36F8FBFF34F8F7B6200BF00BFAD
S315200019E0FDE7BB68002B03D1BB6B1B6C002B01D121
S315200019F0012300E00023002B0BD14FF0100383F3CB
S31520001A001188BFF36F8FBFF34F8F3B6200BF00BFBC
S31520001A10FDE705F0B2FCEFF311824FF0100383F3DC
S31520001A201188BFF36F8FBFF34F8FFA61BB61FB69DC
S31520001A307B63BB6B9B6B3B633B6B002B47D0BB6BCA
S31520001A4093F8443087F82F30B968B86B00F0F7F96F
S31520001A503B6B5A1EBB6B9A6397F92F30B3F1FF3F4E
S31520001A6012D1BB6B1B69002B2ED0BB6B10331846D3
S31520001A7002F0BCFF0346002B26D07B68002B23D028
S31520001A807B6801221A601FE002F048FCB86297F9D1
S31520001A902F30BA6A9A4217D997F92F307F2B0BD15C
S31520001AA04FF0100383F31188BFF36F8FBFF34F8F6F
S31520001AB07B6100BF00BFFDE797F82F300133DBB213
S31520001AC05AB2BB6B83F844200123FB6301E0002359
S31520001AD0FB637B6B3B613B6983F3118800BFFB6B28
S31520001AE018464037BD4680BD80B58CB000AF7860C3
S31520001AF039607B68BB62BB6A002B0BD14FF01003A9
S31520001B0083F31188BFF36F8FBFF34F8FFB6100BF45
S31520001B1000BFFDE73B68002B03D1BB6A1B6C002B83
S31520001B2001D1012300E00023002B0BD14FF010033D
S31520001B3083F31188BFF36F8FBFF34F8FBB6100BF55
S31520001B4000BFFDE7BB6A1B6C002B0BD14FF01003C7
S31520001B5083F31188BFF36F8FBFF34F8F7B6100BF75
S31520001B6000BFFDE705F009FCEFF311824FF01003EB
S31520001B7083F31188BFF36F8FBFF34F8F3A61FB60FA
S31520001B803B697B62BB6A9B6B002B0CD0BB6ADB6814
S31520001B903B623968B86A00F052F9BB6A3A6ADA6081
S31520001BA00123FB6201E00023FB627B6ABB60BB680A
S31520001BB083F3118800BFFB6A18463037BD4680BDC7
S31520001BC080B584B000AF78607B68002B0BD14FF0D6
S31520001BD0100383F31188BFF36F8FBFF34F8FBB6062
S31520001BE000BF00BFFDE705F0EBFA7B689B6BFB604F
S31520001BF005F018FBFB6818461037BD4680BD80B53A
S31520001C0086B000AF78607B687B617B69002B0BD147
S31520001C104FF0100383F31188BFF36F8FBFF34F8FFD
S31520001C20FB6000BF00BFFDE705F0CAFA7B69DA6BEF
S31520001C307B699B6BD31A3B6105F0F4FA3B69184626
S31520001C401837BD4680BD80B487B000AF78607B680A
S31520001C507B617B69002B0BD14FF0100383F3118836
S31520001C60BFF36F8FBFF34F8FFB6000BF00BFFDE751
S31520001C707B699B6B3B613B6918461C37BD465DF80B
S31520001C80047B704780B584B000AF78607B68FB60CA
S31520001C90FB68002B0BD14FF0100383F31188BFF3A1
S31520001CA06F8FBFF34F8FBB6000BF00BFFDE7F868A3
S31520001CB000F03CFA00BF1037BD4680BD80B483B02B
S31520001CC000AF78607B689B6C18460C37BD465DF884
S31520001CD0047B704780B483B000AF786039607B683E
S31520001CE03A689A6400BF0C37BD465DF8047B70479E
S31520001CF080B483B000AF78607B6893F84C30184688
S31520001D000C37BD465DF8047B704780B483B000AFC6
S31520001D1078607B681B6C18460C37BD465DF8047BE3
S31520001D20704780B483B000AF78607B68DB6B184661
S31520001D300C37BD465DF8047B704780B485B000AF94
S31520001D4078607B685B6A002B06D07B681B6B1B6800
S31520001D50C3F13803FB6001E00023FB60FB681846F3
S31520001D601437BD465DF8047B704780B586B000AF5A
S31520001D70F860B9607A6000237B61FB689B6B3B61EE
S31520001D80FB681B6C002B0DD1FB681B68002B4DD10B
S31520001D90FB689B68184603F035FB7861FB680022D8
S31520001DA09A6043E07B68002B19D1FB685868FB6872
S31520001DB01B6C1A46B9680BF05DFAFB685A68FB681B
S31520001DC01B6C1A44FB685A60FB685A68FB689B6860
S31520001DD09A422BD3FB681A68FB685A6026E0FB6898
S31520001DE0D868FB681B6C1A46B9680BF043FAFB6887
S31520001DF0DA68FB681B6C5B421A44FB68DA60FB6896
S31520001E00DA68FB681B689A4207D2FB689A68FB6807
S31520001E101B6C5B421A44FB68DA607B68022B05D197
S31520001E203B69002B02D03B69013B3B613B695A1C55
S31520001E30FB689A637B6918461837BD4680BD80B516
S31520001E4082B000AF786039607B681B6C002B18D09D
S31520001E507B68DA687B681B6C1A447B68DA607B686F
S31520001E60DA687B689B689A4203D37B681A687B682A
S31520001E70DA607B68D9687B681B6C1A4638680BF079
S31520001E80F9F900BF0837BD4680BD80B584B000AFE4
S31520001E90786005F095F97B6893F84530FB7311E07F
S31520001EA07B685B6A002B12D07B682433184602F0CD
S31520001EB09DFD0346002B01D002F0DEFFFB7B013B9C
S31520001EC0DBB2FB7397F90F30002BE9DC00E000BF93
S31520001ED07B68FF2283F8452005F0A4F905F070F908
S31520001EE07B6893F84430BB7311E07B681B69002B39
S31520001EF012D07B681033184602F078FD0346002B7B
S31520001F0001D002F0B9FFBB7B013BDBB2BB7397F973
S31520001F100E30002BE9DC00E000BF7B68FF2283F84F
S31520001F20442005F07FF900BF1037BD4680BD80B53F
S31520001F3084B000AF786005F043F97B689B6B002B7B
S31520001F4002D10123FB6001E00023FB6005F06AF962
S31520001F50FB6818461037BD4680BD80B487B000AFF9
S31520001F6078607B683B613B69002B0BD14FF01003F7
S31520001F7083F31188BFF36F8FBFF34F8FFB6000BFD2
S31520001F8000BFFDE73B699B6B002B02D101237B61E0
S31520001F9001E000237B617B6918461C37BD465DF84E
S31520001FA0047B704780B584B000AF786005F008F9EF
S31520001FB07B689A6B7B68DB6B9A4202D10123FB60BC
S31520001FC001E00023FB6005F02DF9FB681846103769
S31520001FD0BD4680BD80B487B000AF78607B683B612A
S31520001FE03B69002B0BD14FF0100383F31188BFF30D
S31520001FF06F8FBFF34F8FFB6000BF00BFFDE73B69CC
S315200020009A6B3B69DB6B9A4202D101237B6101E02B
S3152000201000237B617B6918461C37BD465DF8047B2F
S31520002020704780B487B000AF7860396000233B6189
S315200020307B68002B0BD14FF0100383F31188BFF37D
S315200020406F8FBFF34F8FFB6000BF00BFFDE73B687C
S31520002050002B24D000237B611EE0184A7B69DB001D
S3152000206013445B687A689A4205D17B69DB00134A80
S3152000207013443B6113E03B69002B0AD10F4A7B696D
S3152000208052F83330002B04D17B69DB000B4A134412
S315200020903B617B6901337B617B69072BDDD93B691A
S315200020A0002B05D03B693A681A603B697A685A600A
S315200020B000BF1C37BD465DF8047B70474CE100200D
S315200020C080B487B000AF786000233B617B68002B2B
S315200020D00BD14FF0100383F31188BFF36F8FBFF33B
S315200020E04F8FFB6000BF00BFFDE700237B6110E040
S315200020F00D4A7B69DB0013445B687A689A4205D1F6
S31520002100094A7B6952F833303B6105E07B6901332C
S315200021107B617B69072BEBD93B6918461C37BD468B
S315200021205DF8047B704700BF4CE1002080B485B089
S3152000213000AF78607B68002B0BD14FF0100383F340
S315200021401188BFF36F8FBFF34F8FBB6000BF00BFF7
S31520002150FDE70023FB6016E0104AFB68DB00134412
S315200021605B687A689A420BD10C4AFB68002142F8D8
S3152000217033100A4AFB68DB00134400225A6006E04B
S31520002180FB680133FB60FB68072BE5D900BF00BF66
S315200021901437BD465DF8047B704700BF4CE1002034
S315200021A080B586B000AFF860B9607A60FB687B6165
S315200021B005F006F87B6993F844305BB2B3F1FF3F34
S315200021C003D17B69002283F844207B6993F845304C
S315200021D05BB2B3F1FF3F03D17B69002283F8452030
S315200021E005F020F87B699B6B002B06D17B69243395
S315200021F07A68B968184602F0B3FB7869FFF745FE9E
S3152000220000BF1837BD4680BD80B592B004AFF860D8
S31520002210B9607A603B603B6CFB623B68002B0BD15C
S315200022204FF0100383F31188BFF36F8FBFF34F8FE7
S31520002230BB6200BF00BFFDE73B6C002B0BD14FF00C
S31520002240100383F31188BFF36F8FBFF34F8F7B6229
S3152000225000BF00BFFDE7BA68FB689A420BD94FF072
S31520002260100383F31188BFF36F8FBFF34F8F3B6249
S3152000227000BF00BFFDE7BB68002B01D10123BB6077
S315200022807B68002B11D0032387F83330FB68042B9F
S315200022900ED84FF0100383F31188BFF36F8FBFF36F
S315200022A04F8FFB6100BF00BFFDE7022387F8333065
S315200022B028237B617B69282B0BD04FF0100383F3F7
S315200022C01188BFF36F8FBFF34F8FBB6100BF00BF75
S315200022D0FDE73B68002B19D03B6C002B16D0BB6C5E
S315200022E002937B6C019397F833300093BB68FA68AE
S315200022F03968F86A00F06FFEFB6A1B7F43F0020321
S31520002300DAB2FB6A1A773B6C7B6301E000237B63BE
S315200023107B6B18463837BD4680BD80B48BB000AF86
S31520002320F860B9607A60FB683B623B6A002B0BD190
S315200023304FF0100383F31188BFF36F8FBFF34F8FD6
S31520002340FB6100BF00BFFDE7BB68002B0BD14FF040
S31520002350100383F31188BFF36F8FBFF34F8FBB61D9
S3152000236000BF00BFFDE77B68002B0BD14FF01003A9
S3152000237083F31188BFF36F8FBFF34F8F7B6100BF4D
S3152000238000BFFDE73B6A1B7F03F00203002B09D049
S315200023903B6A9A69BB681A607B683A6A1A600123AD
S315200023A07B6201E000237B627B6A18462C37BD46A0
S315200023B05DF8047B704780B586B000AF78607B6897
S315200023C07B617B69002B0BD14FF0100383F31188BF
S315200023D0BFF36F8FBFF34F8F3B6100BF00BFFDE799
S315200023E07B691B7F03F00203002B0FD17B68B3F1BF
S315200023F0FF3F10D04FF0100383F31188BFF36F8F88
S31520002400BFF34F8FFB6000BF00BFFDE728220021EE
S3152000241078690AF046FE00BF1837BD4680BD90B5E4
S315200024208DB004AF78607B68BB610023FB6100231D
S315200024307B6100233B61BB69002B0BD14FF010035E
S3152000244083F31188BFF36F8FBFF34F8FBB6000BF3D
S3152000245000BFFDE7BB691B6AFB6004F0B1FEBB69E8
S315200024601B69002B1AD1BB695B69002B16D1BB698E
S315200024709969BB699868BB69DC68BB691B7F3A6947
S3152000248002927A690192009323460246B86900F0C7
S31520002490A2FDBB69FA681A620123FB6104F0C2FE41
S315200024A0FB6918462437BD4690BD80B487B000AF7F
S315200024B0786039607B683B613B69002B0BD14FF01C
S315200024C0100383F31188BFF36F8FBFF34F8FFB6029
S315200024D000BF00BFFDE73B68002B01D101233B6015
S315200024E03B699B683A689A4205D23B693A68DA604A
S315200024F001237B6101E000237B617B6918461C3741
S31520002500BD465DF8047B704780B487B000AF786025
S315200025107B683B613B69002B0BD14FF0100383F3A3
S315200025201188BFF36F8FBFF34F8FBB6000BF00BF13
S31520002530FDE73B691B68FB603B699A683B691B6842
S3152000254013447B613B695B687A69D31A7B613B697B
S315200025501B68FA689A42ECD17B69013B7B613B6937
S315200025609B687A699A4204D33B699B687A69D31A35
S315200025707B617B6918461C37BD465DF8047B704736
S3152000258080B586B000AF78607B687B617B69002B65
S315200025900BD14FF0100383F31188BFF36F8FBFF376
S315200025A04F8FFB6000BF00BFFDE7786900F0F3FCAA
S315200025B038613B6918461837BD4680BD80B592B054
S315200025C002AFF860B9607A603B60FB687B630023EA
S315200025D0FB637B68BB6300233B63BB68002B0BD18B
S315200025E04FF0100383F31188BFF36F8FBFF34F8F24
S315200025F0BB6200BF00BFFDE77B6B002B0BD14FF00A
S31520002600100383F31188BFF36F8FBFF34F8F7B6265
S3152000261000BF00BFFDE77B6B9B68013B3B637B6B89
S315200026201B7F03F00103002B19D0BB6B0433BB6364
S31520002630BA6B7B689A420BD84FF0100383F311884C
S31520002640BFF36F8FBFF34F8F3B6200BF00BFFDE725
S31520002650BA6B3B6B9A4208D900233B6005E0BA6B04
S315200026603B6B9A4201D93B6BBB633B68002B45D041
S3152000267007F11403184602F059FB04F0A1FD786B0C
S31520002680FFF742FFF863FA6BBB6B9A421BD27B6B58
S315200026905B6A1946002003F0EBFC7B6B5B69002B21
S315200026A00BD04FF0100383F31188BFF36F8FBFF366
S315200026B04F8FFB6100BF00BFFDE702F0CBFD024656
S315200026C07B6B5A6102E004F0ADFD17E004F0AAFD31
S315200026D07B6B586A3B68009300230022002103F09D
S315200026E087F87B6B00225A613A4607F1140311469C
S315200026F0184602F059FB0346002BBED0FB6B002B7D
S3152000270003D1786BFFF700FFF863BB6B0093FB6B7D
S315200027107A68B968786B00F09CF8F862FB6A002B3F
S315200027201CD0786B00F037FC02467B6BDB689A4244
S3152000273014D301F0B9FC7B6B1B69002B0CD07B6B8F
S3152000274018697B6B596A002300930023002203F04B
S31520002750E7F87B6B00221A6101F0B4FCFB6A18468D
S315200027604037BD4680BD80B590B002AFF860B960F5
S315200027707A603B60FB683B637B687B63BB68002BAE
S315200027800BD14FF0100383F31188BFF36F8FBFF384
S315200027904F8F3B6200BF00BFFDE73B6B002B0BD189
S315200027A04FF0100383F31188BFF36F8FBFF34F8F62
S315200027B0FB6100BF00BFFDE73B6B1B7F03F00103FE
S315200027C0002B02D07B6B04337B63386BFFF79CFEB8
S315200027D0F8627B6B0093FB6A7A68B968386B00F005
S315200027E038F8B862BB6A002B2ED0386B00F0D3FBCA
S315200027F002463B6BDB689A4226D3EFF311824FF0F9
S31520002800100383F31188BFF36F8FBFF34F8FBA6125
S315200028107B61BB697B623B6B1B69002B0ED03B6BDC
S3152000282018693B6B596A3B68019300230093002388
S31520002830002203F0A5F93B6B00221A617B6A3B61FB
S315200028403B6983F3118800BFBB6A18463837BD46FB
S3152000285080BD80B588B000AFF860B9607A603B6013
S31520002860FB685B68FB61FB681B7F03F00103002BA1
S3152000287021D07B687B617B697A689A420BD04FF0C6
S31520002880100383F31188BFF36F8FBFF34F8FBB61A4
S3152000289000BF00BFFDE73A68BB6A9A4208D307F13A
S315200028A01401FB690422F86800F098FAF86108E040
S315200028B000237B6005E07A683B68934228BF134675
S315200028C07B607B68002B08D0FB697A68B968F8685A
S315200028D000F084FA0246FB685A607B681846203767
S315200028E0BD4680BD80B58EB002AFF860B9607A6013
S315200028F03B60FB683B620023FB62BB68002B0BD16D
S315200029004FF0100383F31188BFF36F8FBFF34F8F00
S31520002910FB6100BF00BFFDE73B6A002B0BD14FF0E8
S31520002920100383F31188BFF36F8FBFF34F8FBB6103
S3152000293000BF00BFFDE73B6A1B7F03F00103002BAE
S3152000294002D004237B6201E000237B623B68002BDC
S315200029503BD004F035FC386A00F01DFBB862BA6A39
S315200029607B6A9A421AD83B6A5B6A1946002003F0B2
S315200029707FFB3B6A1B69002B0BD04FF0100383F3C0
S315200029801188BFF36F8FBFF34F8F7B6100BF00BFEE
S31520002990FDE702F05FFC02463B6A1A6104F042FC46
S315200029A0BA6A7B6A9A4214D83B6A586A3B68009393
S315200029B000230022002102F01BFF3B6A00221A613D
S315200029C0386A00F0E8FAB86203E0386A00F0E3FA01
S315200029D0B862BA6A7B6A9A421ED9BB6A7A68B968B3
S315200029E0386A00F0D6F8F862FB6A002B14D001F0A2
S315200029F05BFBFB685B69002B0CD0FB685869FB68A6
S31520002A00596A002300930023002202F089FFFB6805
S31520002A1000225A6101F056FBFB6A18463037BD4644
S31520002A2080BD80B588B000AF78607B68BB61BB692C
S31520002A30002B0BD14FF0100383F31188BFF36F8F58
S31520002A40BFF34F8F3B6100BF00BFFDE7BB691B7F14
S31520002A5003F00103002B23D0B86900F09CFA7861BB
S31520002A607B69042B0AD9BB691B6807F1080104227C
S31520002A70B86900F023FABB68FB6113E07B69002B81
S31520002A800BD04FF0100383F31188BFF36F8FBFF382
S31520002A904F8FFB6000BF00BFFDE70023FB6101E015
S31520002AA00023FB61FB6918462037BD4680BD80B5F3
S31520002AB090B002AFF860B9607A603B60FB68FB6259
S31520002AC000237B63BB68002B0BD14FF0100383F3ED
S31520002AD01188BFF36F8FBFF34F8F3B6200BF00BFDC
S31520002AE0FDE7FB6A002B0BD14FF0100383F311880F
S31520002AF0BFF36F8FBFF34F8FFB6100BF00BFFDE7B2
S31520002B00FB6A1B7F03F00103002B02D004233B63E7
S31520002B1001E000233B63F86A00F03DFAB862BA6A26
S31520002B203B6B9A4230D9BB6A7A68B968F86A00F07A
S31520002B3030F878637B6B002B26D0EFF311824FF0B1
S31520002B40100383F31188BFF36F8FBFF34F8FBA61E2
S31520002B507B61BB697B62FB6A5B69002B0ED0FB6ADB
S31520002B605869FB6A596A3B68019300230093002346
S31520002B70002203F005F8FB6A00225A617B6A3B615A
S31520002B803B6983F3118800BF7B6B18463837BD46F7
S31520002B9080BD80B588B000AFF860B9607A603B60D0
S31520002BA0FB681B68BB61FB681B7F03F00103002BDE
S31520002BB013D007F11001BB690422F86800F07EF9F2
S31520002BC0B8613B69FB613B68043B3B60FA697B6803
S31520002BD09A4204D90023FB6101E07B68FB613A68D5
S31520002BE0FB69934228BF13467B617B69002B08D083
S31520002BF0BB697A69B968F86800F060F90246FB6833
S31520002C001A607B6918462037BD4680BD80B487B0E0
S31520002C1000AF78607B683B613B69002B0BD14FF09E
S31520002C20100383F31188BFF36F8FBFF34F8FBB6001
S31520002C3000BF00BFFDE73B691B68FB603B695B6823
S31520002C40FA689A4202D101237B6101E000237B616D
S31520002C507B6918461C37BD465DF8047B704780B5F6
S31520002C6086B000AF78607B68FB60FB68002B0BD1D9
S31520002C704FF0100383F31188BFF36F8FBFF34F8F8D
S31520002C80BB6000BF00BFFDE7FB681B7F03F00103AD
S31520002C90002B02D004233B6101E000233B617868CE
S31520002CA0FFF732FC02463B69934202D301237B6144
S31520002CB001E000237B617B6918461837BD4680BD3D
S31520002CC080B58CB002AF786039607B683B623B6A26
S31520002CD0002B0BD14FF0100383F31188BFF36F8FB6
S31520002CE0BFF34F8FBB6100BF00BFFDE7EFF311823B
S31520002CF04FF0100383F31188BFF36F8FBFF34F8F0D
S31520002D007A613B617B69FB613B6A1B69002B11D0B1
S31520002D103B6A18693B6A596A3B6801930023009312
S31520002D200023002202F02CFF3B6A00221A610123B5
S31520002D307B6201E000237B62FB69FB60FB6883F317
S31520002D40118800BF7B6A18462837BD4680BD80B5EE
S31520002D508CB002AF786039607B683B623B6A002B9F
S31520002D600BD14FF0100383F31188BFF36F8FBFF39E
S31520002D704F8FBB6100BF00BFFDE7EFF311824FF01D
S31520002D80100383F31188BFF36F8FBFF34F8F7A61E0
S31520002D903B617B69FB613B6A5B69002B11D03B6A17
S31520002DA058693B6A596A3B680193002300930023C4
S31520002DB0002202F0E5FE3B6A00225A6101237B6273
S31520002DC001E000237B62FB69FB60FB6883F31188CB
S31520002DD000BF7B6A18462837BD4680BD80B588B0BF
S31520002DE000AFF860B9607A603B607B68002B0BD13E
S31520002DF04FF0100383F31188BFF36F8FBFF34F8F0C
S31520002E00BB6100BF00BFFDE7FB689A683B68D31A29
S31520002E107A68934228BF1346FB613A68FB691A44D5
S31520002E20FB689B689A420BD94FF0100383F31188F5
S31520002E30BFF36F8FBFF34F8F7B6100BF00BFFDE7EE
S31520002E40FB689A693B681344FA69B96818460AF020
S31520002E5011FA7A68FB699A421DD97A68FB69D21AF7
S31520002E60FB689B689A420BD94FF0100383F31188B5
S31520002E70BFF36F8FBFF34F8F3B6100BF00BFFDE7EE
S31520002E80FB689869BA68FB69D1187A68FB69D31A16
S31520002E901A460AF0EFF93A687B6813443B60FB68F0
S31520002EA09B683A689A4204D3FB689B683A68D31AAF
S31520002EB03B603B6818462037BD4680BD80B588B04C
S31520002EC000AFF860B9607A603B607B68002B0BD15D
S31520002ED04FF0100383F31188BFF36F8FBFF34F8F2B
S31520002EE0BB6100BF00BFFDE7FB689A683B68D31A49
S31520002EF07A68934228BF1346FB61FA697B689A4237
S31520002F000BD94FF0100383F31188BFF36F8FBFF3F4
S31520002F104F8F7B6100BF00BFFDE73A68FB691A440B
S31520002F20FB689B689A420BD94FF0100383F31188F4
S31520002F30BFF36F8FBFF34F8F3B6100BF00BFFDE72D
S31520002F40FB689A693B681344FA691946B8680AF01F
S31520002F5091F97A68FB699A420AD9BA68FB69D0184E
S31520002F60FB6899697A68FB69D31A1A460AF082F9CE
S31520002F703A687B6813443B60FB689B683A689A42D0
S31520002F8004D3FB689B683A68D31A3B603B681846B3
S31520002F902037BD4680BD80B485B000AF78607B68A1
S31520002FA09A687B685B681344FB607B681B68FA68D9
S31520002FB0D31AFB607B689B68FA689A4204D37B68C5
S31520002FC09B68FA68D31AFB60FB6818461437BD461F
S31520002FD05DF8047B704780B586B000AFF860B960B5
S31520002FE07A603B607A685521B8680AF05AF802463A
S31520002FF0BB6893420BD04FF0100383F31188BFF3C5
S315200030006F8FBFF34F8F7B6100BF00BFFDE7282284
S315200030100021F8680AF045F8FB68BA689A61FB68EF
S315200030207A689A60FB683A68DA60FB6897F820202D
S315200030301A77FB6800225A6200BF1837BD4680BD4A
S3152000304080B485B000AF78607B68FB60FB68002B9E
S315200030500BD14FF0100383F31188BFF36F8FBFF3AB
S315200030604F8FBB6000BF00BFFDE7FB685B6A184659
S315200030701437BD465DF8047B704780B489B000AF35
S31520003080786039607B68FB61FB69002B0BD14FF0C0
S31520003090100383F31188BFF36F8FBFF34F8FBB618C
S315200030A000BF00BFFDE7FB691B69002B0BD04FF06B
S315200030B0100383F31188BFF36F8FBFF34F8F7B61AC
S315200030C000BF00BFFDE7FB695B69002B0BD04FF00B
S315200030D0100383F31188BFF36F8FBFF34F8F3B61CC
S315200030E000BF00BFFDE73B68002B0BD04FF010035D
S315200030F083F31188BFF36F8FBFF34F8FFB6000BF41
S3152000310000BFFDE7FB693A685A6200BF2437BD4617
S315200031105DF8047B704780B483B000AF78607B682D
S315200031201B6A18460C37BD465DF8047B704780B491
S3152000313083B000AF786039607B683A681A6200BF56
S315200031400C37BD465DF8047B704780B483B000AF72
S3152000315078607B681B7F03F00103DBB218460C37CF
S31520003160BD465DF8047B704780B58EB004AFF8602D
S31520003170B9607A603B607B6B002B0BD14FF010035C
S3152000318083F31188BFF36F8FBFF34F8F3B6200BF6E
S3152000319000BFFDE7BB6B002B0BD14FF0100383F371
S315200031A01188BFF36F8FBFF34F8FFB6100BF00BF46
S315200031B0FDE75C237B617B695C2B0BD04FF0100312
S315200031C083F31188BFF36F8FBFF34F8FBB6100BFAF
S315200031D000BFFDE77B69BB6B002B1BD07B6B002BF5
S315200031E018D0BB6B7B625C220021786A09F059FFFC
S315200031F07B6A7A6B1A63002303937B6A0293FB6BC9
S3152000320001933B6B00933B687A68B968F86800F0D5
S315200032102CF801E000237B627B6A18462837BD46DE
S3152000322080BD80B58AB004AFF860B9607A603B6033
S3152000323000233B6107F110030393BB6A02937B6A69
S3152000324001933B6A00933B687A68B968F868FFF790
S315200032508BFF78617B69002B02D0786900F095F8A6
S315200032603B6918461837BD4680BD80B588B000AF8B
S31520003270F860B9607A603B603B6B186B7B689B009B
S315200032801A46A52109F00DFF3B6B1A6B7B6803F1EB
S315200032908043013B9B001344BB61BB6923F00703BA
S315200032A0BB61BB6903F00703002B0BD04FF0100363
S315200032B083F31188BFF36F8FBFF34F8F7B6100BFFE
S315200032C000BFFDE7BB68002B1ED00023FB6112E088
S315200032D0BA68FB69134419783A6BFB691344343393
S315200032E00A461A70BA68FB6913441B78002B06D06D
S315200032F0FB690133FB61FB690F2BE9D900E000BFB5
S315200033003B6B002283F84320BB6A372B0BD94FF047
S31520003310100383F31188BFF36F8FBFF34F8F3B6189
S3152000332000BF00BFFDE7BB6A372B01D93723BB623D
S315200033303B6BBA6ADA623B6BBA6ADA643B6B04337C
S315200033401846FDF711FB3B6B18331846FDF70CFBAF
S315200033503B6B3A6B1A61BB6AC3F138023B6B9A61CD
S315200033603B6B3A6B5A623A68F968B86903F080FD9C
S3152000337002463B6B1A60FB6A002B02D0FB6A3A6B53
S315200033801A6000BF2037BD4680BD80B584B000AF2F
S31520003390786003F015FF424B1B680133404A1360E7
S315200033A0404B1B68002B09D13E4A7B6813603C4B7F
S315200033B01B68012B10D101F0ABFD0DE03A4B1B68C9
S315200033C0002B09D1374B1B68DA6A7B68DB6A9A4285
S315200033D002D8344A7B681360344B1B680133334A66
S315200033E01360324B1A687B685A647B68DA6A304B02
S315200033F01B689A4203D97B68DB6A2D4A13607B6877
S31520003400DA6A2C4913469B0013449B000B44043371
S315200034101B68FB607B68FA689A60FB689A687B6821
S31520003420DA60FB689B687A6804325A607B681A1DEA
S31520003430FB689A607B68DA6A13469B0013449B00FC
S315200034401C4A1A447B685A617B68DA6A1949134612
S315200034509B0013449B000B441B687A68D26A591C54
S31520003460144813469B0013449B000344196003F041
S31520003470D9FE0D4B1B68002B0ED00A4B1B68DA6A4F
S315200034807B68DB6A9A4207D20B4B4FF080521A6058
S31520003490BFF34F8FBFF36F8F00BF1037BD4680BD80
S315200034A060E600208CE100206CE600207CE600200F
S315200034B068E6002090E1002004ED00E080B586B0AB
S315200034C000AF786000237B6103F07AFE7B68002BD7
S315200034D002D1354B1B6800E07B683B613B690433B6
S315200034E01846FDF7ABFA3B699B6A002B04D03B6973
S315200034F018331846FDF7A2FA2C4B1B6801332B4ACA
S315200035001360294B1B683A699A4201D1012300E0D6
S315200035100023FB60264B1B68002B10D0FB68002B7A
S315200035200DD03B69043319462248FDF72AFA224B6F
S315200035301B680133204A136001237B6106E01F4B81
S315200035401B68013B1D4A136001F068FE03F06AFE0A
S315200035507B69012B02D0386901F056FE144B1B689B
S31520003560002B1CD0104B1B683A699A4217D1144B7A
S315200035701B68002B0BD04FF0100383F31188BFF389
S315200035806F8FBFF34F8FBB6000BF00BFFDE70D4BB2
S315200035904FF080521A60BFF34F8FBFF36F8F00BF7B
S315200035A01837BD4680BD00BF8CE100207CE6002098
S315200035B06CE6002034E6002048E6002060E6002085
S315200035C088E6002004ED00E080B58AB000AF786080
S315200035D0396000237B627B68002B0BD14FF01003F0
S315200035E083F31188BFF36F8FBFF34F8F7B6100BFCB
S315200035F000BFFDE73B68002B0BD14FF0100383F390
S315200036001188BFF36F8FBFF34F8F3B6100BF00BFA1
S31520003610FDE700F049FD2A4B1B683B62294B1B68DE
S31520003620012B0BD04FF0100383F31188BFF36F8F5C
S31520003630BFF34F8FFB6000BF00BFFDE77B681B68B1
S315200036403A681344FB617B681B683A6A9A420BD23C
S315200036507B681B68FA699A4211D2FA693B6A9A42D8
S315200036600DD901237B620AE07B681B68FA699A42BE
S3152000367003D3FA693B6A9A4201D901237B627B68AC
S31520003680FA691A607B6A002B06D0FA693B6AD31A5C
S315200036900021184602F064FD00F014FDB861BB69F4
S315200036A0002B07D1084B4FF080521A60BFF34F8F83
S315200036B0BFF36F8F7B6A18462837BD4680BD00BF93
S315200036C064E6002088E6002004ED00E080B584B0A2
S315200036D000AF78600023FB607B68002B18D000F0D9
S315200036E0E3FC134B1B68012B0BD04FF0100383F325
S315200036F01188BFF36F8FBFF34F8FBB6000BF00BF32
S31520003700FDE70021786802F02BFD00F0DBFCF86075
S31520003710FB68002B07D1074B4FF080521A60BFF38E
S315200037204F8FBFF36F8F00BF1037BD4680BD00BFE0
S3152000373088E6002004ED00E080B58AB000AF78600E
S315200037407B68FB61FB69002B0BD14FF0100383F3E1
S315200037501188BFF36F8FBFF34F8FBB6000BF00BFD1
S31520003760FDE7334B1B68FA699A4203D1002387F899
S31520003770273056E003F024FDFB695B69BB61FB69DA
S315200037809B6A7B612B4B1B683B612B4B1B68FB6049
S3152000379003F048FD7B69294A934203D1012387F828
S315200037A027303EE0BA693B699A4203D0BA69FB6882
S315200037B09A4203D1022387F8273032E0BB69204A98
S315200037C0934220D1FB699B6A002B18D1032387F8EB
S315200037D0273000233B620EE0FA693B6A13445833D4
S315200037E01B78DBB2012B03D1022387F8273018E0A0
S315200037F03B6A01333B623B6A002BEDDD11E002237D
S3152000380087F827300DE0BB690E4A934202D0BB6988
S31520003810002B03D1042387F8273002E0012387F801
S31520003820273097F8273018462837BD4680BD00BF79
S315200038308CE1002018E600201CE6002020E600206F
S315200038404CE6002034E6002080B584B000AF7860D6
S3152000385003F0B6FC7B68002B02D1074B1B6800E007
S315200038607B68FB60FB68DB6ABB6003F0DBFCBB6844
S3152000387018461037BD4680BD8CE1002080B588B043
S3152000388000AF786003F079FDEFF311824FF010035B
S3152000389083F31188BFF36F8FBFF34F8F3A61FB60BD
S315200038A03B69FB617B68002B02D1094B1B6800E05A
S315200038B07B68BB61BB69DB6A7B61FB69BB60BB68FC
S315200038C083F3118800BF7B6918462037BD4680BD2B
S315200038D08CE1002080B584B000AF786003F070FCE6
S315200038E07B68002B02D1074B1B6800E07B68FB60DE
S315200038F0FB68DB6CBB6003F095FCBB681846103791
S31520003900BD4680BD8CE1002080B588B000AF7860D0
S3152000391003F033FDEFF311824FF0100383F3118888
S31520003920BFF36F8FBFF34F8F3A61FB603B69FB613B
S315200039307B68002B02D1094B1B6800E07B68BB61CA
S31520003940BB69DB6C7B61FB69BB60BB6883F3118859
S3152000395000BF7B6918462037BD4680BD8CE100201C
S3152000396080B588B000AF786039600023FB613B6882
S31520003970372B0BD94FF0100383F31188BFF36F8FCA
S31520003980BFF34F8FBB6000BF00BFFDE73B68372BFF
S3152000399001D937233B6003F013FC7B68002B02D14F
S315200039A0524B1B6800E07B68BB61BB69DB6C7B61AB
S315200039B07A693B689A4200F093803A687B699A421A
S315200039C00DD94A4B1B68BA699A420FD0474B1B68E0
S315200039D0DB6A3A689A4209D90123FB6106E0434B28
S315200039E01B68BA699A4201D10123FB61BB69DB6A74
S315200039F03B61BB69DA6CBB69DB6A9A4204D0BB695E
S31520003A00DB6A3A689A4202D9BB693A68DA62BB69CC
S31520003A103A68DA64BB699B69002B04DB3B68C3F117
S31520003A203802BB699A61BB6959693A6913469B009A
S31520003A3013449B002E4A1344994246D1BB69043352
S31520003A401846FCF7FBFFBB69DA6A2A4B1B689A42C9
S31520003A5003D9BB69DB6A274A1360BB69DA6A244942
S31520003A6013469B0013449B000B4404331B68FB60E6
S31520003A70BB69FA689A60FB689A68BB69DA60FB687A
S31520003A809B68BA6904325A60BB691A1DFB689A6042
S31520003A90BB69DA6A13469B0013449B00144A1A44F6
S31520003AA0BB695A61BB69DA6A114913469B00134404
S31520003AB09B000B441B68BA69D26A591C0C481346F2
S31520003AC09B0013449B0003441960FB69002B07D01D
S31520003AD0094B4FF080521A60BFF34F8FBFF36F8FA1
S31520003AE003F0A0FB00BF2037BD4680BD8CE100203F
S31520003AF090E1002068E6002004ED00E080B586B065
S31520003B0000AF786003F05CFB7B68002B02D1384B5A
S31520003B101B6800E07B683B613B6904331846FCF771
S31520003B208DFF3B699B6A002B04D03B6918331846EE
S31520003B30FCF784FF3B69043319462E48FCF721FF26
S31520003B4000237B6110E03A697B69134458331B7864
S31520003B50DBB2012B05D13A697B6913445833002225
S31520003B601A707B6901337B617B69002BEBDD03F0E7
S31520003B7059FB214B1B68002B05D003F021FB01F0DC
S31520003B804DFB03F04FFB1A4B1B683A699A422AD128
S31520003B90194B1B68002B18D0184B1B68002B0BD019
S31520003BA04FF0100383F31188BFF36F8FBFF34F8F4E
S31520003BB0BB6000BF00BFFDE7114B4FF080521A607B
S31520003BC0BFF34F8FBFF36F8F0DE00A4B1B68FB606F
S31520003BD00C4B1B68FA689A4203D1054B00221A60E7
S31520003BE001E000F0DFFD00BF1837BD4680BD00BFF5
S31520003BF08CE100204CE600206CE6002088E60020C0
S31520003C0004ED00E060E6002080B487B000AF786065
S31520003C1000237B617B68FB607B68002B0BD14FF018
S31520003C20100383F31188BFF36F8FBFF34F8FBB60F1
S31520003C3000BF00BFFDE7FB685B69144A93421ED1B3
S31520003C40FB689B6A124A934219D0FB689B6A002B39
S31520003C5015D101237B6100233B610DE0FA683B69A6
S31520003C60134458331B78DBB2012B02D100237B612E
S31520003C7005E03B6901333B613B69002BEEDD7B6947
S31520003C8018461C37BD465DF8047B70474CE600207D
S31520003C9020E6002080B586B000AF78607B687B6127
S31520003CA07B68002B0BD14FF0100383F31188BFF3F1
S31520003CB06F8FBFF34F8FFB6000BF00BFFDE7364B12
S31520003CC01B687A699A4262D07B69002B5FD003F029
S31520003CD077FA7869FFF798FF0346002B55D07B6962
S31520003CE004331846FCF7AAFE7B69DA6A2B4B1B685D
S31520003CF09A4203D97B69DB6A284A13607B69DA6AB0
S31520003D00274913469B0013449B000B4404331B682E
S31520003D103B617B693A699A603B699A687B69DA609C
S31520003D203B699B687A6904325A607B691A1D3B6934
S31520003D309A607B69DA6A13469B0013449B00184AF3
S31520003D401A447B695A617B69DA6A154913469B00D6
S31520003D5013449B000B441B687A69D26A591C10488D
S31520003D6013469B0013449B00034419600A4B1B68AF
S31520003D70DA6A7B69DB6A9A4207D20A4B4FF0805295
S31520003D801A60BFF34F8FBFF36F8F03F04BFA00BF5C
S31520003D901837BD4680BD00BF8CE1002068E60020B4
S31520003DA090E1002004ED00E080B58AB000AF786095
S31520003DB000237B627B683B627B68002B0BD14FF034
S31520003DC0100383F31188BFF36F8FBFF34F8F7B618F
S31520003DD000BF00BFFDE703F0D0FAEFF311824FF0EA
S31520003DE0100383F31188BFF36F8FBFF34F8F3A61B0
S31520003DF0FB603B69FB61386AFFF706FF0346002B31
S31520003E005DD0344B1B68002B53D13B6ADA6A324BA8
S31520003E101B68DB6A9A4204D901237B622F4B01225D
S31520003E201A603B6A04331846FCF708FE3B6ADA6AD6
S31520003E302B4B1B689A4203D93B6ADB6A284A1360DC
S31520003E403B6ADA6A274913469B0013449B000B44BE
S31520003E5004331B68BB613B6ABA699A60BB699A687E
S31520003E603B6ADA60BB699B683A6A04325A603B6AED
S31520003E701A1DBB699A603B6ADA6A13469B00134493
S31520003E809B00184A1A443B6A5A613B6ADA6A15490A
S31520003E9013469B0013449B000B441B683A6AD26A64
S31520003EA0591C104813469B0013449B000344196079
S31520003EB005E03B6A183319460B48FCF762FDFB699F
S31520003EC0BB60BB6883F3118800BF7B6A184628371E
S31520003ED0BD4680BD88E600208CE1002074E60020E7
S31520003EE068E6002090E1002020E6002080B590B012
S31520003EF004AF0123FB6200233B6200237B6213E0B5
S31520003F002B4A7B6A1344197807F110027B6A134403
S31520003F100A461A7007F110027B6A13441B78002B9D
S31520003F2006D07B6A01337B627B6A0F2BE8DD00E0DB
S31520003F3000BF0023BB6231E01E4B3B620023FB60C7
S31520003F400023BB603A1D07F1080107F10C03184650
S31520003F5008F020FE7868BB68FA6807F11001029223
S31520003F6001930023009300230246386AFFF759F98C
S31520003F7002461149BB6A41F823200F4ABB6A52F810
S31520003F802330002B02D00123FB6201E00023FB62D9
S31520003F90FB6A002B06D0BB6A0133BB62BB6A002BCF
S31520003FA0CADD00E000BFFB6A18463037BD4680BD3B
S31520003FB08CDF0020E34E002084E6002080B584B00C
S31520003FC000AFFFF793FFF860FB68012B02D102F0E8
S31520003FD087F9F860FB68012B16D14FF0100383F3A5
S31520003FE01188BFF36F8FBFF34F8FBB6000BF114B9C
S31520003FF04FF0FF321A60104B01221A600F4B00223D
S315200040001A6002F0BCFF0FE0FB68B3F1FF3F0BD153
S315200040104FF0100383F31188BFF36F8FBFF34F8FD9
S315200040207B6000BF00BFFDE7054B1B6800BF103754
S31520004030BD4680BD80E600206CE6002064E60020B8
S3152000404088DF002080B582B000AF02F0A3FA0346D5
S315200040501846FFF733FA00237B6009E0104A7B6895
S3152000406052F823301846FFF729FA7B6801337B6024
S315200040707B68002BF2DD00F08BFF4FF0100383F3FB
S315200040801188BFF36F8FBFF34F8F3B6000BF054B87
S3152000409000221A6003F078F800BF0837BD4680BDBD
S315200040A084E600206CE6002080B400AF044B1B6839
S315200040B00133034A136000BFBD465DF8047B704799
S315200040C088E6002080B588B000AF0023FB6100237E
S315200040D0BB6103F075F800233B61764B1B68002B10
S315200040E00BD14FF0100383F31188BFF36F8FBFF30B
S315200040F04F8F3B6000BF00BFFDE76E4B1B68013B47
S315200041006C4A13606B4B1B68002B40F0CB806A4BCC
S315200041101B68002B00F0C6808FE0684BDB68DB68ED
S31520004120FB61FB699B6AFB60FB69DB69FA69126AC2
S315200041309A60FB691B6AFA69D2695A60FB685A68F9
S31520004140FB6918339A4203D1FB691A6AFB685A60E5
S31520004150FB6900229A62FB681B685A1EFB681A607C
S31520004160FB695B69BB60FB699B68FA69D2689A60E8
S31520004170FB69DB68FA6992685A60BB685A68FB6912
S3152000418004339A4203D1FB69DA68BB685A60FB693B
S3152000419000225A61BB681B685A1EBB681A60FB69FD
S315200041A0DA6A474B1B689A4203D9FB69DB6A444AA1
S315200041B01360FB69DA6A434913469B0013449B004C
S315200041C00B4404331B687B60FB697A689A607B68C2
S315200041D09A68FB69DA607B689B68FA6904325A60E0
S315200041E0FB691A1D7B689A60FB69DA6A13469B0095
S315200041F013449B00334A1A44FB695A61FB69DA6A05
S31520004200304913469B0013449B000B441B68FA69F4
S31520004210D26A591C2B4813469B0013449B00034427
S315200042201960FB69DA6A284B1B68DB6A9A4204D953
S31520004230264A3B69012142F82310204B1B68002B9C
S315200042407FF46BAFFB69002B01D000F0E7FF204B1A
S315200042501B687B617B69002B12D000F089F903462D
S31520004260002B04D0194A3B69012142F823107B69AF
S31520004270013B7B617B69002BEFD1154B00221A6035
S31520004280124A3B6952F82330002B0BD00123BB6125
S315200042900D4B1B680F4B4FF080521A60BFF34F8FA8
S315200042A0BFF36F8F02F0BEFFBB6918462037BD46AD
S315200042B080BD00BF88E6002060E6002020E60020C2
S315200042C068E6002090E100208CE1002074E60020C2
S315200042D070E6002004ED00E080B483B000AF054B0B
S315200042E01B687B607B6818460C37BD465DF8047BEF
S315200042F0704700BF64E6002080B582B000AF03F0AF
S315200043003CF800237B60044B1B683B603B681846E7
S315200043100837BD4680BD00BF64E6002080B400AFEC
S31520004320034B1B681846BD465DF8047B704700BFEB
S3152000433060E6002080B485B000AF78607B68002BF3
S3152000434002D10E4B1B6800E07B68FB60FB68002BEC
S315200043500BD14FF0100383F31188BFF36F8FBFF398
S315200043604F8FBB6000BF00BFFDE7FB6834331846A4
S315200043701437BD465DF8047B704700BF8CE10020F2
S3152000438080B489B000AFF860B9607A60BB68002B52
S315200043900BD14FF0100383F31188BFF36F8FBFF358
S315200043A04F8F7B6100BF00BFFDE77B68002B0BD1E1
S315200043B04FF0100383F31188BFF36F8FBFF34F8F36
S315200043C03B6100BF00BFFDE7FB68002B02D10A4B13
S315200043D01B6800E0FB68FB61FB691A6BBB681A600F
S315200043E07B68FA691A600123BB61BB6918462437CA
S315200043F0BD465DF8047B70478CE1002080B586B011
S3152000440000AFF860B9607A6000237B6138233B6196
S31520004410FFF74AFE3A4B1B68BA689A4268D33B6953
S31520004420013B3B617A691346DB0013449B001A4625
S31520004430FB6898183A6913469B0013449B00314A3F
S3152000444013440122194600F059FE02467B691344A3
S315200044507B613B69002BE2D17A691346DB0013446A
S315200044609B001A46FB681344274A11680222184605
S3152000447000F044FE02467B6913447B617A69134649
S31520004480DB0013449B001A46FB6813441F4A11683D
S315200044900222184600F032FE02467B6913447B61F5
S315200044A07A691346DB0013449B001A46FB681344C3
S315200044B004221749184600F021FE02467B69134460
S315200044C07B617A691346DB0013449B001A46FB681E
S315200044D0134403220F49184600F010FE02467B695A
S315200044E013447B617B68002B02D07B6800221A6014
S315200044F0FFF7E8FD7B6918461837BD4680BD00BF2B
S3152000450060E6002090E1002018E600201CE600204E
S3152000451034E600204CE6002080B584B000AF7860F9
S31520004520114B1B68002B0BD04FF0100383F311881F
S31520004530BFF36F8FBFF34F8FBB6000BF00BFFDE798
S31520004540FFF7B2FD02F03CFE084B1A687B68134465
S31520004550064A136002F066FEFFF7B4FDF860FB68BA
S3152000456018461037BD4680BD88E6002070E600203C
S3152000457080B58AB000AF00237B627F4B1B68002B7F
S3152000458040F0F0807D4B1B6801333B627B4A3B6ADF
S3152000459013603B6A002B21D1794B1B681B68002BCB
S315200045A00BD04FF0100383F31188BFF36F8FBFF347
S315200045B04F8F7B6000BF00BFFDE7714B1B68FB611F
S315200045C0704B1B686E4A13606E4AFB6913606E4B14
S315200045D01B6801336C4A136000F020FE6B4B1B688E
S315200045E03A6A9A42C0F0A980654B1B681B68002B6B
S315200045F004D1664B4FF0FF321A609EE0604B1B6879
S31520004600DB68DB68BB61BB695B687B613A6A7B6997
S315200046109A4203D25D4A7B6913608EE0BB695B696F
S315200046203B61BB699B68BA69D2689A60BB69DB68E3
S31520004630BA6992685A603B695A68BB6904339A42E0
S3152000464003D1BB69DA683B695A60BB6900225A61AB
S315200046503B691B685A1E3B691A60BB699B6A002B23
S315200046601ED0BB699B6AFB60BB69DB69BA69126AAB
S315200046709A60BB691B6ABA69D2695A60FB685A6834
S31520004680BB6918339A4203D1BB691A6AFB685A6020
S31520004690BB6900229A62FB681B685A1EFB681A6077
S315200046A0BB69DA6A3A4B1B689A4203D9BB69DB6A53
S315200046B0374A1360BB69DA6A364913469B001344AE
S315200046C09B000B4404331B68BB60BB69BA689A60C5
S315200046D0BB689A68BB69DA60BB689B68BA690432B2
S315200046E05A60BB691A1DBB689A60BB69DA6A1346B1
S315200046F09B0013449B00274A1A44BB695A61BB6935
S31520004700DA6A244913469B0013449B000B441B681A
S31520004710BA69D26A591C1F4813469B0013449B0052
S3152000472003441960BB69DA6A1B4B1B68DB6A9A4231
S315200047307FF65AAF01237B6256E7174B1B68DA6A6E
S31520004740144913469B0013449B000B441B68012B02
S3152000475001D901237B62114B1B68002B07D0012353
S315200047607B6204E00E4B1B6801330D4A13607B6AA3
S3152000477018462837BD4680BD88E6002064E600201E
S3152000478018E600201CE6002078E6002080E60020BF
S3152000479068E6002090E100208CE1002074E60020ED
S315200047A070E6002080B485B000AF294B1B68002B33
S315200047B003D0284B01221A6043E0264B00221A60C0
S315200047C0254B1B68FB6011E0FB68002B0BD14FF0DB
S315200047D0100383F31188BFF36F8FBFF34F8F7B6076
S315200047E000BF00BFFDE7FB68013BFB601B49FA6881
S315200047F013469B0013449B000B441B68002BE3D0FD
S31520004800FA6813469B0013449B00144A1344BB606A
S31520004810BB685B685A68BB685A60BB685A68BB68E5
S3152000482008339A4203D1BB68DA68BB685A60BB6812
S315200048305B68DB680A4A1360074AFB681360084B0B
S315200048401B6800BF1437BD465DF8047B704700BF68
S3152000485088E6002074E6002068E6002090E100202B
S315200048608CE1002080B584B000AF786039607B6829
S31520004870002B0BD14FF0100383F31188BFF36F8FFA
S31520004880BFF34F8FFB6000BF00BFFDE7074B1B68E0
S31520004890183319467868FCF798F80121386801F032
S315200048A05FFC00BF1037BD4680BD00BF8CE10020F5
S315200048B080B588B000AFF860B9607A60FB68002BDD
S315200048C00BD14FF0100383F31188BFF36F8FBFF323
S315200048D04F8FBB6100BF00BFFDE71F4B1B68002B3E
S315200048E00BD14FF0100383F31188BFF36F8FBFF303
S315200048F04F8F7B6100BF00BFFDE7184B1B68BA686E
S3152000490042F000429A61FB685B68FB61134B1B68AF
S31520004910FA69DA61114B1B68FA6992681A620F4BC1
S315200049201A68FB699B6818325A600C4B1B6803F1A6
S315200049301802FB699A60094B1B68FA689A62FB6841
S315200049401B685A1CFB681A600121786801F008FC74
S3152000495000BF2037BD4680BD88E600208CE10020C0
S3152000496080B586B000AFF860B9607A60FB68002B2E
S315200049700BD14FF0100383F31188BFF36F8FBFF372
S315200049804F8F3B6100BF00BFFDE7FB685B687B6123
S31520004990154B1B687A69DA61134B1B687A69926832
S315200049A01A62114B1A687B699B6818325A600E4B43
S315200049B01B6803F118027B699A600B4B1B68FA6827
S315200049C09A62FB681B685A1CFB681A607B68002B7E
S315200049D002D04FF0FF33BB607968B86801F0C0FBA6
S315200049E000BF1837BD4680BD8CE1002080B48BB057
S315200049F000AF78607B68DB68DB683B623B6A002B34
S31520004A000BD14FF0100383F31188BFF36F8FBFF3E1
S31520004A104F8FFB6000BF00BFFDE73B6A9B6AFB61CF
S31520004A203B6ADB693A6A126A9A603B6A1B6A3A6A8F
S31520004A30D2695A60FB695A683B6A18339A4203D195
S31520004A403B6A1A6AFB695A603B6A00229A62FB69D2
S31520004A501B685A1EFB691A604B4B1B68002B61D1E1
S31520004A603B6A5B697B613B6A9B683A6AD2689A605B
S31520004A703B6ADB683A6A92685A607B695A683B6A85
S31520004A8004339A4203D13B6ADA687B695A603B6AEF
S31520004A9000225A617B691B685A1E7B691A603B6A31
S31520004AA0DA6A3A4B1B689A4203D93B6ADB6A374A71
S31520004AB013603B6ADA6A364913469B0013449B000F
S31520004AC00B4404331B683B613B6A3A699A603B6935
S31520004AD09A683B6ADA603B699B683A6A04325A6094
S31520004AE03B6A1A1D3B699A603B6ADA6A13469B0049
S31520004AF013449B00264A1A443B6A5A613B6ADA6A87
S31520004B00234913469B0013449B000B441B683A6AB7
S31520004B10D26A591C1E4813469B0013449B0003442B
S31520004B2019601BE01B4B5B68BB613B6ABA69DA61A3
S31520004B30BB699A683B6A1A62BB699B683A6A1832F3
S31520004B405A603B6A03F11802BB699A603B6A114AB4
S31520004B509A62104B1B6801330E4A13603B6ADA6A6D
S31520004B600D4B1B68DB6A9A4205D901237B620B4BEE
S31520004B7001221A6001E000237B627B6A18462C37EB
S31520004B80BD465DF8047B704788E6002068E6002075
S31520004B9090E1002020E600208CE1002074E6002031
S31520004BA080B489B000AF786039605B4B1B68002BFE
S31520004BB00BD14FF0100383F31188BFF36F8FBFF330
S31520004BC04F8FFB6000BF00BFFDE73B6843F000420C
S31520004BD07B681A607B68DB68FB61FB69002B0BD165
S31520004BE04FF0100383F31188BFF36F8FBFF34F8FFE
S31520004BF0BB6000BF00BFFDE77B681B69BB617B68AC
S31520004C005B687A6892689A607B689B687A68526863
S31520004C105A60BB695B687A689A4203D17B689A6856
S31520004C20BB695A607B6800221A61BB691B685A1EE1
S31520004C30BB691A60FB695B697B61FB699B68FA69E2
S31520004C40D2689A60FB69DB68FA6992685A607B6968
S31520004C505A68FB6904339A4203D1FB69DA687B6997
S31520004C605A60FB6900225A617B691B685A1E7B6960
S31520004C701A60FB69DA6A294B1B689A4203D9FB69D9
S31520004C80DB6A264A1360FB69DA6A254913469B00CC
S31520004C9013449B000B4404331B683B61FB693A6950
S31520004CA09A603B699A68FB69DA603B699B68FA6996
S31520004CB004325A60FB691A1D3B699A60FB69DA6AFD
S31520004CC013469B0013449B00154A1A44FB695A61FC
S31520004CD0FB69DA6A124913469B0013449B000B4476
S31520004CE01B68FA69D26A591C0D4813469B00134467
S31520004CF09B0003441960FB69DA6A0A4B1B68DB6A6E
S31520004D009A4202D9084B01221A6000BF2437BD46B9
S31520004D105DF8047B704700BF88E6002068E6002027
S31520004D2090E100208CE1002074E6002080B584B05C
S31520004D3000AF78607B68002B0BD14FF0100383F314
S31520004D401188BFF36F8FBFF34F8FFB6000BF00BF8B
S31520004D50FDE702F035FA074B1A687B681A60064BA6
S31520004D601A687B685A6002F05DFA00BF1037BD46AC
S31520004D7080BD00BF78E6002064E6002080B483B0C2
S31520004D8000AF7860064B1A687B681A60054B1A6874
S31520004D907B685A6000BF0C37BD465DF8047B7047C0
S31520004DA078E6002064E6002080B588B000AF786001
S31520004DB039607B68002B0BD14FF0100383F31188E9
S31520004DC0BFF36F8FBFF34F8F3B6100BF00BFFDE77F
S31520004DD03B68002B0BD14FF0100383F31188BFF3F0
S31520004DE06F8FBFF34F8FFB6000BF00BFFDE702F060
S31520004DF0E7F91F4B1B68BB617B685B68BA69D31AEE
S31520004E007B613B681B68B3F1FF3F02D10023FB6146
S31520004E1026E07B681A68174B1B689A420AD07B6883
S31520004E205B68BA699A4205D30123FB613B6800227D
S31520004E301A6015E03B681B687A699A420BD23B6878
S31520004E401A687B69D21A3B681A607868FFF796FF62
S31520004E500023FB6104E03B6800221A600123FB610A
S31520004E6002F0E0F9FB6918462037BD4680BD00BF39
S31520004E7064E6002078E6002080B400AF034B0122D0
S31520004E801A6000BFBD465DF8047B704774E60020BB
S31520004E9080B485B000AF78607B68002B05D07B6836
S31520004EA0BB60BB689B6CFB6001E00023FB60FB687A
S31520004EB018461437BD465DF8047B704780B485B02C
S31520004EC000AF786039607B68002B04D07B68FB607C
S31520004ED0FB683A689A6400BF1437BD465DF8047BC8
S31520004EE0704780B582B000AF786000F051F8064B6D
S31520004EF01B68012BF9D9054B4FF080521A60BFF37E
S31520004F004F8FBFF36F8FF0E790E1002004ED00E0B4
S31520004F1080B582B000AF00237B600CE07A68134630
S31520004F209B0013449B00124A13441846FBF7FCFCD3
S31520004F307B6801337B607B68372BEFD90D48FBF705
S31520004F40F3FC0D48FBF7F0FC0C48FBF7EDFC0C4896
S31520004F50FBF7EAFC0B48FBF7E7FC0B4B054A1A600C
S31520004F600A4B054A1A6000BF0837BD4680BD00BF00
S31520004F7090E10020F0E5002004E6002020E6002055
S31520004F8034E600204CE6002018E600201CE600202F
S31520004F9080B582B000AF19E002F012F9104BDB6841
S31520004FA0DB687B607B6804331846FBF747FD0D4BB7
S31520004FB01B68013B0B4A13600B4B1B68013B0A4ADB
S31520004FC0136002F02FF9786800F01EF9064B1B6873
S31520004FD0002BE1D100BF00BF0837BD4680BD00BF12
S31520004FE034E6002060E6002048E6002080B586B042
S31520004FF000AFF860B9607A60FB70FB68002B02D1C5
S315200050003C4B1B6800E0FB683B61BB683A691A6051
S315200050103B6903F13402BB685A603B69DA6ABB68B4
S315200050201A613B691A6BBB68DA613B695A6CBB68CB
S315200050309A603B69DA6CBB685A61BB6800229A6148
S31520005040FB78052B3CD02B4B1B683A699A4203D13F
S31520005050BB6800221A733AE0BB68FA781A73FB78A9
S31520005060032B20D1FFF720F83B699B6A002B03D046
S31520005070BB6802221A7314E000237B610EE03A69B2
S315200050807B69134458331B78DBB2012B03D1BB68F1
S3152000509002221A7305E07B6901337B617B69002B51
S315200050A0EDDDFFF70FF802F08BF83B699B6A124A99
S315200050B0934202D1BB6801221A7302F0B3F806E0CC
S315200050C03869FEF739FB03461A46BB681A737B68B4
S315200050D0002B08D03B691B6B184600F05FF8024690
S315200050E0BB681A6202E0BB6800221A6200BF18374A
S315200050F0BD4680BD8CE1002020E6002080B58AB028
S3152000510000AFF860B9601346FB7100237B62BB6871
S315200051101B68002B3DD0BB683B623B6A5B685A68C4
S315200051203B6A5A603B6A5A683B6A08339A4203D103
S315200051303B6ADA683B6A5A603B6A5B68DB68FB61FC
S31520005140BB68BB61BB695B685A68BB695A60BB694F
S315200051505A68BB6908339A4203D1BB69DA68BB69CE
S315200051605A60BB695B68DB687B617A6A1346DB0041
S3152000517013449B001A46FB689918FB79012278692B
S31520005180FFF734FF7B6A01337B627A69FB699A42B7
S31520005190D6D17B6A18462837BD4680BD80B485B0F7
S315200051A000AF78600023FB6005E07B6801337B60FD
S315200051B0FB680133FB607B681B78A52BF5D0FB6869
S315200051C09B08FB60FB6818461437BD465DF8047BD8
S315200051D0704780B586B000AF78607B68002B02D11F
S315200051E0084B1B6800E07B687B617B691B6B3B611E
S315200051F03869FFF7D3FFF860FB6818461837BD46B5
S3152000520080BD00BF8CE1002080B483B000AF786001
S3152000521000BF0C37BD465DF8047B704780B400AFF5
S315200052200A4B1B681B68002B04D1094B4FF0FF3239
S315200052301A6005E0054B1B68DB681B68044A13608F
S3152000524000BFBD465DF8047B704700BF18E600200E
S3152000525080E6002080B483B000AF054B1B687B60DE
S315200052607B6818460C37BD465DF8047B704700BF47
S315200052708CE1002080B485B000AF78600023FB600D
S315200052807B68002B05DB7B68002B02DC044B1B684C
S31520005290FB60FB6818461437BD465DF8047B7047F3
S315200052A08CE1002080B483B000AF0B4B1B68002B31
S315200052B002D101237B6008E0084B1B68002B02D13A
S315200052C002237B6001E000237B607B6818460C3755
S315200052D0BD465DF8047B70476CE6002088E600201A
S315200052E080B586B000AF78607B683B6100237B6128
S315200052F07B68002B7BD03B69DA6A3F4B1B68DB6AF5
S315200053009A426BD23B699B69002B06DB3A4B1B68A2
S31520005310DB6AC3F138023B699A613B6959693B698B
S31520005320DA6A13469B0013449B00344A134499427D
S315200053304CD13B6904331846FBF780FB2E4B1B6888
S31520005340DA6A3B69DA623B69DA6A2D4B1B689A4254
S3152000535003D93B69DB6A2A4A13603B69DA6A274923
S3152000536013469B0013449B000B4404331B68FB60CD
S315200053703B69FA689A60FB689A683B69DA60FB6861
S315200053809B683A6904325A603B691A1DFB689A6029
S315200053903B69DA6A13469B0013449B00174A1A445A
S315200053A03B695A613B69DA6A144913469B001344E8
S315200053B09B000B441B683A69D26A591C0F48134656
S315200053C09B0013449B000344196004E00A4B1B68AE
S315200053D0DA6A3B69DA6201237B6108E03B69DA6CB1
S315200053E0054B1B68DB6A9A4201D201237B617B69EC
S315200053F018461837BD4680BD8CE1002090E100207C
S3152000540068E6002080B588B000AF78607B68BB6115
S315200054100023FB617B68002B00F08380434B1B68D5
S31520005420BA699A420BD04FF0100383F31188BFF369
S315200054306F8FBFF34F8F3B6100BF00BFFDE7BB6996
S315200054401B6D002B0BD14FF0100383F31188BFF394
S315200054506F8FBFF34F8FFB6000BF00BFFDE7BB69B7
S315200054601B6D5A1EBB691A65BB69DA6ABB69DB6CA0
S315200054709A4256D0BB691B6D002B52D1BB690433AF
S315200054801846FBF7DBFABB69DA6CBB69DA62BB69E3
S31520005490DB6AC3F13802BB699A61BB69DA6A244BBD
S315200054A01B689A4203D9BB69DB6A214A1360BB6930
S315200054B0DA6A204913469B0013449B000B440433AD
S315200054C01B687B61BB697A699A607B699A68BB694C
S315200054D0DA607B699B68BA6904325A60BB691A1D17
S315200054E07B699A60BB69DA6A13469B0013449B006A
