S02B00002F686F6D652F73696D6F6E2F4D542D432F4D443430372D6D656C6F64792F44656275672F4D4434301B
S3152000000000BFDFF810D003F009FC03F016FC03F064
S3152000001013BCFEE700C00120A3F5803A704700BF5D
S31520000020154B002B08BF114B9D46FFF7F5FF00210E
S315200000308B460F461148124A121A04F02AFC0C4B22
S31520000040002B00D098470B4B002B00D09847002060
S31520000050002104000D000B4804F075FA04F0C6FCDC
S315200000602000290003F0E9FB04F074FA00000800E0
S31520000070000000000000000000000000F0550020F5
S31520000080ACBF0120354A00207C5500207C5500203D
S31520000090E8550020F0550020ACBF012000000000EC
S315200000A000F1080343604FF0FF328260C3600361B2
S315200000B000230360704700230361704730B40D6846
S315200000C0B5F1FF3F11D000F108031C465B681A68A2
S315200000D0AA42FAD963684B6099608C6061600861B6
S315200000E003680133036030BC70470469F2E7036993
S315200000F0416882688A60416851605A68824206D0A7
S31520000100002202611A68013A1A60186870478268EC
S315200001105A60F5E728B110B4044631B300200346EF
S315200001200DE04FF0100383F31188BFF36F8FBFF3F9
S315200001304F8FFEE70E4800EBC30014E00133072B78
S3152000014010D80B4A02EBC3025268A242F2D0002812
S31520000150F4D1074A52F83320002AEFD1044800EBA5
S31520000160C300EBE708B1016044605DF8044B7047BB
S31520000170F0550020024A136C01331364704700BF08
S31520000180F0550020014B586C704700BFF0550020F9
S31520000190064B986C00B170474FF0100383F311881B
S315200001A0BFF36F8FBFF34F8FFEE700BFF0550020E0
S315200001B0C368DB68002B52D010B49A6AD869196AD2
S315200001C08160D869486003F11800516881424FD098
S315200001D000219962116801391160324A126C002A95
S315200001E04CD15A699868D968816098684860181D0A
S315200001F0516881423FD0002159611168013911604F
S31520000200DA6A2849C96C8A4201D92649CA6425492D
S3152000021002EB820201EB8202526D9A609468DC60E6
S3152000022060609060DA6A01F1500002EB820400EB14
S315200002308400586101EB8400006D013001EB8401DC
S315200002400865DA6A174BD3F8C434DB6A9A4226D992
S315200002500120144BC3F8C8045DF8044B70474FF0D7
S31520000260100383F31188BFF36F8FBFF34F8FFEE721
S31520000270196A5160ACE7D9685160BCE7094AD2F8DF
S31520000280B414D9618C681C626060886002F596613E
S315200002909962D2F8B0140131C2F8B014D1E7002027
S315200002A0DAE700BFF0550020034BD3F8CC240260D8
S315200002B05B6C4360704700BFF0550020024B012263
S315200002C0C3F8C824704700BFF055002070B500243D
S315200002D007E004EB8402930011481844FFF7E0FE80
S315200002E00134372CF5D90F4C04F59A663046FFF7C2
S315200002F0D7FE04F2E4452846FFF7D2FE04F59660C1
S31520000300FFF7CEFE04F59F60FFF7CAFE04F20C50FD
S31520000310FFF7C6FEC4F82065C4F8245570BD00BF9B
S3152000032040560020F0550020094BD3F820351B6895
S315200003302BB9074B4FF0FF32C3F828257047044BE3
S31520000340D3F82025D2681268C3F82825704700BF45
S31520000350F05500205B4B1B6C002B40F0A98070B53C
S31520000360584B5C6C01345C64E4B9D3F820351B68C7
S3152000037043B14FF0100383F31188BFF36F8FBFF3A0
S315200003804F8FFEE74F4BD3F82025D3F82415C3F81B
S315200003902015C3F82425D3F8CC240132C3F8CC2465
S315200003A0FFF7C2FF474BD3F82835A34212D90020C6
S315200003B0444AD2F8C434DB6A03EB830399000A4427
S315200003C0136D012B00D901203E4BD3F8C834002BE6
S315200003D076D170BD00203EE03A4B4FF0FF32C3F895
S315200003E02825E5E7374BC3F82825E1E7D96851608A
S315200003F049E000219962116801391160DA6A3149B0
S31520000400C96C8A4201D92F49CA642E4902EB82025D
S315200004104FEA820C8C44DCF854209A609668DE60A1
S3152000042075609560DA6A01F1500502EB820E4FEA9B
S315200004308E0C65445D618C44DCF8505001354FEAE2
S315200004408E0C8C44CCF85050DA6AD1F8C434DB6A6E
S315200004509A4200D901201B4BD3F820351B68002B6C
S31520000460BAD0184BD3F82035DB68DB685A6894423B
S31520000470B8D35A699D68D968A9609D684D601D1DCD
S315200004805168A942B2D00021596111680139116021
S315200004909A6A002AB2D0DE69196AB160DE694E60B6
S315200004A003F1180156688E42A3D1196A5160A0E75C
S315200004B0044AD2F82C350133C2F82C350020704777
S315200004C0012086E7F0550020064BD3F8303533B1AE
S315200004D0044B1B6C0BB10020704702207047012093
S315200004E0704700BFF05500202DE9F04104460D4627
S315200004F0254B5E6CD3F82075D3F82485D3F8C40435
S315200005000430FFF7F4FDB4F1FF3F0FD034441E4B07
S31520000510D3F8C4345C60A64227D91B4BD3F8C41445
S3152000052004314046FFF7CAFDBDE8F081002DEDD02D
S31520000530154BD3F81025D3F8C4148A60D3F8C41405
S315200005409068C860D3F8C41404314160D3F8C41449
S3152000055004319160D3F8C42403F20C515161D3F8CD
S315200005600C250132C3F80C25DEE7074DD5F8C41457
S3152000057004313846FFF7A2FDD5F82835A342D3D952
S31520000580C5F82845D0E700BFF055002060B110B56A
S315200005900C460A4AD2F8C4141831FFF78FFD012100
S315200005A02046FFF7A1FF10BD4FF0100383F31188FB
S315200005B0BFF36F8FBFF34F8FFEE700BFF0550020CC
S315200005C038B500B38C46114605464268124BD3F81F
S315200005D0C404C261D3F8C40494680462D3F8C40482
S315200005E018306060D3F8C40418309060D3F8C4344F
S315200005F09D622B6801332B6009B14FF0FF3C6046AA
S31520000600FFF772FF38BD4FF0100383F31188BFF355
S315200006106F8FBFF34F8FFEE7F0550020074BD3F8BF
S31520000620342513682BB90123036023B9D3681868CE
S3152000063070470023F8E70020704700BFF0550020E0
S3152000064008B54160006191420DD8D21A83699A4259
S3152000065001D3012008BD011D0A4BD3F83805FFF749
S315200006602DFD0020F6E79A4201D2994207D2011DBC
S31520000670044BD3F83405FFF721FD0020EAE70120DB
S31520000680E8E700BFF055002070B504460D46164633
S3152000069004E0A3691D44236A20469847A1692B4696
S315200006A0324629442046FFF7CBFF0028F1D170BD02
S315200006B070B505460E460D4BD3F83435DB68DC683D
S315200006C0201DFFF714FD94F8283013F0040F07D1EE
S315200006D023F0010384F82830236A2046984770BD0A
S315200006E0324629462046FFF7CFFFF5E7F055002092
S315200006F008B505E0DB684FF0FF311868FFF7D8FF33
S31520000700064BD3F834351A68002AF3D1034AD2F8B7
S315200007103815C2F83415C2F8383508BDF055002012
S3152000072038B50546FFF72EFD0446084BD3F83C3571
S31520000730834206D800232B60044BC3F83C45204651
S3152000074038BDFFF7D5FF01232B60F5E7F0550020D4
S315200007504FF0807340F8043C21F0010140F8081C5A
S31520000760054B40F80C3C40F8202C6FF0020340F873
S31520000770243C4438704700BF7D07002082B0002308
S3152000078001930D4B1B68B3F1FF3F08D04FF01003C8
S3152000079083F31188BFF36F8FBFF34F8FFEE74FF0C0
S315200007A0100383F31188BFF36F8FBFF34F8F019B25
S315200007B0002BFCD002B070477C550020084B1968EE
S315200007C00868B0E8F04F80F30988BFF36F8F4FF0C9
S315200007D0000080F311887047AFF30080AFF30080EC
S315200007E0B45A002008480068006880F308884FF053
S315200007F0000080F3148862B661B6BFF34F8FBFF353
S315200008006F8F00DF00BF000008ED00E008B54FF055
S31520000810100383F31188BFF36F8FBFF34F8FFFF75A
S3152000082099FD28B14FF0E0234FF08052C3F8042DF4
S31520000830002383F3118808BDEFF30980BFF36F8F80
S31520000840174B1A681EF0100F08BF20ED108A20E9FA
S31520000850F04F10602DE909004FF0100080F3118849
S31520000860BFF34F8FBFF36F8F02F07EFE4FF0000075
S3152000087080F3118809BC19680868B0E8F04F1EF0AB
S31520000880100F08BFB0EC108A80F30988BFF36F8F72
S31520000890704700BFAFF30080AFF30080AFF3008056
S315200008A0B45A00204FF0100383F31188BFF36F8FE3
S315200008B0BFF34F8F0B4A136801331360012B00D00F
S315200008C070474FF0E023D3F8043D13F0FF0FF7D025
S315200008D04FF0100383F31188BFF36F8FBFF34F8F51
S315200008E0FEE700BF7C550020094B1B6843B94FF03B
S315200008F0100383F31188BFF36F8FBFF34F8FFEE78B
S31520000900013B034A13600BB983F31188704700BF7C
S315200009107C55002038B590B10D460446C36B2BB1EB
S31520000920026C0021A2FB032393B999B14FF0100367
S3152000093083F31188BFF36F8FBFF34F8FFEE74FF01E
S31520000940100383F31188BFF36F8FBFF34F8FFEE73A
S315200009500121EAE7FFF7A6FF2368E26B216C01FB82
S315200009600230A0600020A0636360013A02FB0133DD
S31520000970E360FF2384F8443084F84530B5B9236911
S315200009801BB9FFF7B1FF012038BD04F11000FFF7B6
S315200009900FFC0028F5D04FF0E0234FF08052C3F82B
S315200009A0042DBFF34F8FBFF36F8FEAE704F11000DA
S315200009B0FFF776FB04F12400FFF772FBE1E738B579
S315200009C01D46049C0B4649B92460E063236401213B
S315200009D02046FFF79FFF84F84C5038BD2260F4E78D
S315200009E073B110B584B01C4608B192B199B94FF0D5
S315200009F0100383F31188BFF36F8FBFF34F8FFEE78A
S31520000A004FF0100383F31188BFF36F8FBFF34F8F1F
S31520000A10FEE70029EBD150230393039B502B08D0EC
S31520000A204FF0100383F31188BFF36F8FBFF34F8FFF
S31520000A30FEE7039B00949DF81830FFF7C0FF204681
S31520000A4004B010BD38B50546FFF72CFF95F8454094
S31520000A5064B201E0013C64B2002C0ADD6B6A43B14A
S31520000A6005F12400FFF7A4FB0028F3D0FFF726FCAE
S31520000A70F0E7FF2385F84530FFF736FFFFF712FF33
S31520000A8095F8444064B201E0013C64B2002C0ADDD2
S31520000A902B6943B105F11000FFF78AFB0028F3D03C
S31520000AA0FFF70CFCF0E7FF2385F84430FFF71CFF27
S31520000AB038BD10B50446FFF7F5FEA36B23B9012414
S31520000AC0FFF712FF204610BD0024F9E770B5044653
S31520000AD00D461646FFF7E6FE94F844305BB2B3F1B6
S31520000AE0FF3F0DD094F845305BB2B3F1FF3F0BD0FA
S31520000AF0FFF7FAFEA36B5BB12046FFF7A3FF70BD9D
S31520000B00002384F84430EDE7002384F84530EFE7EE
S31520000B103246294604F12400FFF752FDECE738B5AA
S31520000B200446FFF7BFFE304BD3F840250132C3F809
S31520000B304025D3F8C43473B12B4BD3F830358BB959
S31520000B40294BD3F8C434DA6AE36A9A420AD8264B88
S31520000B50C3F8C44406E0244BC3F8C444D3F8403554
S31520000B60012B3DD0204AD2F844350133C2F8443512
S31520000B706364E36AD26C934201D91B4AD3641A4D4B
S31520000B8003EB830305EB83035B6DA3609968E16048
S31520000B90221D4A609A60E36A05F1500203EB830145
S31520000BA002EB8102626105EB8102126D013205EBD7
S31520000BB081031A65FFF798FED5F830357BB1D5F855
S31520000BC0C434DA6AE36A9A4209D24FF0E0234FF03E
S31520000BD08052C3F8042DBFF34F8FBFF36F8F38BDFC
S31520000BE0FFF774FBBEE700BFF055002010B5FFF7F6
S31520000BF059FE514B1B6C43B94FF0100383F31188F8
S31520000C00BFF36F8FBFF34F8FFEE74B4B1A6C013A42
S31520000C101A641B6C002B40F08A80474BD3F8403572
S31520000C203BB9002484E0196A516017E0D968516005
S31520000C3023E00023404AD2F8B024002A4ED03E4B6F
S31520000C40D3F8BC34DB689A6AD869196A8160D86996
S31520000C50486003F1180150688842E4D00021996267
S31520000C601168013911605A699868D9688160986855
S31520000C704860181D51688142D8D0002159611168F9
S31520000C8001391160DA6A2C49C96C8A4201D92A498C
S31520000C90CA64294902EB820201EB8202526D9A60F4
S31520000CA09468DC6060609060DA6A01F1500002EBC3
S31520000CB0820400EB8400586101EB8400006D013052
S31520000CC001EB84021065D86AD1F8C424D26A904216
S31520000CD0B0D90A460121C2F8C814ABE70BB1FFF719
S31520000CE023FB154BD3F82C459CB9134BD3F8C8449A
S31520000CF0F4B1D3F8C4344FF0E0234FF08052C3F858
S31520000D00042DBFF34F8FBFF36F8F012410E0013CFA
S31520000D1008D0FFF71FFB0028F9D0074B0122C3F8A4
S31520000D20C824F4E7044B0022C3F82C25DDE7002471
S31520000D30FFF7DAFD204610BDF055002010B550B95A
S31520000D404FF0E0234FF08052C3F8042DBFF34F8FAE
S31520000D50BFF36F8F10BD0446FFF70CFA0A4B1B6CCE
S31520000D60012B08D04FF0100383F31188BFF36F8F48
S31520000D70BFF34F8FFEE700212046FFF7B5FBFFF7B5
S31520000D8035FF0028E6D1DBE7F055002070B582B0AC
S31520000D9006460C46FFF7EEF901A8FFF7C1FC019BBA
S31520000DA043BB0546ECB9B04214D22246711B134B05
S31520000DB0D3F84805FFF78AFEFFF718FFE0B94FF092
S31520000DC0E0234FF08052C3F8042DBFF34F8FBFF3BB
S31520000DD06F8F11E0FFF70AFF29463046FFF768FCC0
S31520000DE00AE0064AD2F8382512680AB90124DCE757
S31520000DF01C46DAE7FFF7FAFE02B070BDF055002078
S31520000E00F8B5C0B10C460546F1B1FFF74BFD1C4BBA
S31520000E10596C6B68C81A2268B2F1FF3F2BD0184E66
S31520000E20D6F8CC642F68B74217D08B4215D800234A
S31520000E302360012420E04FF0100383F31188BFF3D1
S31520000E406F8FBFF34F8FFEE74FF0100383F31188A8
S31520000E50BFF36F8FBFF34F8FFEE7824203D8002385
S31520000E602360012408E05B1A134423602846FFF719
S31520000E701BFA002400E00024FFF736FD2046F8BDCB
S31520000E80F0550020104BD3F84C35DBB110B5FFF7E9
S31520000E9009FD0D4CD4F80435D8680430FFF727F93E
S31520000EA0D4F84035013BC4F84035D4F84C35013BE5
S31520000EB0C4F84C35FFF718FD034BD3F84C35002BFF
S31520000EC0E5D110BD704700BFF055002008B5FFF7EB
S31520000ED0D9FF074B1B6D012BF9D94FF0E0234FF0BB
S31520000EE08052C3F8042DBFF34F8FBFF36F8FEEE709
S31520000EF0F055002040B14FF0100383F31188BFF363
S31520000F006F8FBFF34F8FFEE770B50E46144605462A
S31520000F10FFF730F9FFF7C6FC2B4BD3F8C43405F1A5
S31520000F20140203EB82035B6853BB274BD3F8C4340C
S31520000F302B44012283F8582034BBFFF7D5FCFFF75A
S31520000F4055FE4CBBFFF7AEFC1F4BD3F8C43405F15E
S31520000F50140203EB82035C683CB156B31A4BD3F8F8
S31520000F60C43403EB820300225A60174BD3F8C434EF
S31520000F702B44002283F85820FFF7B6FC204670BD8C
S31520000F80FFF7B2FC0024DAE7FFF7AEFC012120468A
S31520000F90FFF7AAFA0124D2E70028D3D14FF0E023A5
S31520000FA04FF08052C3F8042DBFF34F8FBFF36F8FDE
S31520000FB0C8E7054BD3F8C434621E05F1140103EBD0
S31520000FC081035A60D1E700BFF055002070B582B08A
S31520000FD0FFF768FC144BD3F848351BB1FFF784FCA8
S31520000FE002B070BD104C04F5AA663046FFF758F8DB
S31520000FF004F264552846FFF753F8C4F83465C4F85C
S3152000100038550023009304F5AF6304F5B9620C212B
S315200010100A20FFF7E5FCC4F848050028DED003497E
S31520001020FFF778F8DAE700BFF055002020530020BC
S315200010304FF0E02300221A619A61024A5A61072280
S315200010401A6170473F900200DFF80C00016841F4F6
S31520001050700101607047000088ED00E0EFF3058322
S315200010600F2B10D9124A9B5CDBB2124A92F840260B
S315200010709A4208D94FF0100383F31188BFF36F8F7C
S31520001080BFF34F8FFEE74FF0E023D3F80C3D03F478
S31520001090E063084AD2F84426934208D94FF0100359
S315200010A083F31188BFF36F8FBFF34F8FFEE770472F
S315200010B0F0E300E0F055002068B170B50C46154607
S315200010C0064689B14FF0100383F31188BFF36F8F63
S315200010D0BFF34F8FFEE74FF0100383F31188BFF362
S315200010E06F8FBFF34F8FFEE7FFF7B8FFEFF3118047
S315200010F04FF0100383F31188BFF36F8FBFF34F8F29
S31520001100331993F85820D2B2022183F8581004F1EB
S31520001110140306EB8303596801315960012A02D072
S3152000112080F3118870BDB36A43B14FF0100383F387
S315200011301188BFF36F8FBFF34F8FFEE72C4B1B6CCD
S31520001140002B41D17369B168F2688A60B168516039
S31520001150311D5A688A4234D0002272611A68013AD7
S315200011601A60F36A224AD26C934201D9204AD36488
S315200011701F4A03EB830302EB83035B6DB3609C681A
S31520001180F46061609960F36A02F1500103EB830415
S3152000119001EB8401716102EB8401096D013102EBDF
S315200011A084021165F26A124BD3F8C434DB6A9A4280
S315200011B0B6D90DB101232B600D4B0122C3F8C824EB
S315200011C0AEE7F2685A60C7E7094BD3F8B424F26158
S315200011D09468346206F118016160916003F59662A5
S315200011E0B262D3F8B0240132C3F8B024DAE700BFE4
S315200011F0F055002010B5827A012393403F4AD2F859
S31520001200001241F00101C2F80012D2F81C126FEA56
S31520001210030C21EA0301C2F81C12027BD2B9374A19
S31520001220D2F80C120CEA0101C2F80C12B0F806E052
S315200012304488817A44EA0E44483142F83140848811
S31520001240018890F80AE041EA04410EF1480E02EBCB
S31520001250CE025160027B012A20D0C27A002A37D1E1
S315200012602649D1F804220CEA0202C1F80422028996
S3152000127032B92249D1F814220CEA0202C1F814220A
S315200012800289012A2BD0427B012A2FD01B4AD2F871
S31520001290003223F00103C2F8003210BD174AD2F8FB
S315200012A00C121943C2F80C12B0F800E04488817A77
S315200012B044EA0E44483142F83140B0F804E0C1888F
S315200012C0847A41EA0E41483402EBC4025160C4E7F5
S315200012D00A49D1F804221A43C1F80422C7E707496C
S315200012E0D1F814221A43C1F81422CCE70349D1F8C5
S315200012F01C221343C1F81C32C8E700BF006400401B
S3152000130030B4094C226840F6FE73834022EA030279
S315200013100B684D682B438D682B43C9680B4383406C
S315200013201343236030BC70470074004000230360E1
S3152000133043608360C360704731B107490B6801225F
S31520001340824013430B60704703490B680122824099
S3152000135023EA02030B6070470074004082B000232A
S315200013600193054B0193019B034414330193019B85
S31520001370196002B0704700BF00740040044B002281
S315200013801A605A609A60DA60024A5A61704700BF52
S31520001390003C0140FFFF7F008379002B36D010B43C
S315200013A0204B1A68016822EA01021A605A6801680D
S315200013B022EA01025A60027902F1804202F59E3247
S315200013C011680468214311609A68016822EA0102C3
S315200013D09A60DA68016822EA0102DA604379102B02
S315200013E00AD003F1804303F59E331A6801680A4345
S315200013F01A605DF8044B70470A4B9A6801680A43E5
S315200014009A60DA6801680A43DA60F2E7037903F141
S31520001410804303F59E331A68016822EA01021A60A6
S31520001420704700BF003C01400023036003710C227B
S3152000143042718371704700220F2A4DD810B514E0EF
S31520001440C36894B264004FF0030E0EFA04FE23EA3A
S315200014500E03C360C36891F807E00EFA0CFC43EA5A
S315200014600C03C36001320F2A35D8012393400C6840
S31520001470A343F7D104684FEA420C032303FA0CF383
S315200014806FEA030E24EA0303036003680C7904FA67
S315200014900CF4234303600B79013BDBB2012BCFD83D
S315200014A083680EEA0303836083684C7904FA0CF49C
S315200014B02343836043681FFA82FE012404FA0EF454
S315200014C023EA0403436044688B7903FA0EF39BB244
S315200014D023434360B4E710BD70474FF6FF730360A4
S315200014E00023037143718371C37170470AB101836D
S315200014F070474183704710B401F007039B009A4060
S31520001500C908083150F821404FF00F0C0CFA03F3AC
S3152000151024EA030340F8213050F82130134340F8E1
S3152000152021305DF8044B704710B4294B9B6803F0BB
S315200015300C03042B21D0082B22D0002B45D1254B80
S315200015400360234CA368C3F303132349CA5CD2B2B6
S315200015500368D3404360A268C2F382228A5CD2B277
S3152000156023FA02F28260A268C2F342328A5CD2B2C5
S31520001570D340C3605DF8044B7047184B0360E0E727
S31520001580134B59685A6802F03F0211F4800F12D0AB
S31520001590124BB3FBF2F30E4A5268C2F3881202FBD7
S315200015A003F30B4A5268C2F3014201325200B3FBE5
S315200015B0F2F30360C5E7074BB3FBF2F3044A526824
S315200015C0C2F3881202FB03F3EBE7024B0360B8E792
S315200015D0003802400024F4009852002000127A00BD
S315200015E021B1054A136B034313637047024A136BF9
S315200015F023EA0003136370470038024021B1054AED
S31520001600136C034313647047024A136C23EA0003E6
S31520001610136470470038024021B1054A536C0343D6
S3152000162053647047024A536C23EA0003536470479D
S315200016300038024021B1054A1369034313617047FC
S31520001640024A136923EA00031361704700380240F7
S3152000165008B5374B984218D0364B98421ED0364B99
S31520001660984224D0354B98422AD0354B984230D0D8
S31520001670344B984236D0344B98423CD0334B984228
S3152000168042D0334B984248D008BD01210846FFF787
S31520001690D1FF00210120FFF7CDFFF5E70121022030
S315200016A0FFF7C8FF00210220FFF7C4FFECE7012166
S315200016B00420FFF7BFFF00210420FFF7BBFFE3E76D
S315200016C001210820FFF7B6FF00210820FFF7B2FF0F
S315200016D0DAE701211020FFF7ADFF00211020FFF7E8
S315200016E0A9FFD1E701212020FFF7A4FF0021202018
S315200016F0FFF7A0FFC8E701214020FFF79BFF00214D
S315200017004020FFF797FFBFE701218020FFF792FFD8
S3152000171000218020FFF78EFFB6E701214FF480706D
S31520001720FFF788FF00214FF48070FFF783FFABE7B8
S31520001730000002400004024000080240000C024063
S31520001740001002400014024000180240001C024013
S315200017500020024021B1054A136A034313627047F1
S31520001760024A136A23EA00031362704700380240D4
S3152000177008B50C4B98420AD001214FF08060FFF744
S31520001780E9FF00214FF08060FFF7E4FF08BD01214B
S315200017904FF00070FFF7DEFF00214FF00070FFF7DB
S315200017A0D9FFF3E70064004008B501214FF000504F
S315200017B0FFF7D0FF00214FF00050FFF7CBFF08BD09
S315200017C021B1054A136E034313667047024A136E0E
S315200017D023EA0003136670470038024010B401F074
S315200017E0030292004FF00F0C0CFA02FC8908084BFA
S315200017F0023153F8214024EA0C0443F8214053F8DF
S3152000180021409040044343F821405DF8044B704743
S315200018100038014003889BB21B4A904212D002F541
S31520001820806290420ED0B0F1804F0BD0A2F580326C
S31520001830904207D002F58062904203D002F5806282
S31520001840904203D123F070034A8813430F4A9042F3
S3152000185008D002F58062904204D023F440739BB2F4
S315200018600A89134303804B68C3620B880385064BA2
S31520001870984203D003F58063984201D18B7A038680
S3152000188001238382704700BF000001400010004002
S31520001890C1627047406A704729B103889BB243F002
S315200018A001030380704703889BB223F001039BB298
S315200018B00380704722B183899BB20B438381704793
S315200018C08389C94389B2194081817047028A8389F5
S315200018D00B40114202D01BB90020704700207047F0
S315200018E001207047C94389B201827047C1F30801BC
S315200018F0818070470388194201D00120704700205B
S31520001900704740F0BF6040F40030014BD86070470C
S3152000191000ED00E0C378FBB1154BDA68D243C2F381
S315200019200222C2F10401C9B20F23134142788A4030
S31520001930D2B281780B4013431B01DBB202780D49EA
S315200019400A4482F80033037803F01F005B09012262
S31520001950824041F823207047037803F01F015B097A
S3152000196001228A402033034941F82320704700BFD3
S3152000197000ED00E000E100E000B585B06846FFF725
S31520001980D3FD01210846FFF739FE029B5B00124A70
S31520001990A2FB03239B0C013B1049A1F848364FF0CC
S315200019A0FF33C1F84C360023A1F85036A1F84A3649
S315200019B001F5C9614FF08040FFF72CFF0122114647
S315200019C04FF08040FFF776FF01214FF08040FFF770
S315200019D063FF05B05DF804FB83DE1B43F055002052
S315200019E008B54FF08040FFF755FF08BD10B50446F7
S315200019F080210548FFF77EFF0028F9D021460248BE
S31520001A00FFF774FF10BD00BF001001409A4200D2BC
S31520001A1088547047704700B9704708B5FFF7E6FF4E
S31520001A2008BD0146002008E000EB8000531C0B6037
S31520001A30137803EB4003A3F130000A681378303B98
S31520001A40DBB2092BF0D970472DE9F04F83B005465C
S31520001A500E4693461F46DDF830A00D9CDDF83890E3
S31520001A600F9B13F0030F19D1A0460192C84509D246
S31520001A7002F1010B3B4631462020A84708F1010818
S31520001A805A46F3E7DDF804B008E0013C02F101080C
S31520001A903B4631461AF80400A8474246002CF4D1AA
S31520001AA00F9B13F0020F03D1104603B0BDE8F08F51
S31520001AB0A2EB0B034B45F7D2541C3B463146202064
S31520001AC0A8472246F4E72DE9F04385B099460C9DB8
S31520001AD00D9C9DF83880DDF840E0119F129E16F08F
S31520001AE0020F21D17FB116F0010F0CD0B8F1000FF3
S31520001AF002D116F00C0F06D0013F04E04FF0300C57
S31520001B0005F804C00134744501D21F2CF6D916F00D
S31520001B10010F09D0BC4207D21F2C05D84FF0300C3C
S31520001B2005F804C00134F2E716F0100F14D016F4AD
S31520001B30806F04D11CB1744522D0BC4220D00F9BAB
S31520001B40102B36D00F9B022B3ED01F2C0ED84FF0D9
S31520001B50300C05F804C001341F2C07D8B8F1000F4B
S31520001B603AD04FF02D0C05F804C0013403960297A5
S31520001B70019400954B46FFF767FF05B0BDE8F0835B
S31520001B80B4F1010C13D00F9B102B0ED064460F9B83
S31520001B90102BD7D116F0200FD4D01F2CD2D84FF02F
S31520001BA0580C05F804C00134CFE7023CC7E7644669
S31520001BB0C5E716F0200FEAD11F2CE8D84FF0780C95
S31520001BC005F804C00134C0E71F2CCFD84FF0620CB3
S31520001BD005F804C00134B8E716F0040F05D04FF01D
S31520001BE02B0C05F804C00134C0E716F0080FBDD051
S31520001BF04FF0200C05F804C00134B7E7F0B591B0DA
S31520001C00169C189D1B9E0CB926F0100616F4806EA5
S31520001C1016D064B34FF0000E12E00CF1300C5FFAD0
S31520001C208CFC0EF101070EF1400EEE440EF820CC8E
S31520001C30B4FBF5FCAC421BD31F2F19D8BE46644615
S31520001C40B4FBF5FC05FB1C4C5FFA8CFCBCF1090FC0
S31520001C50E3D916F0200F08D04127BC445FFA8CFC4C
S31520001C60ACF10A0C5FFA8CFCDBE76127F5E7274627
S31520001C7006961A9C0594199C049403959DF85C403D
S31520001C800294019708AC0094FFF71DFF11B0F0BD38
S31520001C902DE9F04F95B009900A910B929846DDF800
S31520001CA078B0DDF87C90229D239F269E5BEA090270
S31520001CB001D126F0100616F480641ED05BEA0902D4
S31520001CC02FD0002419E03032D3B204F1010A04F1F6
S31520001CD050020DEB020404F8203C2A463B465846A7
S31520001CE0494602F0D1FBAB4579EB07091BD3BAF184
S31520001CF01F0F18D85446834689462A463B465846DF
S31520001D00494602F0C1FBD2B2092ADCD916F0200FCF
S31520001D1005D041231344DBB20A3BDBB2D5E761236E
S31520001D20F8E74FF0000A0696259B0593249B04931B
S31520001D3003959DF880300293CDF804A00CAB009358
S31520001D4043460B9A0A990998FFF7BDFE15B0BDE8E0
S31520001D50F08F2DE9F04F2DED028B93B082460C4685
S31520001D6093461D4657EC106B8DED080B32463B46CD
S31520001D703046394602F00EFB002800F009814FF06C
S31520001D80FF32B14B3046394602F02CFB002840F09A
S31520001D90FF804FF0FF326FF480133046394602F051
S31520001DA003FB002840F0F48000220023DDE90867C9
S31520001DB03046394602F0F8FA002840F0FC809DEDC6
S31520001DC0087B8DED067B209B13F48063119301D154
S31520001DD006231E93DDE906010246C1F30A50C1F32C
S31520001DE01303904643F07F5949F44019A0F2FF307F
S31520001DF001F0FEFF82A3D3E9002302F063F882A359
S31520001E00D3E9002301F0A8FE06460F4600228F4B99
S31520001E104046494601F09EFE7DA3D3E9002302F009
S31520001E2051F802460B463046394601F095FE02F03F
S31520001E30E3FA064601F0DCFF8046894676A3D3E91D
S31520001E40002302F03FF80022814B01F085FE02F0CC
S31520001E50D3FA074672A3D3E900234046494602F047
S31520001E6031F880468946384601F0C2FF6EA3D3E991
S31520001E70002302F027F802460B464046494601F069
S31520001E8069FE8046894602460B4602F01BF8CDE9DC
S31520001E900C0107F2FF3700210022CDE90A123B058B
S31520001EA00B9300230A9342464B464046494601F08F
S31520001EB053FECDE90E0142464B4600204FF08041AD
S31520001EC001F048FE804689460022624BDDE90C017E
S31520001ED002F022F90022604B01F03EFE02460B463C
S31520001EE0DDE90C0102F018F900225C4B01F034FE0A
S31520001EF002460B46DDE90C0102F00EF902460B46BE
S31520001F004046494601F028FE02460B46DDE90E0111
S31520001F1002F002F90022524B01F01EFEDDE90A23EF
S31520001F2001F0D0FF8046894649EC188BDDE906236F
S31520001F3002F058FA40B1013E0022474B404649463E
S31520001F4002F0EAF841EC180B06F16303C62B3BD8E6
S31520001F500427209B13F4006F40D035A3D3E9002338
S31520001F60DDE906894046494602F032FA00283BD090
S31520001F7031A3D3E900234046494602F015FA00284A
S31520001F8032D01E9BB34221DD9E1B731E1E931FE083
S31520001F90209B02931F9B01931E9B00939DED080B94
S31520001FA02B465A462146504600F0C9F813B0BDECE0
S31520001FB0028BBDE8F08F9FED227B8DED067B06968A
S31520001FC007F100430793FEE60527C2E700231E9389
S31520001FD0209B43F48063209300273E461F9B9F420D
S31520001FE040D2A3EB07083FE01E9B002BF6D0119BA7
S31520001FF0002BF3D01E9B013B1E93EFE7AFF300802F
S31520002000FB799F501344D33FB3C8608B288AC63FC1
S3152000201061436F63A787D23F71A379094F930A4023
S315200020201655B5BBB16B0240EF39FAFE422EE63F9C
S315200020302D431CEBE2361A3F0000000080842E411F
S315200020400000000000000000FFFFEF7F0000F83FC7
S315200020500000E03F00002C40000024400000184013
S315200020600000F03F4FF00008209B13F0020902D039
S315200020700FB14FF000083EB153EC182BDDE90601F5
S3152000208002F04AF8CDE9060100220023DDE9080125
S3152000209002F08AF900283BD1209B23F400630293A7
S315200020A0CDF804801E9B00939DED060B2B465A46C9
S315200020B02146504600F043F8002F3FF477AF209B8F
S315200020C013F0200F2CD04FF0450C00F101082B46C1
S315200020D0024621466046D04786EAE672A2EBE672C1
S315200020E005230593013F0497002303930A230293B4
S315200020F0F30F019300922B46424621465046FFF7A6
S315200021007DFDB9F1000F3FF451AF02461F9F10E04D
S31520002110DDE90601024601F10043CDE90623BBE7CE
S315200021204FF0650CD1E7561C2B4621462020D04780
S315200021303246A2EB0B03BB42F5D3104636E72DE918
S31520002140F04F2DED028B93B00590089192469B4659
S3152000215059EC108B1E9D42464B464046494602F09E
S3152000216019F9002840D04FF0FF326FF48013404613
S31520002170494602F019F9002845D14FF0FF32AC4B01
S315200021804046494602F02EF900284BD1A4A3D3E9B4
S3152000219000234046494602F025F900285AD1A2A339
S315200021A0D3E900234046494602F0FEF8002851D1E3
S315200021B0002200234046494602F0F6F8002857D16F
S315200021C000230993209B13F4806F5CD000241F2CDE
S315200021D05BD8092D59D904F148036B44302203F802
S315200021E0202C013D0134F2E7209B03931F9B029391
S315200021F0032301938F4B00935B465246089905981B
S31520002200FFF722FC07E1209B03931F9B02930423E5
S315200022100193894B00935B46524608990598FFF730
S3152000222013FCF8E0209B13F004030FD0834A7BB104
S315200022300423209903911F990291019300925B46F2
S31520002240524608990598FFF7FFFBE4E07C4AEEE743
S315200022500323EEE7209B02931F9B0193009549ECF5
S31520002260108B5B46524608990598FFF772FDD2E01F
S3152000227042464B460020002101F06CFC80468946F0
S31520002280012309939EE70625A0E74046494602F02A
S31520002290B3F8064601F0ACFD02460B4640464946D9
S315200022A001F058FC674B03EBC50393ED048B53EC0D
S315200022B0182B01F007FE02460B46CDE9062302F055
S315200022C0C3F8074601F084FD02460B46DDE9060108
S315200022D001F040FC02460B46CDE9062300225A4B6C
S315200022E002F080F808B30137384601F071FD024646
S315200022F00B4651EC180B02F061F808B101360027A5
S315200023000DBB304601F074FD02460B464046494659
S3152000231001F020FC00224C4B02F046F8002842D166
S3152000232016F0010F3FD001363DE00022464BDDE995
S31520002330060102F039F80028E2D117B117F0010F93
S31520002340DED00137DCE71F2C17D8013D3F4BA3FB1E
S315200023500723DB08194603EB8303A7EB4303621C21
S31520002360303304F148000DEB000404F8203C092F1B
S3152000237002D90F461446E6E714461F2C0AD86B1ED0
S3152000238045B104F148026A44302102F8201C1D465A
S315200023900134F2E71F2C06D804F148036B442E22A1
S315200023A003F8202C01341F2C17D8294A82FB063229
S315200023B0F317C3EBA2031A4603EB8303A6EB4303EF
S315200023C0611C303304F148000DEB000404F8203C76
S315200023D016460AB10C46E6E70C46209B03F003039B
S315200023E0012B37D01F2C09D8099B002B4FD004F185
S315200023F048036B442D2203F8202C0134209B0393A1
S315200024001F9B029301940AAB00935B4652460899A0
S315200024100598FFF719FB13B0BDEC028BBDE8F08FD2
S315200024200000000065CDCD410000000065CDCDC186
S31520002430FFFFEF7F3453002038530020285300201D
S3152000244030530020985200200000E03FCDCCCCCC69
S31520002450676666661F9BB3B1099B1BB9209B13F069
S315200024600C0F12D01F9B013B1F93194606E004F167
S3152000247048036B44302203F8202C01348C42B1D21D
S315200024801F2CF4D9AEE71F99F8E71F99F6E7209B92
S3152000249013F0040F07D004F148036B442B2203F8F2
S315200024A0202C0134AAE7209B13F0080FA6D004F1B4
S315200024B048036B44202203F8202C01349EE72DE9A3
S315200024C0F04F91B0804617460F938946002900F0B9
S315200024D0488300260F9B1878002800F0458325287E
S315200024E009D0741C3B4632464946C0470F9B0133F0
S315200024F00F932646EEE701330F9300251FE045F0A4
S31520002500010501320F92012318E045F00205013240
S315200025100F92012312E045F0040501320F920123A8
S315200025200CE045F0080501320F92012306E045F044
S31520002530100501320F92012300E0002353B30F9AB6
S315200025401378203B102BF8D801A151F823F000BFB7
S31520002550232500203B2500203B2500202F25002079
S315200025603B2500203B2500203B2500203B25002045
S315200025703B2500203B2500203B2500201725002059
S315200025803B2500200B2500203B2500203B25002055
S31520002590FF2400200B930F9B1A78A2F13003DBB2A5
S315200025A0092B18D92A2A1BD0DDF82CB00F9B1A78B4
S315200025B02E2A25D00F9A1378683B122B5CD8DFE899
S315200025C003F0495BAC5B3B5B5B5B5B5B5B5B575BDD
S315200025D05B5B5B5BB1000FA8FFF723FA8346E5E759
S315200025E01A9B1A1D1A921B68002B04DB9B460F9B15
S315200025F001330F93DAE745F00205C3F1000BF6E746
S3152000260045F480655A1C0F925A78A2F13003DBB24A
S31520002610092B0CD92A2ACDD11A9B1A1D1A921C686D
S3152000262024EAE4730B930F9B01330F93C2E70FA8A1
S31520002630FFF7F7F90B90BDE745F48071531C0F9314
S3152000264053786C2B01D00D4616E045F440750232C6
S315200026500F9211E045F08001531C0F935378682B9D
S3152000266001D00D4608E045F0C00502320F9203E086
S3152000267045F4807501320F920F9B1878672856D83B
S315200026802528C0F06482A0F12503422B00F25F8248
S31520002690DFE813F052025D025D025D025D025D021B
S315200026A05D025D025D025D025D025D025D025D020C
S315200026B05D025D025D025D025D025D025D025D02FC
S315200026C05D025D025D025D025D025D025D025D02EC
S315200026D05D025D028601680186015D025D025D0282
S315200026E05D025D025D025D025D025D025D025D02CC
S315200026F05D025D025D025D025D0271005D025D02AA
S315200027005D025D025D025D025D025D025D02710099
S31520002710AB01710086016801860145F4007501321E
S315200027200F92A9E745F4807501320F92A4E7782825
S3152000273000F20D826928C0F00A82A0F16902D2B2A5
S315200027400123934049F24102134214D113F0800F22
S3152000275040F0D78113F4806F00F0F9811A9B1A1D7F
S315200027601A92D3F800A00B9B002B40F08C814FF0DF
S31520002770FF3253466DE16F280CD005D858283CD03F
S31520002780622803D1022306E0782838D025F01005E8
S315200027900A2300E00823582833D0692803D0642868
S315200027A001D025F00C0515F4806F01D025F0010528
S315200027B0692829D0642827D015F4007F40F094801A
S315200027C015F4807F40F0AC8015F0400F00F0BD80FE
S315200027D01A9A111D1A9112780595CDF810B00B99F9
S315200027E0039102930023019300923B4632464946C9
S315200027F04046FFF703FA064627E01023CBE71023CF
S31520002800C9E745F02005C8E715F4007F21D115F466
S31520002810807F42D115F0400F58D01A9A111D1A9177
S31520002820127882EAE271A1EBE2710595CDF810B03B
S315200028300B9803900293D20F019200913B463246A9
S3152000284049464046FFF7DAF906460F9B01330F93B8
S3152000285040E61A9A073222F0070202F108011A917D
S31520002860516812680846002913DB0895CDF81CB07C
S315200028700B9C0694049300230593C90F02910092A2
S3152000288001903B46324649464046FFF701FA064646
S31520002890DBE7524261EB4100E7E71A9A111D1A91D4
S315200028A0126882EAE271A1EBE2710595CDF810B0CB
S315200028B00B9803900293D20F019200913B46324629
S315200028C049464046FFF79AF90646BEE715F0800FBF
S315200028D005D01A9A111D1A91B2F90020A1E71A9A69
S315200028E0111D1A9112689CE71A9A073222F00702E4
S315200028F002F108011A910895CDF81CB00B990691A2
S315200029000021049305910291D2E90023CDE9002309
S315200029103B46324649464046FFF7BAF9064694E713
S315200029201A9A111D1A910595CDF810B00B9903919D
S31520002930029300230193136800933B46324649468F
S315200029404046FFF75BF906467FE715F0800F04D077
S315200029501A9A111D1A9112883EE71A9A111D1A9178
S31520002960126839E7462818D01A9B073323F0070345
S3152000297003F108021A9293ED000B0295CDF804B0EC
S315200029800B9B00933B46324649464046FFF7D7FB12
S3152000299006460F9B01330F939CE545F02005E3E7A0
S315200029A0672801D0472801D145F40065452801D084
S315200029B0472801D145F020051A9B073323F007034A
S315200029C003F108021A9293ED000B0295CDF804B09C
S315200029D00B9B00933B46324649464046FFF7B9F9E2
S315200029E006460F9B01330F9374E515F002051DD0A3
S315200029F001241A98031D1A9306F1010A3B46324612
S31520002A0049460078C047A5B90F9B01330F93564618
S31520002A1060E502F1010A3B4649462020C04723468D
S31520002A2052465C1C9B45F4D81646E2E70123324603
S31520002A30F7E7524606E0561C3B4649462020C0474B
S31520002A402C463246651CA345F5D89246DCE7013371
S31520002A500A46197811B1511E002AF8D1A3EB0A03B0
S31520002A6015F480620C9203D00B9A934228BF13462A
S31520002A7015F0020409D00D94CDF838B00B9D3246DE
S31520002A800C9E9B461FE00B9A73E63246264606E0CE
S31520002A90541C3B4649462020C0472B4622465D1CF7
S31520002AA09B45F5D834462B460D94CDF838B00B9D72
S31520002AB00C9E9B4607E01D460AF1010A541C3B4624
S31520002AC04946C04722469AF8000020B1002EF3D08E
S31520002AD06B1E002DEFD10D9C16465B46DDF838B0F7
S31520002AE054B90F9B01330F93F4E4551C3B464946DA
S31520002AF02020C04723462A465C1C9B45F5D816460F
S31520002B00EFE745F021051A9B1A1D1A921B680595B9
S31520002B10082204920B9A039210220292002201921A
S31520002B2000933B46324649464046FFF767F806463D
S31520002B300F9B01330F93CDE4741C3B463246494626
S31520002B402520C0470F9B01330F932646C2E4741CF1
S31520002B503B4632464946C0470F9B01330F932646D4
S31520002B60B8E4DFF82080B4E4BE4208D37A1E3B46A0
S31520002B7049460020C047304611B0BDE8F08F3246A6
S31520002B80F5E700BF151A0020F0B587B0414D28465D
S31520002B90FEF75EFD4048FEF7EBFD4048FEF7E8FDF8
S31520002BA001214FF00070FEF729FD01214FF08060D2
S31520002BB0FEF724FD01210220FEF712FD092211460F
S31520002BC02846FEF798FC092208212846FEF793FCA2
S31520002BD004A8FEF782FC4FF40073049302268DF8B6
S31520002BE0146000248DF816408DF817408DF8156076
S31520002BF004A92846FEF71FFC4FF4807304938DF832
S31520002C0014608DF8164001278DF817708DF8156021
S31520002C1004A92846FEF70FFC092206212846FEF7BE
S31520002C206AFC092205212846FEF765FC4023049309
S31520002C308DF814608DF816408DF817408DF81560C4
S31520002C4004A92846FEF7F7FB202304938DF8146089
S31520002C508DF816408DF817708DF8156004A9284652
S31520002C60FEF7E9FB8DF80A408DF80B408DF80C70C5
S31520002C70ADF80040ADF80240ADF80440ADF806408E
S31520002C80ADF808408DF80D706846FEF7B3FA07B028
S31520002C90F0BD00BF00040240006400400068004010
S31520002CA010B586B001214FF00050FEF7A7FC04A80E
S31520002CB0FEF713FC2023049303238DF814300024FD
S31520002CC08DF8174004A90C48FEF7B5FBFEF76CFDFE
S31520002CD06846FEF72BFB0094019403946946102066
S31520002CE0FEF70EFB01211020FEF726FB21460820C9
S31520002CF0FEF734FB06B010BD000002402DE9F0417E
S31520002D0084B001214FF48040FEF786FC0721012084
S31520002D10FEF764FDFEF732FB6846FEF785FB80274B
S31520002D20009700258DF804500C238DF805300124DA
S31520002D308DF806406846FEF72FFB02A8FEF7CDFB6E
S31520002D404FF00208CDF808808DF80C408DF80E4023
S31520002D508DF80F508DF80D40154E02A93046FEF71E
S31520002D606AFB02948DF80C408DF80E408DF80F50BA
S31520002D708DF80D4002A93046FEF75DFB22464146FE
S31520002D803046FEF7B3FB224621463046FEF7AEFB21
S31520002D9002978DF80C508DF80E508DF80F508DF847
S31520002DA00D4002A93046FEF746FB04B0BDE8F0818F
S31520002DB000040240EFF3148323F0030383F3148803
S31520002DC0064B4FF404725A615A6942F008025A615E
S31520002DD003F500734FF000425A63704700ED00E0A0
S31520002DE008B501210820FEF709FC01210820FEF77D
S31520002DF0E7FC08BDDFF8F82A02E0002342F8043B8E
S31520002E00DFF8F03A9A42F8D3704730B585B0684675
S31520002E10FEF78AFB01210820FEF7F0FB029B5B00F0
S31520002E20124AA2FB03239B0C013B1149A1F85436FD
S31520002E304FF4FD65C1F858560023A1F85C36A1F879
S31520002E4056360C4C01F254612046FEF7E3FC012273
S31520002E5011462046FEF72EFD29462046FEF718FD90
S31520002E6001212046FEF718FD05B030BD83DE1B4349
S31520002E70F0550020000C004000B583B032238DF8B9
S31520002E80043000238DF8053001238DF806308DF8A7
S31520002E90073001A8FEF73EFD034B202283F832239C
S31520002EA003B05DF804FB00BF00E100E000B583B08D
S31520002EB0134B4FF48022C3F8842101211148FEF7D9
S31520002EC005FD10B903B05DF804FB01210D48FEF79E
S31520002ED009FD0021019101AA0B4BD3F86006FEF7EC
S31520002EE0EBF8019B002BEDD04FF0E0234FF0805202
S31520002EF0C3F8042DBFF34F8FBFF36F8FE2E700BFF8
S31520002F0000E100E0000C0040F055002008B5FEF777
S31520002F1067FD441CFEF764FDA042FBD30120FDF7AC
S31520002F200DFFF4E708B5FDF733F908BD10B4064BDD
S31520002F3003F26464046003F5D8630B608023136096
S31520002F405DF8044B704700BFF055002010B4064BC7
S31520002F5003F50C64046003F61C130B604FF48073B6
S31520002F6013605DF8044B7047F05500200346026C51
S31520002F706AB110B50846D9681144D9609C68A14247
S31520002F8001D31968D960D96801F0F6FF10BD7047E2
S31520002F90F0B585B0019290B10F460446C1B1FDF758
S31520002FA093FA064600BB019B002B5ED04FF0100320
S31520002FB083F31188BFF36F8FBFF34F8FFEE74FF078
S31520002FC0100383F31188BFF36F8FBFF34F8FFEE794
S31520002FD0036C002BE3D04FF0100383F31188BFF36B
S31520002FE06F8FBFF34F8FFEE700263EE0394620461F
S31520002FF0FFF7BCFF013DA563236923B9FDF774FCE8
S31520003000012005B0F0BD04F11000FDF7D1F800282D
S31520003010F4D04FF0E0234FF08052C3F8042DBFF3D5
S315200030204F8FBFF36F8FE9E7FDF75EFC0020E8E7DF
S3152000303002A8FDF739F9012621E0002384F844305F
S3152000304029E0002384F845302BE02046FDF7FAFCE2
S31520003050FDF7CCFD09E02046FDF7F4FCFDF7C6FDA3
S315200030602046FDF726FD00283FD1FDF71BFCA56B6A
S31520003070002DBBD1019B002BD6D0002ED8D0FDF73A
S3152000308033FCFDF777F8FDF70DFC94F844305BB27E
S31520003090B3F1FF3FD1D094F845305BB2B3F1FF3F97
S315200030A0CFD0FDF721FC01A902A8FDF7A9FE002833
S315200030B0D1D12046FDF7FDFC0028C6D0019904F1A8
S315200030C02400FDF763FA2046FDF7BCFCFDF78EFDD4
S315200030D00028CAD14FF0E0234FF08052C3F8042DC8
S315200030E0BFF34F8FBFF36F8FBFE7002089E730B55F
S315200030F085B00023019302930393002201A9364B46
S31520003100D3F84805FFF744FF002862D0019B002B27
S31520003110F3DB039C636913B1201DFCF7E8FF6846C7
S31520003120FDF7FEFA0546019B013B082BE5D8DFE8B3
S3152000313003F00505293049050529300094F8283083
S3152000314043F0010384F82830029BA1690246194402
S315200031502046FDF775FA0028CFD094F8283013F0D2
S31520003160040F07D123F0010384F82830236A204670
S315200031709847C2E7A3692A46029919442046FDF7D3
S3152000318083FAF3E794F8283023F0010384F82830F3
S31520003190B3E794F8283043F0010384F828300299E5
S315200031A0A16131B10346024601442046FDF748FAA3
S315200031B0A3E74FF0100383F31188BFF36F8FBFF39C
S315200031C04F8FFEE794F8283023F0010384F8283047
S315200031D093E705B030BD00BFF055002000B583B0A1
S315200031E001A8FDF71BFA0199FDF7D0FDFFF77FFF38
S315200031F0F6E72DE9F84380460D4616469946089F80
S315200032000A9C9200A521206B01F043FB226B06F15C
S315200032108043013B02EB830222F0070665B10022C0
S315200032200F2A06D8AB5CA11881F834300BB10132D5
S31520003230F6E7002384F84330372F08D94FF01003E0
S3152000324083F31188BFF36F8FBFF34F8FFEE7E762DB
S31520003250E764201DFCF72FFF04F11800FCF72BFF75
S315200032602461C7F13807A76164624A464146304661
S31520003270FDF76EFA2060099B03B11C60BDE8F88358
S315200032802DE9F04186B00D9F9FB180460E4615462A
S315200032901C460E9BB3B15C230593059B5C2B1AD071
S315200032A04FF0100383F31188BFF36F8FBFF34F8F57
S315200032B0FEE74FF0100383F31188BFF36F8FBFF340
S315200032C04F8FFEE74FF0100383F31188BFF36F8F04
S315200032D0BFF34F8FFEE7059B5C2200210E9801F07D
S315200032E0D8FA0E9B1F63002303930E9B02930F9B1A
S315200032F001930C9B009323462A4631464046FFF70E
S3152000330078FF0E9806B0BDE8F08110B586B000248F
S31520003310059405AC03940A9C0294099C0194089C8C
S315200033200094FFF7ADFF08B1FDF7F9FB059806B04D
S3152000333010BD30B58DB000230F2B09DC154AD25CA9
S3152000334003F13001694401F8102C0AB10133F3E787
S315200033500024002C02DD01200DB030BD002507958C
S31520003360069505AA06A907A8FFF7E0FD079B029385
S31520003370069B019300952B46059A08A90648FFF758
S31520003380C4FF064B03EB8403986408B10134E0E7DD
S315200033900020E1E740530020CD0E0020F05500200C
S315200033A010B588B0FDF712FE134BD3F84835D3B1CC
S315200033B000240794069405AA06A907A8FFF7C6FDC8
S315200033C0079B0293069B0193032300932346059AAA
S315200033D00A490B48FFF799FF074BC3F81C0D10B19C
S315200033E0012008B010BD4FF0100383F31188BFF3FE
S315200033F06F8FBFF34F8FFEE7F05500204853002014
S31520003400DD3100200FB400B585B006AA52F8043B82
S31520003410039200924FF0FF3202A90448FFF74FF8BB
S3152000342005B05DF804EB04B0704700BF171A002002
S3152000343008B50F48FFF7E6FFFEF7D2FA0D4B03F566
S315200034405262C3F8200D00235360012402E00024B9
S31520003450094B1C774FF0FF3200210846FDF74AFD45
S31520003460002CF4D1044BE8221A770124F2E700BF9E
S3152000347050530020F0550020007400400EB400B5D3
S3152000348084B0014605AA52F8043B039200924FF0FD
S31520003490FF320448FFF713F804B05DF804EB03B0DD
S315200034A0704700BF0D1A002070B590B00468FCF775
S315200034B06FFEA04201D010B070BD164901F55364CD
S315200034C0D1F8282DD1F82C3DD1F8300DD1F8345D26
S315200034D0121A63EB050301F55465C1F8382DC1F8BE
S315200034E03C3DD1F8400DD1F8446D101843EB06064B
S315200034F0C1F8400DC1F8446D07496846FFF7BEFF85
S315200035000022002345E9022344E90223C4E90023DB
S31520003510D1E700BFF0550020645300200E49D1F8B2
S31520003520883043F47003C1F888300C4B1A6842F097
S3152000353001021A60002098601A6822F0847222F430
S3152000354080321A60064A5A601A6822F480221A606B
S31520003550D860044B8B60704700ED00E000380240D5
S315200035601030002400C00120244B1B6C23B1234BB8
S315200035700122C3F8C824704710B5204C0023C4F894
S31520003580C83404F2C440FFF78FFFE36C03EB8302D9
S3152000359091001A4A0A44126D5AB90BB1013BF5E75C
S315200035A04FF0100383F31188BFF36F8FBFF34F8F54
S315200035B0FEE7124A1144486D40684865503203EBD5
S315200035C08304A10008310A44904210D00B4C03EB2F
S315200035D083018A002244526DD268C4F8C424E3646D
S315200035E004F2C440FFF79EFCD4F8C43410BDA100F9
S315200035F0024A0A44D16D5165E8E700BFF055002024
S315200036004FF0E023D3F8002D604B9A421FD04FF0A5
S31520003610E023D3F8002D5E4B9A4221D04FF0E021D3
S315200036205C4BC1F8083D5C4ADA635C4A9A635C4AA3
S31520003630DA62D1F8083DD96A91421AD04FF01003C8
S3152000364083F31188BFF36F8FBFF34F8FFEE74FF0E1
S31520003650100383F31188BFF36F8FBFF34F8FFEE7FD
S315200036604FF0100383F31188BFF36F8FBFF34F8F93
S31520003670FEE79A6B494B9A4208D04FF0100383F32A
S315200036801188BFF36F8FBFF34F8FFEE730B583B03E
S3152000369000230193434B1A78D2B28DF80320FF22E0
S315200036A01A701B78DBB28DF802309DF8023003F0D9
S315200036B010033D4A82F8403643B94FF0100383F396
S315200036C01188BFF36F8FBFF34F8FFEE79DF802304F
S315200036D013F0100F08D14FF0100383F31188BFF3B6
S315200036E06F8FBFF34F8FFEE79DF8023013F0800FE8
S315200036F009D0019B013301939DF802305B00DBB2B8
S315200037008DF80230F0E7019B082B3AD0019BC3F1DC
S315200037100703254AC2F84436234AD2F844361B0208
S31520003720C2F8443603F4E063C2F844369DF8033009
S31520003730DBB21C4A13704FF0E024D4F8203D43F44A
S315200037407F03C4F8203DD4F8203D43F07F43C4F8DE
S31520003750203D0025C4F81C5DFDF76AFC134B1D6057
S31520003760FDF772FCD4F8343F43F04043C4F8343FAD
S31520003770FDF738F8FFF7F8FEFDF700F8284603B006
S3152000378030BD094B0022C3F84426C5E771C20F415C
S3152000379070C20F4100C001200D080020390800200A
S315200037A0BD07002000E400E0F05500207C550020F5
S315200037B008B5FFF7BEFD012805D0B0F1FF3F1FD0A9
S315200037C0144B1B6E08BDFFF7EBFD0128F5D14FF01A
S315200037D0100383F31188BFF36F8FBFF34F8F0E480B
S315200037E04FF0FF33C0F828350123C0F830350023C9
S315200037F0436400F2C440FFF795FBFFF701FFDFE7C4
S315200038004FF0100383F31188BFF36F8FBFF34F8FF1
S31520003810FEE700BF98520020F055002008B5FFF7BC
S31520003820E9FAFFF7B1F9FFF73BFAFFF767FAFFF777
S31520003830C1FAFFF7D5FA08BD704710B584B0214B01
S31520003840214AC3F808212148FFF7DCFD4FF44070D8
S31520003850FEF757F8FFF710FBFEF78EF81C48FFF728
S31520003860D1FD002413E04FF4B8721A4B02FB043347
S315200038705C21194A01FB0422029201930123009341
S315200038800023402215491648FFF73FFD0134BD2C81
S31520003890E9DD144C04F64853029304F6A45301932D
S315200038A001230093002380220F491048FFF72DFDA6
S315200038B0C4F86006FFF7A9FAFFF77AFF002004B0E4
S315200038C010BD00BF00C00120AD2E00207453002083
S315200038D0885300208CAC0020446800209853002098
S315200038E00D2F0020F0550020A45300203134002055
S315200038F0F0550020ACBF012070B54FF0FF0C4CF402
S31520003900E06C1CEA11541DBF1CEA135594EA0C0FF7
S3152000391095EA0C0F00F0DEF82C4481EA030621EA32
S315200039204C5123EA4C5350EA013518BF52EA03356D
S3152000393041F4801143F4801338D0A0FB02CE4FF01F
S315200039400005E1FB02E506F00042E0FB03E54FF04F
S315200039500006E1FB03569CF0000F18BF4EF0010E47
S31520003960A4F1FF04B6F5007F64F5407404D25FEA43
S315200039704E0E6D4146EB060642EAC62141EA5551F6
S315200039804FEAC52040EA5E504FEACE2EB4F1FD0C38
S3152000399088BFBCF5E06F1ED8BEF1004F08BF5FEAB6
S315200039A0500E50F1000041EB045170BD06F0004668
S315200039B046EA010140EA020081EA0301B4EB5C0415
S315200039C0C2BFD4EB0C0541EA045170BD41F480110D
S315200039D04FF0000E013C00F3AB8014F1360FDEBF32
S315200039E0002001F0004170BDC4F10004203C35DA0E
S315200039F00C341BDC04F11404C4F1200500FA05F391
S31520003A0020FA04F001FA05F240EA020001F0004231
S31520003A1021F0004110EBD37021FA04F642EB0601A7
S31520003A205EEA430E08BF20EAD37070BDC4F10C04D1
S31520003A30C4F1200500FA04F320FA05F001FA04F295
S31520003A4040EA020001F0004110EBD37041F1000181
S31520003A505EEA430E08BF20EAD37070BDC4F120058C
S31520003A6000FA05F24EEA020E20FA04F301FA05F2F4
S31520003A7043EA020321FA04F001F0004121FA04F29C
S31520003A8020EA020000EBD3705EEA430E08BF20EA6C
S31520003A90D37070BD94F0000F0FD101F000464000A6
S31520003AA041EB010111F4801F08BF013CF7D041EA28
S31520003AB0060195F0000F18BF704703F0004652002C
S31520003AC043EB030313F4801F08BF013DF7D043EAFD
S31520003AD00603704794EA0C0F0CEA135518BF95EAB3
S31520003AE00C0F0CD050EA410618BF52EA4306D1D13A
S31520003AF081EA030101F000414FF0000070BD50EA59
S31520003B00410606BF1046194652EA430619D094EAE2
S31520003B100C0F02D150EA013613D195EA0C0F05D1CC
S31520003B2052EA03361CBF104619460AD181EA030120
S31520003B3001F0004141F0FE4141F470014FF00000D8
S31520003B4070BD41F0FE4141F4780170BD81F0004125
S31520003B5002E000BF83F0004330B54FEA41044FEA4C
S31520003B60430594EA050F08BF90EA020F1FBF54EAE7
S31520003B70000C55EA020C7FEA645C7FEA655C00F083
S31520003B80E2804FEA5454D4EB5555B8BF6D420CDD54
S31520003B902C4480EA020281EA030382EA000083EAD7
S31520003BA0010180EA020281EA0303362D88BF30BD77
S31520003BB011F0004F4FEA01314FF4801C4CEA1131CD
S31520003BC002D0404261EB410113F0004F4FEA03332C
S31520003BD04CEA133302D0524263EB430394EA050FB7
S31520003BE000F0A780A4F10104D5F1200E0DDB02FA26
S31520003BF00EFC22FA05F2801841F1000103FA0EF2BA
S31520003C00801843FA05F359410EE0A5F120050EF17F
S31520003C10200E012A03FA0EFC28BF4CF0020C43FAB0
S31520003C2005F3C01851EBE37101F0004507D54FF0BD
S31520003C30000EDCF1000C7EEB00006EEB0101B1F50D
S31520003C40801F1BD3B1F5001F0CD349085FEA300053
S31520003C504FEA3C0C04F101044FEA445212F5800F5E
S31520003C6080F09A80BCF1004F08BF5FEA500C50F1FB
S31520003C70000041EB045141EA050130BD5FEA4C0CDE
S31520003C80404141EB0101013C28BFB1F5801FE9D23B
S31520003C9091F0000F04BF01460020B1FA81F308BF5E
S31520003CA02033A3F10B03B3F120020CDA0C3208DD2A
S31520003CB002F1140CC2F10C0201FA0CF021FA02F105
S31520003CC00CE002F11402D8BFC2F1200C01FA02F175
S31520003CD020FA0CFCDCBF41EA0C019040E41AA2BF9A
S31520003CE001EB0451294330BD6FEA04041F3C1CDA62
S31520003CF00C340EDC04F11404C4F1200220FA04F082
S31520003D0001FA02F340EA030021FA04F345EA03012B
S31520003D1030BDC4F10C04C4F1200220FA02F001FAED
S31520003D2004F340EA0300294630BD21FA04F029466F
S31520003D3030BD94F0000F83F4801306BF81F4801108
S31520003D400134013D4EE77FEA645C18BF7FEA655C7B
S31520003D5029D094EA050F08BF90EA020F05D054EA4D
S31520003D60000C04BF1946104630BD91EA030F1EBF52
S31520003D700021002030BD5FEA545C05D14000494156
S31520003D8028BF41F0004130BD14F580043CBF01F549
S31520003D90801130BD01F0004545F0FE4141F470012F
S31520003DA04FF0000030BD7FEA645C1ABF194610460A
S31520003DB07FEA655C1CBF0B46024650EA013406BF0B
S31520003DC052EA033591EA030F41F4002130BD00BFCA
S31520003DD090F0000F04BF0021704730B54FF4806487
S31520003DE004F132044FF000054FF0000150E700BF08
S31520003DF090F0000F04BF0021704730B54FF4806467
S31520003E0004F1320410F0004548BF40424FF0000153
S31520003E103EE700BF42004FEAE2014FEA31014FEA96
S31520003E2002701FBF12F07F4393F07F4F81F06051E5
S31520003E30704732F07F4208BF704793F07F4F04BF30
S31520003E4041F40021704730B54FF4607401F000450D
S31520003E5021F000411CE700BF50EA010208BF70476D
S31520003E6030B54FF000050AE050EA010208BF70475E
S31520003E7030B511F0004502D5404261EB41014FF4C7
S31520003E80806404F132045FEA915C3FF4D8AE4FF0CF
S31520003E9003025FEADC0C18BF03325FEADC0C18BFB2
S31520003EA0033202EBDC02C2F1200300FA03FC20FA03
S31520003EB002F001FA03FE40EA0E0021FA02F1144450
S31520003EC0BDE600BF70B54FF0FF0C4CF4E06C1CEA69
S31520003ED011541DBF1CEA135594EA0C0F95EA0C0FDA
S31520003EE000F0DEF82C4481EA030621EA4C5123EA4D
S31520003EF04C5350EA013518BF52EA033541F480117C
S31520003F0043F4801338D0A0FB02CE4FF00005E1FB2E
S31520003F1002E506F00042E0FB03E54FF00006E1FB78
S31520003F2003569CF0000F18BF4EF0010EA4F1FF04BB
S31520003F30B6F5007F64F5407404D25FEA4E0E6D41FB
S31520003F4046EB060642EAC62141EA55514FEAC5200C
S31520003F5040EA5E504FEACE2EB4F1FD0C88BFBCF588
S31520003F60E06F1ED8BEF1004F08BF5FEA500E50F139
S31520003F70000041EB045170BD06F0004646EA0101FF
S31520003F8040EA020081EA0301B4EB5C04C2BFD4EB31
S31520003F900C0541EA045170BD41F480114FF0000E2A
S31520003FA0013C00F3AB8014F1360FDEBF002001F098
S31520003FB0004170BDC4F10004203C35DA0C341BDC12
S31520003FC004F11404C4F1200500FA05F320FA04F0E4
S31520003FD001FA05F240EA020001F0004221F0004118
S31520003FE010EBD37021FA04F642EB06015EEA430E8B
S31520003FF008BF20EAD37070BDC4F10C04C4F12005BB
S3152000400000FA04F320FA05F001FA04F240EA02006D
S3152000401001F0004110EBD37041F100015EEA430E3E
S3152000402008BF20EAD37070BDC4F1200500FA05F25E
S315200040304EEA020E20FA04F301FA05F243EA0203DD
S3152000404021FA04F001F0004121FA04F220EA0200EC
S3152000405000EBD3705EEA430E08BF20EAD37070BD32
S3152000406094F0000F0FD101F00046400041EB010112
S3152000407011F4801F08BF013CF7D041EA060195F0F4
S31520004080000F18BF704703F00046520043EB0303AE
S3152000409013F4801F08BF013DF7D043EA060370479B
S315200040A094EA0C0F0CEA135518BF95EA0C0F0CD0A6
S315200040B050EA410618BF52EA4306D1D181EA0301EC
S315200040C001F000414FF0000070BD50EA410606BFE6
S315200040D01046194652EA430619D094EA0C0F02D12B
S315200040E050EA013613D195EA0C0F05D152EA033670
S315200040F01CBF104619460AD181EA030101F000418E
S3152000410041F0FE4141F470014FF0000070BD41F0D6
S31520004110FE4141F4780170BD70B54FF0FF0C4CF4B0
S31520004120E06C1CEA11541DBF1CEA135594EA0C0FCF
S3152000413095EA0C0F00F0A7F8A4EB050481EA030E1C
S3152000414052EA03354FEA013100F088804FEA033303
S315200041504FF0805545EA131343EA12634FEA0222D1
S3152000416045EA111545EA10654FEA00260EF0004192
S315200041709D4208BF964244F1FD0404F5407402D2E4
S315200041805B084FEA3202B61A65EB03055B084FEA75
S3152000419032024FF480104FF4002CB6EB020E75EB72
S315200041A0030E22BFB61A754640EA0C005B084FEA9A
S315200041B03202B6EB020E75EB030E22BFB61A754617
S315200041C040EA5C005B084FEA3202B6EB020E75EB62
S315200041D0030E22BFB61A754640EA9C005B084FEADA
S315200041E03202B6EB020E75EB030E22BFB61A7546E7
S315200041F040EADC0055EA060E18D04FEA051545EAD6
S3152000420016754FEA06164FEAC30343EA52734FEA7E
S31520004210C2025FEA1C1CC0D111F4801F0BD141EAF7
S3152000422000014FF000004FF0004CB6E711F4801F5C
S3152000423004BF01430020B4F1FD0C88BFBCF5E06F3C
S315200042403FF6AFAEB5EB030C04BFB6EB020C5FEA4C
S31520004250500C50F1000041EB045170BD0EF0004EA1
S315200042604EEA113114EB5C04C2BFD4EB0C0541EAD3
S31520004270045170BD41F480114FF0000E013C90E6D0
S3152000428045EA060E8DE60CEA135594EA0C0F08BF94
S3152000429095EA0C0F3FF43BAF94EA0C0F0AD150EA93
S315200042A001347FF434AF95EA0C0F7FF425AF104626
S315200042B019462CE795EA0C0F06D152EA03353FF44E
S315200042C0FDAE1046194622E750EA410618BF52EACB
S315200042D043067FF4C5AE50EA41047FF40DAF52EA9F
S315200042E043057FF4EBAE12E74FF0FF3C06E000BF3C
S315200042F04FF0010C02E000BF4FF0010C4DF804CD49
S315200043004FEA410C7FEA6C5C4FEA430C18BF7FEA08
S315200043106C5C1BD001B050EA410C0CBF52EA430C36
S3152000432091EA030F02BF90EA020F0020704710F1B6
S31520004330000F91EA030F58BF994208BF90422CBF45
S31520004340D8176FEAE37040F0010070474FEA410C3E
S315200043507FEA6C5C02D150EA013C07D14FEA430C5C
S315200043607FEA6C5CD6D152EA033CD3D05DF8040BCD
S31520004370704700BF8446104662468C4619466346FF
S3152000438000E000BF01B5FFF7B7FF002848BF10F1D6
S31520004390000F01BD4DF808EDFFF7F4FF0CBF01201B
S315200043A000205DF808FB00BF4DF808EDFFF7EAFF97
S315200043B034BF012000205DF808FB00BF4DF808ED52
S315200043C0FFF7E0FF94BF012000205DF808FB00BF47
S315200043D04DF808EDFFF7CEFF94BF012000205DF8D1
S315200043E008FB00BF4DF808EDFFF7C4FF34BF0120DE
S315200043F000205DF808FB00BF4FEA410212F50012CB
S3152000440015D211D56FF47873B3EB625212D94FEAF5
S31520004410C12343F0004343EA505311F0004F23FADF
S3152000442002F018BF404270474FF00000704750EA34
S31520004430013005D111F0004008BF6FF000407047F1
S315200044404FF00000704700BF4A0011D212F500124B
S3152000445011D20DD56FF47873B3EB62520ED44FEAB6
S31520004460C12343F0004343EA505323FA02F0704736
S315200044704FF00000704750EA013002D14FF0FF3074
S3152000448070474FF00000704753B94AB9002908BF5A
S3152000449000281CBF4FF0FF314FF0FF3000F00CB862
S315200044A0ADF1080C6DE904CE00F0A4FDDDF804E0C2
S315200044B0DDE9022304B07047704700BF10B5054CF4
S315200044C0237833B9044B13B10448AFF3008001239A
S315200044D0237010BDACBD012000000000E853002071
S315200044E008B5034B1BB103490348AFF3008008BD51
S315200044F000000000B0BD0120E8530020002103E0A9
S315200045000B4B5B58435004310A480B4B42189A42D6
S31520004510F6D30A4A02E0002342F8043B084B9A42AB
S31520004520F9D3FEF7FBFF00F061FAFFF786F9704733
S315200045307C5500207C550020E8550020F0550020B1
S31520004540ACBF0120FEE7002301461A46184600F0BC
S3152000455091BA000008B5064B044613B1002100F0BD
S31520004560E5FA044B1B6803B19847204600F040FD4E
S315200045702D4B002000BF0120002310B50446C0E9C2
S315200045800033C0E90433836081814366C28183613D
S31520004590194608225C3000F07CF90D4B63620D4B06
S315200045A0A3620D4BE3620D4B23630D4B24629C42A9
S315200045B006D003F16802944202D0D0339C4205D142
S315200045C004F15800BDE8104000F049BA10BD00BF04
S315200045D0094800202F480020674800208B480020EB
S315200045E0C8BD0120024A0349034800F0EFB800BFC6
S315200045F084550020E14E00209455002041680C4B44
S31520004600994210B5044601D000F06AFCA168094B16
S31520004610994202D0204600F063FCE168064B99429D
S3152000462004D02046BDE8104000F05ABC10BD00BFA3
S31520004630C8BD012030BE012098BE012008B54B6EB2
S31520004640DA0705D48B899B0502D4886D00F00BFA16
S31520004650002008BD08B54B6EDA0705D48B899B056B
S3152000466002D4886D00F005FA002008BD10B50B4B6A
S315200046700B4C0C4A1A60204600220421FFF77CFFCF
S3152000468004F1680001220921FFF776FF04F1D0002A
S315200046900222BDE810401221FFF76EBF00BF0120A5
S315200046A0C8BD0120E5450020014800F0DCB900BF67
S315200046B00FBF0120014800F0DCB900BF0FBF012069
S315200046C0F8B50746FFF7F0FF234B1B680BB9FFF73A
S315200046D0CDFF224ED6E90134013B0FD53568002D9A
S315200046E037D14FF4D671384600F0EAFA044628BB93
S315200046F03060FFF7DFFF0C233B601BE0B4F90C5062
S31520004700D5B9174BE36004F15800656600F0A7F9A8
S31520004710FFF7D0FFC4E90155C4E904552560A5611A
S315200047200822294604F15C0000F0B3F8C4E90D55CF
S31520004730C4E912552046F8BD6834CDE70423056048
S3152000474043600C30A0604FF4D072294600F0A1F8E7
S3152000475034603668BEE700BF00BF012084550020C4
S315200047600100FFFF10B50446FFF79EFF236A1BB129
S31520004770BDE81040FFF79EBF044B2362044B1B6825
S31520004780002BF5D1FFF772FFF2E700BFFD450020B1
S3152000479000BF012008B5FFF787FFBDE80840024AA1
S315200047A00249002000F012B8845500203D46002022
S315200047B008B5044A0449002000F008F8BDE808407E
S315200047C0FFF778BF84550020554600202DE9F84391
S315200047D00746884614460026D4E90195B9F1010911
S315200047E005D52468002CF7D13046BDE8F883AB897F
S315200047F0012B07D9B5F90E30013303D029463846A7
S31520004800C04706436835E9E710B50C46B1F90E10E6
S3152000481000F0C8F80028ABBF636DA3891B1823F4EA
S315200048208053ACBF6365A38110BD002070472DE97E
S31520004830F0411F468B89DB0505460C46164605D5F5
S31520004840B1F90E100223002200F09AF8A389B4F9D8
S315200048500E1023F48053A38132463B462846BDE8FA
S31520004860F04100F0B1B810B50C46B1F90E1000F0C9
S3152000487087F8431CA38915BF606523F4805343F44E
S315200048808053A38118BFA38110BDB1F90E1000F08B
S3152000489009B802440346934200D1704703F8011B2E
S315200048A0F9E7000038B5064D0023044608462B607C
S315200048B000F070FB431C02D12B6803B1236038BD86
S315200048C004BF01202D4B1B68834270B5044653D08C
S315200048D0C3691BB3DB6863B10025E369DB685959FB
S315200048E0B1B90435802DF8D1E3692046D96800F0A6
S315200048F07BF9E369196811B1204600F075F9E3697F
S315200049009D685DB1294620462D6800F06DF9F8E7CF
S315200049100E68204600F068F93146E1E7616911B179
S31520004920204600F061F9E16911B1204600F05CF9FA
S31520004930216B11B1204600F057F9616B11B1204669
S3152000494000F052F9A16B11B1204600F04DF9A16C8F
S3152000495011B1204600F048F9616C11B1204600F0F3
S3152000496043F9E16A11B1204600F03EF9236A1BB1F2
S315200049702046BDE87040184770BD00BF9055002006
S3152000498038B5074D04460846114600222A601A46C5
S3152000499000F008FB431C02D12B6803B1236038BD0D
S315200049A004BF012038B5074D0446084611460022AB
S315200049B02A601A4600F0FEFA431C02D12B6803B186
S315200049C0236038BD04BF012038B5074D044608468C
S315200049D0114600222A601A4600F002FB431C02D12F
S315200049E02B6803B1236038BD04BF012070B50D4D7F
S315200049F00D4C641BA4100026A64209D10B4D0C4C6D
S31520004A0000F0E6FC641BA4100026A64205D170BD6A
S31520004A1055F8043B98470136EEE755F8043B98478E
S31520004A200136F2E700000000000000000000000050
S31520004A300000000038B5074D074C641BA4101CB9B4
S31520004A40BDE8384000F0CABC013C55F824309847F0
S31520004A50F5E700BF00000000000000007047704727
S31520004A607047704770477047012070470120704794
S31520004A70704770472DE9F843274D07462868914629
S31520004A800E469846FFF7EFFF244A14683CB9244B9C
S31520004A901360244A12B11268C3F88820204C636838
S31520004AA01F2B06DD2868FFF7E4FF4FF0FF30BDE837
S31520004AB0F8832FB3D4F8880068B91B4B002BF1D0AC
S31520004AC04FF48470AFF300800028EBD00023C0E9B8
S31520004AD04033C4F88800636840F8239001229A4046
S31520004AE000EB8301D0F800311343C0F80031022FC8
S31520004AF0C1F8808002BFD0F804311343C0F80431D6
S31520004B00636828685A1C0233626044F82360FFF702
S31520004B10B0FF0020CBE700BFE45500209CBF01205A
S31520004B2010BF012000000000000000002DE9F74F13
S31520004B30DFF8AC800190D8F80000DFF8A8900F4687
S31520004B40FFF791FFD9F8005035B9D8F8000003B027
S31520004B50BDE8F04FFFF78DBF6C68D5F888B0661EAC
S31520004B60013405EB84040BF1800A002EEDDB4FB1F6
S31520004B70BBF1000F02D1013E043CF6E75AF826208D
S31520004B80BA42F8D1696822680139B14216BF0023BA
S31520004B906E602360002AEED06B680093BBF1000F95
S31520004BA007D0DBF80011012303FA06FC1CEA010FEB
S31520004BB009D190476968009BD9F800209942C1D154
S31520004BC09542D8D0BEE7DBF804015BF826101CEA34
S31520004BD0000F02D101989047ECE708469047E9E795
S31520004BE0E45500209CBF012038B50546002941D058
S31520004BF051F8043C0C1F002BB8BFE41800F0E0F875
S31520004C001D4A136833B9636014602846BDE83840EE
S31520004C1000F0DCB8A34208D9206821188B4201BFD6
S31520004C2019685B6809182160EDE71A465B680BB1C5
S31520004C30A342FAD911685018A0420BD1206801442A
S31520004C40501883421160E0D118685B6853600844AD
S31520004C501060DAE702D90C232B60D6E720682118EA
S31520004C608B4204BF19685B68636004BF0918216022
S31520004C705460CAE738BD00BFA4BF012070B50F4EEF
S31520004C800C463168054611B900F066F930602146B8
S31520004C90284600F061F9431C03D14FF0FF3420462B
S31520004CA070BDC41C24F00304A042F8D0211A284663
S31520004CB000F052F90130F2D1EFE700BFA0BF01208A
S31520004CC02DE9F843CD1C25F0030508350C2D38BFFA
S31520004CD00C25002D064601DBA94204D90C2333609E
S31520004CE00020BDE8F883DFF8D48000F069F8D8F812
S31520004CF000301C4644BB29463046FFF7BFFF431C05
S31520004D00044658D1D8F800402746002F43D1002C1E
S31520004D104BD023683946304604EB030900F01CF9D2
S31520004D20814542D121686D1A29463046FFF7A6FFF4
S31520004D3001303AD023682B442360D8F800305A68D3
S31520004D4062BBC8F800700FE02268521B20D40B2AE1
S31520004D5017D96119A342256018BF5960636808BF37
S31520004D60C8F8001062514B60304600F02FF804F16D
S31520004D700B00231D20F00700C21A1CBF1B1AA350CC
S31520004D80AFE76268A3420CBFC8F800205A60EBE781
S31520004D9023466468AEE73C467F68B6E71A465B68FA
S31520004DA0A342FBD100235360DEE70C233360304659
S31520004DB000F00CF894E70560D6E700BFA4BF0120F9
S31520004DC00148FFF750BE00BF0CBF01200148FFF786
S31520004DD050BE00BF0CBF0120B1F90C202DE9F041D7
S31520004DE0160705460C4654D44B68002B02DC0B6C88
S31520004DF0002B48DDE66A002E45D0002312F48052AF
S31520004E002F68216A2B6030D0626DA389590705D59A
S31520004E106368D21A636B0BB1236CD21A0023E66A3D
S31520004E20216A2846B047431CA38906D129681D2933
S31520004E302BD82A4ACA40D60727D500226260D90431
S31520004E402269226004D5421C01D12B6803B9606512
S31520004E50616B2F60B9B104F14403994202D0284610
S31520004E60FFF7C2FE002363630DE001232846B04707
S31520004E700246501CC9D12B68002BC6D01D2B01D051
S31520004E80162B1ED12F60002022E043F040031BB2D8
S31520004E901BE00F69002FF6D093070E6808BF4B69F9
S31520004EA00F6018BF0023A6EB07088B60B8F1000F30
S31520004EB0E9DD216AA66A43463A462846B0470028D5
S31520004EC008DCB4F90C3043F04003A3814FF0FF30E7
S31520004ED0BDE8F0810744A8EB0008E7E70100402081
S31520004EE038B50B6905460C4613B90025284638BD4A
S31520004EF018B1036A0BB9FFF735FCB4F90C30002B57
S31520004F00F3D0626ED00704D4990502D4A06DFFF7C2
S31520004F10AAFD28462146FFF75FFF636EDA0705469E
S31520004F20E4D4A3899B05E1D4A06DFFF7A2FDDDE7BC
S31520004F30014620B9044A05490548FFF747BC054BF9
S31520004F401868FFF7CDBF00BF84550020E14E002032
S31520004F50945500209055002038B5064D0023044670
S31520004F6008462B6000F02EF8431C02D12B6803B1B3
S31520004F70236038BD04BF01200A44914200F1FF336B
S31520004F8000D1704710B511F8014B03F8014F91423B
S31520004F90F9D110BD024B58221A604FF0FF307047EE
S31520004FA004BF0120024B58221A604FF0FF30704791
S31520004FB004BF0120024B58221A604FF0FF30704781
S31520004FC004BF0120044A05491368002B08BF0B467D
S31520004FD01844106018467047A8BF0120ACBF0120B6
S31520004FE0024B58221A604FF0FF30704704BF012051
S31520004FF0FEE700BF2DE9F04786468C460846089E08
S31520005000154674461946002B40F0C2808542B2FAF6
S3152000501082F245D94AB1C2F1200300FA02FC2EFAE7
S3152000502003F3954043EA0C0C94404FEA154EA8B280
S31520005030BCFBFEF8230C0EFB18CC08FB00F943EA58
S315200050400C43994528D9EB1808F1FF3704D2994526
S3152000505002D9A8F102072B44A3EB0903A4B2B3FBA0
S31520005060FEFC0EFB1C330CFB00F044EA0344A0427A
S3152000507014D92C190CF1FF3304D2A04202D9ACF179
S3152000508002032C44241A43EA07401EB1D4400023CD
S3152000509034607360BDE8F0874746DDE76346F1E795
S315200050A092BB431B01214FEA154EAFB2B3FBFEFC68
S315200050B0200C0EFB1C330CFB07F840EA03439845F3
S315200050C062D9EB180CF1FF3004D2984502D9ACF125
S315200050D002002B44A3EB0803A4B2B3FBFEFC0EFB99
S315200050E01C330CFB07F744EA0344A7424ED92C197C
S315200050F00CF1FF3304D2A74202D9ACF102032C44AF
S31520005100E41B43EA0040C0E7C2F1200320FA03F182
S31520005110954090402EFA03F303434FEA154EAFB263
S31520005120B1FBFEFC0EFB1C10190C0CFB07F841EA28
S315200051300041884504FA02F422D969180CF1FF309F
S3152000514004D2884502D9ACF102002944A1EB08011A
S315200051509BB2B1FBFEFC0EFB1C110CFB07F743EACE
S3152000516001439F420ED9EB180CF1FF3104D29F4226
S3152000517002D9ACF102012B44DB1B41EA004192E744
S315200051806046E3E76146F7E76046A3E76346B7E78D
S31520005190834206D916B9002108467BE7C6E900E016
S315200051A0F9E7B3FA83F78FB9834201D3724508D85A
S315200051B0BEEB020460EB030301209C461EB90021CE
S315200051C068E73846FAE7C6E9004CF8E7C7F1200C4D
S315200051D0BB4022FA0CF41C432EFA0CF120FA0CF3F5
S315200051E0B84001434FEA14490EFA07F5B3FBF9F824
S315200051F01FFA84FE09FB18300B0C08FB0EFA43EA53
S3152000520000439A4502FA07F240D9E31808F1FF3025
S3152000521004D29A4502D9A8F102002344A3EB0A033B
S3152000522089B2B3FBF9F809FB183308FB0EFE41EAF5
S3152000523003418E452CD9611808F1FF3304D28E45DF
S3152000524002D9A8F10203214443EA0040A0FB0298B8
S31520005250A1EB0E014145CE46434602D306D14D452C
S3152000526004D2B9EB020E68EB04030138002EA6D057
S31520005270B5EB0E0261EB030101FA0CFC22FA07F3EF
S315200052804CEA0303F940C6E9003198E74046C5E7F2
S315200052904346D9E700000000000000000102030495
S315200052A00102030406070809000000000000F03F81
S315200052B000000000000024400000000000005940CB
S315200052C00000000000408F40000000000088C3401E
S315200052D000000000006AF8400000000080842E4193
S315200052E000000000D01263410000000084D79741DF
S315200052F00000000065CDCD41370000003E410C4145
S315200053001141274136410341064115410F410E41C6
S31520005310264113412941024119410A410B4100000E
S31520005320546D725100000000666E692B000000006B
S31520005330666E69006E616E00666E692D0000000063
S3152000534049444C4500000000546D7220537663009A
S315200053507461736B206D656C6F64792073706177EF
S315200053606E65640049444C452074696D653A202574
S315200053706C750000486172647761726520626567AA
S31520005380696E0A0D000000004861726477617265DB
S3152000539020646F6E650A0D004241434B47524F55BC
S315200053A04E4400004D454C4F4459003E410C41119E
S315200053B041274136410341064115410F410E412601
S315200053C04113412941024119410A410B4100000084
S311200053D0F8B500BFF8BC08BC9E4670472C
S311200053DCF8B500BFF8BC08BC9E46704720
S309200053E8000000009B
S30D200053EC2CACFF7F010000003C
S315200053F4FCBF0120FD4400204545002045450020F2
S315200054044545002045450020454500200000000074
S31520005414000000000000000000000000BD0700207E
S315200054244545002000000000390800200D08002012
S31520005434454500204545002045450020454500209A
S31520005444454500204545002045450020454500208A
S31520005454454500204545002045450020454500207A
S31520005464454500204545002045450020454500206A
S31520005474454500204545002045450020454500205A
S31520005484454500204545002045450020454500204A
S31520005494454500204545002045450020454500203A
S315200054A4454500204545002045450020454500202A
S315200054B4454500204545002045450020454500201A
S315200054C4454500204545002045450020454500200A
S315200054D445450020454500204545002045450020FA
