S02B00002F686F6D652F73696D6F6E2F4D542D432F4D443430372D6D656C6F64792F44656275672F4D4434301B
S3152000000000BFDFF810D001F087FF02F0F7FE02F004
S31520000010C7B8FEE700C00120A3F5803A704700BFAD
S31520000020154B002B08BF114B9D46FFF7F5FF00210E
S315200000308B460F461148124A121A03F0D8FA0C4B77
S31520000040002B00D098470B4B002B00D09847002060
S31520000050002104000D000B4803F024F903F074FB83
S315200000602000290002F0CAFE03F022F90000080051
S3152000007000000000000000000000000038430020BF
S3152000008054B1002091370020C4420020C4420020F1
S31520000090304300203843002054B1002000000000E7
S315200000A000F108034FF0FF32C0E9022343600361E9
S315200000B000230360704730B50C68631C0AD10369BE
S315200000C05A684A6091608B60596003680861013301
S315200000D0036030BD00F10802134652681568A54238
S315200000E0FAD9EDE74FF0100383F31188BFF36F8F32
S315200000F0BFF34F8FFEE7024A136801331360704740
S315200001003843002008B5034B586808B9FFF7EAFFC3
S3152000011008BD00BF38430020C368DB68F0B543B98B
S315200001204FF0100383F31188BFF36F8FBFF34F8F08
S31520000130FEE7D3E907019A6A81604860506803F1B7
S315200001401804A04208BF5160002199621168013944
S315200001501160214AD96A106800282CD1D3E90254AB
S315200001605869AC60656045681E1DB54208BF44608D
S315200001700468013C0460906881424FF0140001FB42
S3152000018000F002EB000488BF916025699D60AF688E
S31520000190DF607E60AE60114D28445861E36801330C
S315200001A0E360D2F88034DB6A994286BF0120C2F828
S315200001B084040020F0BDD2F87004D86185681D62E1
S315200001C06C60846002F26C409862D2F86C34013321
S315200001D0C2F86C34E5E700BF3843002044430020D2
S315200001E0074BD3F88824126822B94FF0FF32C3F8A0
S315200001F08C247047D3F88824D2681268F7E700BFAA
S315200002003843002052490B682DE9F047002B40F077
S315200002109880D1F890440134C1F89044DCB9D1F8E3
S3152000022088341B6843B14FF0100383F31188BFF362
S315200002306F8FBFF34F8FFEE7D1F88834D1F894241F
S31520000240C1F88824C1F89434D1F898340133C1F820
S315200002509834FFF7C5FFD1F88C349C424FF000004C
S3152000026010D2D1F88034DB6A142202FB0313DB6838
S31520000270022BD1F8843428BF0120002B18BF01207F
S31520000280BDE8F087334F06464FF0140CD1F888347A
S315200002901B6823B94FF0FF33C1F88C34E1E7D1F85E
S315200002A08834DB68DB685A68944202D2C1F88C2411
S315200002B0D7E7D3E902585A69C5F80880C8F8045028
S315200002C0556803F1040E7545156808BFC2F8048009
S315200002D0013D5E6115609A6A82B1D3E90758C5F877
S315200002E00880C8F80450556803F118094D4515686B
S315200002F008BFC2F80480013D9E621560DA6A8D68E7
S31520000300AA420CFB02F501EB050888BF8A60D8F8E3
S315200003101090C3F80890D9F808A0C3F80CA03D4463
S31520000320CAF804E0C9F808E05D61D8F80C3001335A
S31520000330C8F80C30D1F88034DB6A9A4288BF012095
S31520000340A4E7D1F89C340133C1F89C34002097E708
S315200003503843002044430020914208B541600061A3
S315200003600BD8D21A83699A4210D2094B011DD3F8B1
S31520000370A004FFF7A0FE002008BD9A4201D29942B0
S3152000038004D2034B011DD3F8A404F2E70120F3E7BE
S315200003903843002070B50B4604461646A5691D4411
S315200003A0324629462046FFF7D7FF00B970BD236A9B
S315200003B0204698472B46F1E707B5002301930A4BC1
S315200003C01B68013301D0FFF78DFE4FF0100383F336
S315200003D01188BFF36F8FBFF34F8F019B002BFCD08B
S315200003E003B05DF804FB00BFC4420020084B196827
S315200003F00868B0E8F04F80F30988BFF36F8F4FF09D
S31520000400000080F311887047AFF30080AFF30080BF
S31520000410B847002008480068006880F308884FF035
S31520000420000080F3148862B661B6BFF34F8FBFF326
S315200004306F8F00DF00BF000008ED00E008B54FF029
S31520000440100383F31188BFF36F8FBFF34F8F074AD3
S3152000045013680133012B136007D14FF0E023D3F843
S31520000460043DDBB20BB1FFF73DFE08BDC4420020C0
S31520000470054A08B513680BB9FFF734FE013B136034
S315200004800BB983F3118808BDC44200202DE9F04141
S31520000490FFF7D4FF90F845501A4F04466DB200F18D
S315200004A024064FF00108002D01DD636AC3B9FF233E
S315200004B084F84530FFF7DCFFFFF7C0FF94F844507F
S315200004C0104F6DB204F110064FF00108002D01DD2A
S315200004D0236973B9FF2384F84430BDE8F041C7E7A8
S315200004E03046FFF719FE08B1C7F88484013D6DB286
S315200004F0D9E73046FFF710FE08B1C7F88484013DDE
S315200005006DB2E3E7384300202DE9F843444CFFF76A
S3152000051095FF236843B94FF0100383F31188BFF387
S315200005206F8FBFF34F8FFEE72368013B236023685D
S3152000053023B10020FFF79CFFBDE8F883D4F8A82458
S31520000540002AF6D01D46142604F10C074FF0010CA4
S3152000055040E0D4F87834DB68D3E907109A6A8860DB
S315200005604160516803F1180E7145116808BF50604B
S3152000057001399D621160D3E902105A698860416091
S31520000580516803F104084145116808BF50600139DC
S315200005901160A168DA6A8A4206FB02F104EB0100C7
S315200005A088BFA260D0F810E0C3F808E0DEF8089013
S315200005B0C3F80C903944C9F80480CEF808805961F4
S315200005C0C1680131C160D4F88014C96A8A4201D950
S315200005D0C4F884C4D4F86C24002ABAD10BB1FFF72E
S315200005E0FFFDD4F89C544DB10126FFF70BFE08B150
S315200005F0C4F88464013DF8D1C4F89C54D4F88434FA
S31520000600002B96D0D4F880344FF0E0234FF0805260
S31520000610C3F8042DBFF34F8FBFF36F8F012089E7F7
S3152000062038430020EFF30980BFF36F8F144B1A680D
S315200006301EF0100F08BF20ED108A20E9F04F106041
S315200006402DE909004FF0100080F31188BFF34F8F7A
S31520000650BFF36F8F01F0FAFB4FF0000080F3118893
S3152000066009BC19680868B0E8F04F1EF0100F08BFE3
S31520000670B0EC108A80F30988BFF36F8F704700BFF4
S31520000680B847002008B54FF0100383F31188BFF355
S315200006906F8FBFF34F8FFFF7B5FD28B14FF0E023E3
S315200006A04FF08052C3F8042D002383F3118808BD30
S315200006B0DFF80C00016841F470010160704700000A
S315200006C088ED00E02DE9F0410022012603250B6884
S315200006D006FA02F737EA030334D10368540005FA11
S315200006E004FE23EA0E0303600B79D0F800806FEA3C
S315200006F00E0C03FA04FE013B4EEA080E012BC0F84D
S3152000070000E014D883680CEA030383604B79D0F8A1
S3152000071008C0A34043EA0C038360436823EA070327
S3152000072043608B79476893409BB23B434360C368E1
S3152000073005FA04F723EA0703C360CB79C768A34009
S315200007403B43C3600132102AC1D1BDE8F0811D4B65
S315200007509A6802F00C02042A10B52ED0082A2ED14F
S3152000076059685A685B684902C3F388134CBF164917
S31520000770164902F03F02B1FBF2F25343114A526886
S31520000780C2F3014201325200B3FBF2F30D4A036079
S3152000079094680F49C4F303140C5DE34043609468E6
S315200007A0C4F382240C5D23FA04F484609268C2F3B5
S315200007B042328A5CD340C36010BD034BE6E7034B4D
S315200007C0E4E700BF0038024000127A000024F4005B
S315200007D0F03F00209A4238BF88547047704720B1B6
S315200007E0024B1A881206FCD59880704700100140EB
S315200007F0F8B5584B4FF48022C3F88421564B198AFA
S315200008009A89C90792B240F19080D20740F18D8033
S315200008104FF6FE721A82514AD2F8AC3443B94FF0E1
S31520000820100383F31188BFF36F8FBFF34F8FFEE75B
S31520000830EFF305810F2907D94948095C92F8B004DE
S31520000840884201D9FFF74EFC4FF0E021D2F8B404DC
S31520000850D1F80C1D01F4E061814208D94FF0100354
S3152000086083F31188BFF36F8FBFF34F8FFEE7EFF34C
S3152000087011844FF0100181F31188BFF36F8FBFF3FE
S315200008804F8F022193F8580083F85810596D01288C
S3152000089001F1010159655AD1996A41B14FF010030E
S315200008A083F31188BFF36F8FBFF34F8FFEE7106876
S315200008B0D96A00283AD1D3E902655869B5606E60D5
S315200008C046681F1DBE4208BF45600568013D05609C
S315200008D0906881424FF0140001FB00F002EB000506
S315200008E088BF91602E699E60D6F808C0C3F80CC0F8
S315200008F0CCF80470B7601B4E30445861EB68013366
S31520000900EB60D2F88034DB6A994220D90123C2F801
S31520000910843484F311884FF0E0234FF08052C3F8DB
S31520000920042DBFF34F8FBFF36F8FF8BDD2F870043D
S31520000930D86186681E6203F11805756085600A48CD
S315200009409862D2F86C340133C2F86C34D9E784F358
S315200009501188EAE700E100E0000C0040384300205F
S31520000960F0E300E044430020A44700202DE9F84F9F
S315200009701E460C9B15469A07DDE90A490746884616
S3152000098021D02A4626441444A24220D10C9B9B0700
S3152000099004D5561BB14505EB060422D82046BDE8F2
S315200009A0F88F4FF0FF3341462020B8470AF1010A5D
S315200009B0CA450AEB0B02F4D3A9EB0402A14538BFC2
S315200009C000222A44DEE7A246A5EB040BF0E702F15B
S315200009D0010A16F8010D4FF0FF334146B84752463B
S315200009E0D2E74FF0FF33224641462020B847013652
S315200009F0D0E72DE9F043DDE90B6515F0020FDDE9BF
S31520000A00097C079C9DF820E01FD105F001084EB116
S31520000A10B8F1000F06D0BEF1000F02D115F00C0F71
S31520000A2000D0013E4FF0300902E003F80490013473
S31520000A30A44501D9202CF8D1B8F1000F05D04FF0EC
S31520000A403008A64201D9202C25D115F0100F19D037
S31520000A5015F4806F24D11CB3A44501D0B4421FD114
S31520000A60B4F1010C1BD0102F35D1023CAF061FD498
S31520000A70202C1FD078271F550134202C1AD0302740
S31520000A801F550134202C15D0BEF1000F1BD02D2769
S31520000A901F5501340FE003F804800134D1E7644682
S31520000AA0102FE3D0022FE8D1202C03D06227E2E7D3
S31520000AB0202C06D12024CDE908650794BDE8F04313
S31520000AC054E75827D7E76F0701D52B27E0E72F07ED
S31520000AD0F1D52027DCE7022F6446D0D1E6E72DE9C1
S31520000AE0F04F93B0DDE91C74249E099257EA040363
S31520000AF008BF26F010067205CDE90701DDE9209B27
S31520000B0002D557EA040335D016F0200F14BF41232F
S31520000B1061230DF1280A0025A3F10A0821464A4639
S31520000B205B46384602F00AF9D2B2092A94BF30321F
S31520000B3042444F45D2B274EB0B040AF8012B05F15F
S31520000B40010501D3202D12D1239B0493229B0798C4
S31520000B500596CDE902939DF87830DDE90812CDE9B6
S31520000B6000530AABFFF745FF13B0BDE8F08F0746E9
S31520000B700C46D3E70025E7E72DE9F0418EB0159D19
S31520000B80189E0BB926F01006740500D513B316F07F
S31520000B90200F14BF4FF0410E4FF0610E1F460DF18E
S31520000BA018080023AEF10A0EB7FBF5FC05FB1C7CEA
S31520000BB05FFA8CF4BCF1090F94BF30347444E4B26C
S31520000BC0AF4208F8014BB7FBF5F403F1010301D35B
S31520000BD0202B0FD1179C0494169C0596CDE9025420
S31520000BE09DF85040CDE9003406ABFFF702FF0EB06A
S31520000BF0BDE8F0812746D7E72DE9F04F93B01D4693
S31520000C001C9B0B920E9353EC102BCDE90901104639
S31520000C1019468DED060B1D9E02F016F880B1DDE912
S31520000C200601C74B4FF0FF3202F036F840B9DDE936
S31520000C3006014FF0FF326FF4801302F00FF860B117
S31520000C409DED060BDDE90A120E9B09981C932B4697
S31520000C501D9613B0BDE8F04F88E1DDE906010022BC
S31520000C60002301F0FBFF002800F03481DDE906A314
S31520000C7003F1004BCBF30A5016F48063A0F2FF3049
S31520000C8008BF06250F9301F00DFD9DA3D3E9002390
S31520000C9001F072FD9CA3D3E9002301F0B7FBCBF34F
S31520000CA01304894644F07F518046A64B00225046C5
S31520000CB041F4401101F0A8FB95A3D3E9002301F0EC
S31520000CC05BFD02460B464046494601F09FFB01F07C
S31520000CD0EDFF044601F0E6FC8FA3D3E9002380460E
S31520000CE0894601F049FD984B002201F08FFB01F067
S31520000CF0DDFF8BA3D3E9002307464946404601F092
S31520000D003BFD80463846894601F0CCFC86A3D3E9D4
S31520000D10002301F031FD02460B464046494601F0CC
S31520000D2073FB02460B46CDE90C2301F025FDDDE9D8
S31520000D300C23804689461046194601F067FB834BF3
S31520000D40CDE9100100224046494601F03FFE804B86
S31520000D50002201F05BFB02460B464046494601F065
S31520000D6035FE7C4B002201F051FB02460B464046E5
S31520000D70494601F02BFEDDE90C23804689460020FA
S31520000D804FF0804101F040FB02460B464046494663
S31520000D9001F03CFB02460B46DDE9100101F016FE90
S31520000DA007F2FF376C4B002201F030FB00223B0597
S31520000DB001F0E2FC8046894602460B4650465946DB
S31520000DC001F04CFF002840F08880CDE90C8904F121
S31520000DD06303C62B8CBF0527042731051DD554A3D5
S31520000DE0D3E900235046594601F04CFF00287ED017
S31520000DF051A3D3E900235046594601F02FFF00287E
S31520000E0075D0AC42B8BF2C1B4FF00007B4BF04F11D
S31520000E10FF35002546F480663C460E9BBB428CBFC0
S31520000E20A3EB07084FF0000816F0020903D0002FA5
S31520000E3018BF4FF000083CB150465946DDE90C2357
S31520000E4001F0C4FD82468B46DDE90601002200231F
S31520000E5001F004FF10B10BF100439B4626F400631A
S31520000E60CDE90083DDE90A124BEC10AB09982B463D
S31520000E7000F07CF802464FB316F0200F00F1010572
S31520000E800A99099E0CBF652045204FF0FF33B047D5
S31520000E900523049300220A23CDE90132E30F0093B0
S31520000EA0013F84EAE4732A46DDE909010397A3EBAF
S31520000EB0E473FFF761FE0246B9F1000F06D00B9BE3
S31520000EC0C41A0B9B1A190E9BA34247D8104613B07F
S31520000ED0BDE8F08FDDE906ABCCE61D4B002240468F
S31520000EE0494601F073FD013CCDE90C016FE7002D69
S31520000EF093D00F9B002B90D0013D8EE7AFF300805F
S31520000F00FB799F501344D33FB3C8608B288AC63FD2
S31520000F1061436F63A787D23F71A379094F930A4034
S31520000F201655B5BBB16B0240EF39FAFE422EE63FAD
S31520000F302D431CEBE2361A3F0000000080842E4130
S31520000F40FFFFEF7F0000F83F0000E03F00002C404D
S31520000F5000002440000018400000F03F0A99099D37
S31520000F604FF0FF332020A8470134AAE72DE9F04FA0
S31520000F7092461D4653EC102B97B0CDE9070110463B
S31520000F8019468DED040BDDE9208701F05DFE60B981
S31520000F900323CDE901870093A94BDDE907015246DA
S31520000FA0FFF7E4FC17B0BDE8F08FDDE904014FF050
S31520000FB0FF326FF4801301F051FE28B10423009311
S31520000FC0CDE901879F4BE8E7DDE904019E4B4FF011
S31520000FD0FF3201F061FE68B107F00403002B9B4A43
S31520000FE00CBF032304230093CDE90187984B08BF48
S31520000FF01346D2E78EA3D3E90023DDE9040101F0ED
S315200010004BFE38B98CA3D3E90023DDE9040101F0B6
S3152000101025FE58B19DED040BDDE907012B4652460E
S31520001020CDE9208717B0BDE8F04FE5E5DDE90401FD
S315200010300022002301F012FE002800F09380DDE953
S3152000104004230020002101F0DFF9CDE9040101236A
S31520001050099317F4806400F08780092D40F2878079
S315200010600EABA5F10902002430210134202C03F80F
S31520001070011BA5EB040901D09442F6D1DDE9040158
S3152000108001F014FE734B03EBC90393ED047B054675
S315200010908DED0A7B01F006FB02460B46DDE90401D5
S315200010A001F0B2F9DDE90A2301F066FB02460B46A0
S315200010B0CDE90C2301F022FE064601F0E3FA0246B2
S315200010C00B46DDE90C0101F09FF902460B46CDE9FE
S315200010D00C23614B002201F0DFFD00284AD00136A7
S315200010E0304601F0CFFA02460B46DDE90A0101F04F
S315200010F0BFFD08B1013500260DF1380BB9F1000FFF
S3152000110045D1284601F0CEFA02460B46DDE9040118
S3152000111001F07AF9504B002201F0A0FD10B9E90741
S3152000112000D501350BEB04030A22202C0AD095FBAF
S31520001130F2F102FB1155303503F8015B01340D46FF
S315200011400029F2D107F00303012B55D1B8F1000F86
S3152000115052D0099B13B917F00C0F01D008F1FF38B4
S31520001160302340E0099074E74FF0060986E7A94648
S31520001170002483E7DDE90C01374B002201F06EFDE8
S315200011800028B9D10EB1F007B6D50136B4E70BEB7E
S3152000119004020A21202C0CD0B6FBF1F001FB1063CF
S315200011A03033092E02F8013B09F1FF3904F101041D
S315200011B010D8A1443022202CB4D04C4504F1010390
S315200011C00AD104F158020DEB02042E2204F8202C39
S315200011D01C46A7E70646DDE70BF804201C46EAE78F
S315200011E00BF804300134444506D2202CF8D1CDE941
S315200011F0018700945B46D0E6202CF8D0099B3BB1B2
S3152000120004F158036B442D2203F8202C0134EEE719
S315200012107A0704D504F158036B442B22F4E73B07E5
S31520001220E5D504F158036B442022EDE7AFF30080A7
S315200012300000000065CDCD410000000065CDCDC188
S315200012408140002085400020FFFFEF7F7D40002069
S3152000125078400020F03F00200000E03F2DE9F04FCD
S31520001260814691B08B4617461E460025387860B9D0
S315200012706FF00102AA424FF0FF3328BF2A46594693
S31520001280C847284611B0BDE8F08F252807F1010789
S3152000129007D02A466C1C4FF0FF335946C8472546CF
S315200012A0E4E70022394611F8013B2B2B17D00BD847
S315200012B0202B17D0232B18D0A3F13000092833D8A0
S315200012C04FF000080A2418E02D2B05D0302BF3D13F
S315200012D042F001020F46E5E742F00202FAE742F049
S315200012E00402F7E742F00802F4E742F01002F1E7C1
S315200012F004FB0833A3F130080F46394611F8013BA9
S31520001300A3F130000928F3D93B782E2B50D17978D8
S31520001310A1F13000092807F1010342F480623ED88A
S3152000132000244FF00A0C14E02A2B0AD156F8048B1D
S31520001330B8F1000FBCBF42F00202C8F100080F4608
S31520001340E2E74FF00008DFE70CFB0411A1F13004BF
S315200013500346184610F8011BA1F13007092FF3D9CF
S315200013601F463B4613F8011B6C292AD022D8682930
S315200013702ED06A2936D017F8010B67285ED8572851
S3152000138033D8452808D084D9462800F00C81472830
S315200013907FF47FAF42F4006242F020021AE12A294C
S315200013A005D156F8044B023724EAE474D9E71F46E0
S315200013B00024D6E7742901D07A29DCD142F4807240
S315200013C00BE079786C29F9D142F440720237D2E7E2
S315200013D07978682903D042F080021F46CBE742F095
S315200013E0C002F3E742F40072F7E7A0F158030F2B8F
S315200013F03FF64FAF01A151F823F000BF991400200A
S3152000140093120020931200209312002093120020A2
S315200014109312002093120020931200209312002092
S315200014209312002099140020F11500209914002011
S31520001430C9150020AB150020C9150020A0F16903AD
S31520001440DBB20F2B3FF625AF0121994049F2410C23
S3152000145011EA0C0116D10A2B00F00D81072B7FF41F
S3152000146018AF0823CDE902431023CDE9001342F03B
S315200014702102049256F8043B2A4659464846FFF76D
S315200014807BFB9FE06F2800F05B8110D9782808D17C
S31520001490102122F00C0210E0582837D0622800F0E4
S315200014A0518122F010020A21642806D0F1E769282A
S315200014B022F010024FF00A01F6D1530548BF22F060
S315200014C00102692802F4007301D064283FD103B3D6
S315200014D0073626F00706B24670685AF8083B069487
S315200014E0CDE9078200220592C20F002804910292BC
S315200014F002DA5B4260EB4000CDE900302A465946CD
S315200015004846FFF7ECFA05465646AFE642F020027B
S31520001510BEE7D30506F1040A01D5336802E050067A
S3152000152010D53378CDE90114CDE90382002B4FEA9B
S31520001530D3720092B8BF5B422A4659464846FFF707
S315200015401BFBE0E71306E8D5B6F90030EAE77BB1E6
S315200015500023CDE90782CDE9041306F1070A2AF014
S31520001560070A06940293FAE80223CDE90023C5E789
S31520001570D00506F1040A06D5CDE90382CDE901148A
S3152000158000933368D8E7530607D53378CDE903822D
S315200015900022CDE901140092CEE7336812F0800FC5
S315200015A018BF9BB2F2E742F02002CDE9008207364F
S315200015B026F00706B6EC020B23462A46594648462D
S315200015C0FFF7D4FC054651E600F0DF00472801D19D
S315200015D042F40062CDE90082073626F00706B6EC13
S315200015E0020B23462A4659464846FFF705FBE9E7FC
S315200015F012F0020429D04FF0010A6B1C0B9316F847
S31520001600040B4FF0FF332A465946C8478CB30B9A32
S31520001610544624E04FF0FF3359462020C84705EBB7
S315200016200A020AF1010AD045F4D8B8F1000218BF1F
S315200016300122002A08F1FF3308BF002308F1010A1E
S315200016401D4408BF4FF0020AD7E7A246E7E7551C1C
S315200016504FF0FF3359462020C84701342A464445D7
S31520001660F5D30B9AA8EB0A03D04538BF00231A44BA
S315200016700B920B9DFAE53346002C53F8046B0B9323
S3152000168014BF21464FF0FF3131443346187808B154
S31520001690994211D1A3EB060A12F480630C9302D06F
S315200016A0A24528BFA24612F002030D931CD1AAEB35
S315200016B005032A460F9309E00133E7E7531C0E93EF
S315200016C059464FF0FF332020C8470E9A0F9BD31858
S315200016D04345F3D3A8EB0A03D04538BF00230AF1CC
S315200016E001021D4403EB020AAB1B0E9305E01C46C8
S315200016F04FF0FF332A465946C8470E9B9D1916F8C8
S31520001700010B28B10C9B002BF2D0631E002CEED1CE
S315200017100D9B9BB12A46AAEB050406E0561C4FF00A
S31520001720FF3359462020C847324613199845F5D825
S31520001730A8EB0A03D04538BF00231D440B9E95E530
S315200017400821A6E60221A4E6D0E9011203698A60EF
S3152000175051605968884208BF5A60002202611A689F
S31520001760013A1A601B68704708B5134C4FF0E02504
S315200017704FF08056D4F8CC344BB9E368012BF9D915
S31520001780C5F8046DBFF34F8FBFF36F8FF2E7FEF7F7
S3152000179055FED4F8C434D8680430FFF7D5FFD4F802
S315200017A0A834013BC4F8A834D4F8CC34013BC4F89F
S315200017B0CC34FEF75DFEDDE7384300202DE9F84303
S315200017C0224C0646D4F89054D4F88884D4F89494BD
S315200017D0D4F8800404300F46FFF7B6FF731C1DD1E2
S315200017E0E7B1D4F88024D4F8D4349360D4F8802494
S315200017F09968D160D4F8802404324A60D4F88024D1
S3152000180004329A60D4F8803404F59A625A61D4F886
S31520001810D0340133C4F8D034BDE8F883D4F880340A
S31520001820D4F88014AD195D6001F1040104D3484653
S31520001830BDE8F843FEF73FBC4046FEF73CFCD4F833
S315200018408C34AB4288BFC4F88C54E5E7384300207B
S3152000185008B5104D4FF08044636A0133626A9342A3
S31520001860FCD8FEF748FC2868012801D0FEF73AFC90
S315200018700021FFF7A3FFFEF747FE0028ECD14FF02B
S31520001880E0234FF08052C3F8042DBFF34F8FBFF3F0
S315200018906F8FE1E7384300200E4BD3F8A434DB6882
S315200018A070B5DC680546201D0E46FFF74DFF94F8FF
S315200018B028305A0709D5324629462046FEF76AFDC2
S315200018C0236A2046BDE87040184723F0010384F8B8
S315200018D02830F5E73843002010B5094CD4F8A43455
S315200018E01A6832B9D4F8A024C4F8A424C4F8A034C1
S315200018F010BDDB684FF0FF311868FFF7CDFFEDE72D
S31520001900384300208FB5914DD5F8A4341E68002E9B
S3152000191057D0DB681E680021FEF7EDFBD5F89074E2
S31520001920D5F8E434BB424ED8C5F8E474002961D01A
S31520001930D5F8A0341968B1FA81F14909D5F8E844F7
S31520001940FEF77CFD94F84430FF2B04BF002384F877
S31520001950443094F84530FF2B04BF002384F84530EB
S31520001960FEF786FDA36BDBB9D5F88024A36AD36185
S31520001970D5F8802498681062D5F880241832426001
S31520001980D5F8802418329A60D5F8803404F12402E0
S315200019909A62636A01336362A9BBF01BFFF70EFFED
S315200019A02046FEF773FDFEF7AFFD90B94FF0E0231A
S315200019B04FF08052C3F8042DBFF34F8FBFF36F8FC4
S315200019C007E00121A8E7FFF787FFC5F8E474FEF7D3
S315200019D09BFD0023CDE901330393D5F8E844002C81
S315200019E056D14FF0100383F31188BFF36F8FBFF3E7
S315200019F04F8FFEE7BE42A1D8FEF786FD3946304618
S31520001A00FFF74AFFE5E74FF0FF30C7E794F82830A5
S31520001A10A66943F0010384F82830029B1E443A4607
S31520001A2031462046FEF798FC0028D6D094F8283078
S31520001A305A0708D53A4631462046FEF7ABFC236ABC
S31520001A4020469847C9E723F0010384F82830F6E7B3
S31520001A5094F828300299A16143F0010384F82830D4
S31520001A6041B94FF0100383F31188BFF36F8FBFF393
S31520001A704F8FFEE73B463A4639442046FEF76CFC3C
S31520001A80ABE794F8283023F0010384F82830A4E744
S31520001A90D5F8EC3403B12B68FEF7D0FCA66B002EEC
S31520001AA050D0226C5AB1E368A16813448B42E3609C
S31520001AB024BF2368E360E16801A802F00BF9013E28
S31520001AC0A663236973B104F11000FEF725FB48B124
S31520001AD04FF0E0234FF08052C3F8042DBFF34F8F11
S31520001AE0BFF36F8FFEF7C4FC019E002EFFF675AF85
S31520001AF0039C636913B1201DFFF726FED5F8907469
S31520001B00D5F8E434BB4201D9FFF7E6FE013EC5F81D
S31520001B10E474082E3FF661AF01A353F826F000BF08
S31520001B200D1A00200D1A0020831A0020511A0020B9
S31520001B30831A00200D1A00200D1A0020831A002077
S31520001B40511A0020FEF794FCDEE600BF3843002041
S31520001B500FB407B504AB694653F8042B0448019328
S31520001B60FFF77CFB03B05DF804EB04B0704700BFC1
S31520001B70DF07002080B52448244DFFF7E9FF4FF00A
S31520001B80804301265B6A0027FEF7B5FAFEF756FC6E
S31520001B90D5F880345B6D2BB3FEF76AFC0024FEF784
S31520001BA0B3FC54B148B94FF0E0234FF08052C3F84C
S31520001BB0042DBFF34F8FBFF36F8FFEF73FFCD5F891
S31520001BC080345B6D1BB1D5F88024013B5365D5F875
S31520001BD0803483F85870FEF74BFC0D4B7EB11F778F
S31520001BE00026D1E7D5F88034012483F858402146D1
S31520001BF04FF0FF30FEF73CFCFFF7E0FDCFE7E82291
S31520001C001A770126C0E700BF8A400020384300200B
S31520001C10007400400EB403B5054A014604AB0548DE
S31520001C200193FFF71BFB02B05DF804EB03B070478E
S31520001C309E400020D50700202DE9F743DDE90A94D0
S31520001C4080460F4615461E46B9F1000F08D14FF0C3
S31520001C50100383F31188BFF36F8FBFF34F8FFEE717
S31520001C6044B94FF0100383F31188BFF36F8FBFF38E
S31520001C704F8FFEE75C230193019A9A4208D04FF0DA
S31520001C80100383F31188BFF36F8FBFF34F8FFEE7E7
S31520001C900021AD002046019B01F0A9FC2A46A52182
S31520001CA0C4F83090484601F0A2FC226B043D2A4439
S31520001CB07B1E22F0070204F133010F3713F8010FC0
S31520001CC001F8010F08B1BB42F8D1E662E6640023B1
S31520001CD0C6F138064FF0807184F843306361A36201
S31520001CE0A6612461646242F8041C28F0010142F8CE
S31520001CF0081C42F8203C3F4942F80C1C6FF00203B6
S31520001D003D4942F8243C443A2260FEF797FBD1F83D
S31520001D10A8340133C1F8A834D1F8805401F10C0657
S31520001D20002D5AD1C1F88044D1F8A834012B20D1F6
S31520001D3030460135FEF7B4F9382D00F11400F8D1FC
S31520001D402E4D284605F11407FEF7AAF93846FEF768
S31520001D50A7F9A5F18400FEF7A3F9A5F13800FEF74F
S31520001D609FF9A5F12000FEF79BF9C1F88854C1F828
S31520001D709474D1F818358A6801336364C1F818352C
S31520001D80E36A93424FF0140288BF8B605343CA180C
S31520001D901E441069D3688768A060251DE76001335B
S31520001DA07D6085606661D360FEF762FBD1F8EC3416
S31520001DB07BB1D1F88034DA6AE36A9A4209D24FF0CD
S31520001DC0E0234FF08052C3F8042DBFF34F8FBFF3AB
S31520001DD06F8F204603B0BDE8F083D1F8EC24E36A88
S31520001DE0002AC6D1D1F88024D26A9A4298BFC1F877
S31520001DF08044BEE7B903002038430020284800204D
S31520001E000E49D1F8883043F47003C1F888300C4B62
S31520001E101A68002042F001021A6098601A6822F0BF
S31520001E20847222F480321A60064A5A601A6822F4B2
S31520001E3080221A60D860044B8B60704700ED00E06A
S31520001E40003802401030002400C0012070B52F4C0D
S31520001E50236890B023B10123C4F8843410B070BD38
S31520001E60C4F88434FEF74EF9D4F88034984223D14E
S31520001E70D4F82815D4F82025D4F82C05D4F8243500
S31520001E80521AD4F8301563EB0003D4F834058918B8
S31520001E9043EB0000C4F83015C4F834051C496846E5
S31520001EA0FFF7B8FE04F5A4660022002304F5A66514
S31520001EB0C6E9002345E90223A368142505FB03F19F
S31520001EC06218D068A8B11069124D40681061294483
S31520001ED0884204BF91691161142202FB03421269F0
S31520001EE0D268C4F88024A360FEF70CF9D4F88034B5
S31520001EF0B4E743B94FF0100383F31188BFF36F8F14
S31520001F00BFF34F8FFEE7013BD8E700BF38430020E1
S31520001F109E4000204C4300202DE9FF41A14A02E0CB
S31520001F20002342F8043BA04B9A42F9D3934C944D9C
S31520001F30236943F002032361236923F0020323610B
S31520001F40236A43F000732362236A23F0007323621B
S31520001F50236A43F080632362236A23F0806323622B
S31520001F60236C43F000732364236C43F08063236463
S31520001F70236B43F0020323636B6A23F0F0036B6247
S31520001F806B6A43F090036B626B6A23F00F036B62FC
S31520001F906B6A43F0090302A94FF4007228466B626C
S31520001FA040F202230127CDE90223FEF78BFB4FF4F3
S31520001FB0807302938DF80F70FEF784FB2B6A23F053
S31520001FC070632B622B6A43F010632B622B6A23F417
S31520001FD070032B622B6A43F4100300262B624FF00A
S31520001FE02008402302938DF80F60FEF76BFBCDF897
S31520001FF008808DF80F70FEF765FB624BD3F8002240
S315200020003A43C3F80022D3F81C2222F00102C3F877
S315200020101C22D3F80C223A43C3F80C22C3F84062A0
S31520002020C3F84462D3F8042222F00102C3F8042242
S31520002030D3F8142222F00102C3F81422D3F81C226A
S315200020403A43C3F81C22D3F8002222F00102C3F837
S315200020500022236C43F000532364A5F580600323FC
S31520002060CDF808800393FEF72DFB236A43F0005337
S315200020702362236A23F000532362434B1A686FF3CB
S315200020805B421A601A6842F480321A600196019304
S31520002090019B1C330193019B1E60636C43F48043B8
S315200020A063643A4BDA6822F47042DA60DA6842F402
S315200020B08052DA60364AC3F80064C3F80464C3F871
S315200020C00864C3F80C64C3F81424D3F8002422F05F
S315200020D08002C3F80024D3F8042422F08002C3F837
S315200020E004242C4AD2F8000C40F08000C2F8000CE0
S315200020F0D3F8080420F08000C3F80804D3F80C04B1
S3152000210020F08000C3F80C04D2F80C3C43F0800386
S31520002110C2F80C3C204B28464FF00208CDE902833A
S31520002120FEF7D0FA0297FEF7CDFAA5F8188080239D
S315200021302F8302938DF80C608DF80E60FEF7C2FA9D
S31520002140EFF3148323F0030383F31488134B4FF424
S3152000215004725A615A6942F008025A614FF00042ED
S31520002160C3F83422236C43F008032364236E43F020
S315200021700803236604B0BDE8F08100BF00380240A2
S315200021800004024000640040007400400038014012
S31520002190FFFF7F00003001400101010000ED00E05B
S315200021A0704700003843002054B1002070B54FF02E
S315200021B0FF0C4CF4E06C1CEA11541DBF1CEA1355AD
S315200021C094EA0C0F95EA0C0F00F0DEF82C4481EA15
S315200021D0030621EA4C5123EA4C5350EA013518BF35
S315200021E052EA033541F4801143F4801338D0A0FB22
S315200021F002CE4FF00005E1FB02E506F00042E0FBCF
S3152000220003E54FF00006E1FB03569CF0000F18BFD4
S315200022104EF0010EA4F1FF04B6F5007F64F540747C
S3152000222004D25FEA4E0E6D4146EB060642EAC6210F
S3152000223041EA55514FEAC52040EA5E504FEACE2E7C
S31520002240B4F1FD0C88BFBCF5E06F1ED8BEF1004F7F
S3152000225008BF5FEA500E50F1000041EB045170BDFB
S3152000226006F0004646EA010140EA020081EA03013F
S31520002270B4EB5C04C2BFD4EB0C0541EA045170BD3B
S3152000228041F480114FF0000E013C00F3AB8014F1B5
S31520002290360FDEBF002001F0004170BDC4F10004FE
S315200022A0203C35DA0C341BDC04F11404C4F120057F
S315200022B000FA05F320FA04F001FA05F240EA0200DA
S315200022C001F0004221F0004110EBD37021FA04F610
S315200022D042EB06015EEA430E08BF20EAD37070BDCA
S315200022E0C4F10C04C4F1200500FA04F320FA05F029
S315200022F001FA04F240EA020001F0004110EBD3702B
S3152000230041F100015EEA430E08BF20EAD37070BD9A
S31520002310C4F1200500FA05F24EEA020E20FA04F373
S3152000232001FA05F243EA020321FA04F001F0004122
S3152000233021FA04F220EA020000EBD3705EEA430E93
S3152000234008BF20EAD37070BD94F0000F0FD101F0C2
S315200023500046400041EB010111F4801F08BF013CFB
S31520002360F7D041EA060195F0000F18BF704703F039
S315200023700046520043EB030313F4801F08BF013DC0
S31520002380F7D043EA0603704794EA0C0F0CEA13557C
S3152000239018BF95EA0C0F0CD050EA410618BF52EA36
S315200023A04306D1D181EA030101F000414FF000003C
S315200023B070BD50EA410606BF1046194652EA43064A
S315200023C019D094EA0C0F02D150EA013613D195EABE
S315200023D00C0F05D152EA03361CBF104619460AD106
S315200023E081EA030101F0004141F0FE4141F4700110
S315200023F04FF0000070BD41F0FE4141F4780170BD00
S3152000240081F0004102E000BF83F0004330B54FEA7F
S3152000241041044FEA430594EA050F08BF90EA020FEC
S315200024201FBF54EA000C55EA020C7FEA645C7FEA7F
S31520002430655C00F0E2804FEA5454D4EB5555B8BFA2
S315200024406D420CDD2C4480EA020281EA030382EA13
S31520002450000083EA010180EA020281EA0303362DA5
S3152000246088BF30BD11F0004F4FEA01314FF4801C78
S315200024704CEA113102D0404261EB410113F0004F8A
S315200024804FEA03334CEA133302D0524263EB430341
S3152000249094EA050F00F0A780A4F10104D5F1200EDF
S315200024A00DDB02FA0EFC22FA05F2801841F100013A
S315200024B003FA0EF2801843FA05F359410EE0A5F10E
S315200024C020050EF1200E012A03FA0EFC28BF4CF03F
S315200024D0020C43FA05F3C01851EBE37101F00045F5
S315200024E007D54FF0000EDCF1000C7EEB00006EEB02
S315200024F00101B1F5801F1BD3B1F5001F0CD349088C
S315200025005FEA30004FEA3C0C04F101044FEA4452E2
S3152000251012F5800F80F09A80BCF1004F08BF5FEA69
S31520002520500C50F1000041EB045141EA050130BD49
S315200025305FEA4C0C404141EB0101013C28BFB1F55B
S31520002540801FE9D291F0000F04BF01460020B1FAA6
S3152000255081F308BF2033A3F10B03B3F120020CDA79
S315200025600C3208DD02F1140CC2F10C0201FA0CF057
S3152000257021FA02F10CE002F11402D8BFC2F1200CBC
S3152000258001FA02F120FA0CFCDCBF41EA0C01904072
S31520002590E41AA2BF01EB0451294330BD6FEA0404BB
S315200025A01F3C1CDA0C340EDC04F11404C4F12002A6
S315200025B020FA04F001FA02F340EA030021FA04F3B8
S315200025C045EA030130BDC4F10C04C4F1200220FA0F
S315200025D002F001FA04F340EA0300294630BD21FA4D
S315200025E004F0294630BD94F0000F83F4801306BF13
S315200025F081F480110134013D4EE77FEA645C18BF07
S315200026007FEA655C29D094EA050F08BF90EA020F9D
S3152000261005D054EA000C04BF1946104630BD91EA95
S31520002620030F1EBF0021002030BD5FEA545C05D198
S315200026304000494128BF41F0004130BD14F58004D7
S315200026403CBF01F5801130BD01F0004545F0FE414B
S3152000265041F470014FF0000030BD7FEA645C1ABF80
S31520002660194610467FEA655C1CBF0B46024650EAB7
S31520002670013406BF52EA033591EA030F41F40021E3
S3152000268030BD00BF90F0000F04BF0021704730B569
S315200026904FF4806404F132044FF000054FF000013E
S315200026A050E700BF90F0000F04BF0021704730B5FF
S315200026B04FF4806404F1320410F0004548BF4042D4
S315200026C04FF000013EE700BF42004FEAE2014FEA29
S315200026D031014FEA02701FBF12F07F4393F07F4F04
S315200026E081F06051704732F07F4208BF704793F007
S315200026F07F4F04BF41F40021704730B54FF460741A
S3152000270001F0004521F000411CE700BF50EA01021C
S3152000271008BF704730B54FF000050AE050EA0102C5
S3152000272008BF704730B511F0004502D5404261EB35
S3152000273041014FF4806404F132045FEA915C3FF476
S31520002740D8AE4FF003025FEADC0C18BF03325FEA13
S31520002750DC0C18BF033202EBDC02C2F1200300FAC4
S3152000276003FC20FA02F001FA03FE40EA0E0021FAE9
S3152000277002F11444BDE600BF70B54FF0FF0C4CF4D7
S31520002780E06C1CEA11541DBF1CEA135594EA0C0F89
S3152000279095EA0C0F00F0DEF82C4481EA030621EAC4
S315200027A04C5123EA4C5350EA013518BF52EA0335FF
S315200027B041F4801143F4801338D0A0FB02CE4FF0B1
S315200027C00005E1FB02E506F00042E0FB03E54FF0E1
S315200027D00006E1FB03569CF0000F18BF4EF0010ED9
S315200027E0A4F1FF04B6F5007F64F5407404D25FEAD5
S315200027F04E0E6D4146EB060642EAC62141EA555188
S315200028004FEAC52040EA5E504FEACE2EB4F1FD0CC9
S3152000281088BFBCF5E06F1ED8BEF1004F08BF5FEA47
S31520002820500E50F1000041EB045170BD06F00046F9
S3152000283046EA010140EA020081EA0301B4EB5C04A6
S31520002840C2BFD4EB0C0541EA045170BD41F480119E
S315200028504FF0000E013C00F3AB8014F1360FDEBFC3
S31520002860002001F0004170BDC4F10004203C35DA9F
S315200028700C341BDC04F11404C4F1200500FA05F322
S3152000288020FA04F001FA05F240EA020001F00042C3
S3152000289021F0004110EBD37021FA04F642EB060139
S315200028A05EEA430E08BF20EAD37070BDC4F10C0463
S315200028B0C4F1200500FA04F320FA05F001FA04F227
S315200028C040EA020001F0004110EBD37041F1000113
S315200028D05EEA430E08BF20EAD37070BDC4F120051E
S315200028E000FA05F24EEA020E20FA04F301FA05F286
S315200028F043EA020321FA04F001F0004121FA04F22E
S3152000290020EA020000EBD3705EEA430E08BF20EAFD
S31520002910D37070BD94F0000F0FD101F00046400037
S3152000292041EB010111F4801F08BF013CF7D041EAB9
S31520002930060195F0000F18BF704703F000465200BD
S3152000294043EB030313F4801F08BF013DF7D043EA8E
S315200029500603704794EA0C0F0CEA135518BF95EA44
S315200029600C0F0CD050EA410618BF52EA4306D1D1CB
S3152000297081EA030101F000414FF0000070BD50EAEA
S31520002980410606BF1046194652EA430619D094EA74
S315200029900C0F02D150EA013613D195EA0C0F05D15E
S315200029A052EA03361CBF104619460AD181EA0301B2
S315200029B001F0004141F0FE4141F470014FF000006A
S315200029C070BD41F0FE4141F4780170BD70B54FF005
S315200029D0FF0C4CF4E06C1CEA11541DBF1CEA135585
S315200029E094EA0C0F95EA0C0F00F0A7F8A4EB050467
S315200029F081EA030E52EA03354FEA013100F088805E
S31520002A004FEA03334FF0805545EA131343EA126326
S31520002A104FEA022245EA111545EA10654FEA0026DB
S31520002A200EF000419D4208BF964244F1FD0404F594
S31520002A30407402D25B084FEA3202B61A65EB0305F0
S31520002A405B084FEA32024FF480104FF4002CB6EBAD
S31520002A50020E75EB030E22BFB61A754640EA0C002D
S31520002A605B084FEA3202B6EB020E75EB030E22BF6D
S31520002A70B61A754640EA5C005B084FEA3202B6EBAE
S31520002A80020E75EB030E22BFB61A754640EA9C006D
S31520002A905B084FEA3202B6EB020E75EB030E22BF3D
S31520002AA0B61A754640EADC0055EA060E18D04FEAFB
S31520002AB0051545EA16754FEA06164FEAC30343EA9B
S31520002AC052734FEAC2025FEA1C1CC0D111F4801F68
S31520002AD00BD141EA00014FF000004FF0004CB6E761
S31520002AE011F4801F04BF01430020B4F1FD0C88BF00
S31520002AF0BCF5E06F3FF6AFAEB5EB030C04BFB6EB0B
S31520002B00020C5FEA500C50F1000041EB045170BDFD
S31520002B100EF0004E4EEA113114EB5C04C2BFD4EB2A
S31520002B200C0541EA045170BD41F480114FF0000EAE
S31520002B30013C90E645EA060E8DE60CEA135594EA2A
S31520002B400C0F08BF95EA0C0F3FF43BAF94EA0C0F2D
S31520002B500AD150EA01347FF434AF95EA0C0F7FF4A2
S31520002B6025AF104619462CE795EA0C0F06D152EAF6
S31520002B7003353FF4FDAE1046194622E750EA4106DA
S31520002B8018BF52EA43067FF4C5AE50EA41047FF4EB
S31520002B900DAF52EA43057FF4EBAE12E74FF0FF3C50
S31520002BA006E000BF4FF0010C02E000BF4FF0010C21
S31520002BB04DF804CD4FEA410C7FEA6C5C4FEA430C9A
S31520002BC018BF7FEA6C5C1BD001B050EA410C0CBFE9
S31520002BD052EA430C91EA030F02BF90EA020F00204B
S31520002BE0704710F1000F91EA030F58BF994208BFB2
S31520002BF090422CBFD8176FEAE37040F0010070476F
S31520002C004FEA410C7FEA6C5C02D150EA013C07D1C5
S31520002C104FEA430C7FEA6C5CD6D152EA033CD3D010
S31520002C205DF8040B704700BF8446104662468C460A
S31520002C301946634600E000BF01B5FFF7B7FF00283D
S31520002C4048BF10F1000F01BD4DF808EDFFF7F4FF66
S31520002C500CBF012000205DF808FB00BF4DF808EDF1
S31520002C60FFF7EAFF34BF012000205DF808FB00BF14
S31520002C704DF808EDFFF7E0FF94BF012000205DF836
S31520002C8008FB00BF4DF808EDFFF7CEFF94BF0120EB
S31520002C9000205DF808FB00BF4DF808EDFFF7C4FFE4
S31520002CA034BF012000205DF808FB00BF4FEA410237
S31520002CB012F5001215D211D56FF47873B3EB625268
S31520002CC012D94FEAC12343F0004343EA505311F08F
S31520002CD0004F23FA02F018BF404270474FF0000021
S31520002CE0704750EA013005D111F0004008BF6FF05F
S31520002CF0004070474FF00000704700BF4A0011D2D5
S31520002D0012F5001211D20DD56FF47873B3EB62521F
S31520002D100ED44FEAC12343F0004343EA505323FA2B
S31520002D2002F070474FF00000704750EA013002D1A0
S31520002D304FF0FF3070474FF00000704753B94AB943
S31520002D40002908BF00281CBF4FF0FF314FF0FF308D
S31520002D5000F00CB8ADF1080C6DE904CE00F0F8FFD8
S31520002D60DDF804E0DDE9022304B07047704700BFB8
S31520002D7010B5054C237833B9044B13B10448AFF38F
S31520002D8000800123237010BD54AF002000000000F6
S31520002D903041002008B5034B1BB103490348AFF36C
S31520002DA0008008BD0000000058AF00203041002000
S31520002DB0002103E00B4B5B58435004310A480B4B70
S31520002DC042189A42F6D30A4A02E0002342F8043B0C
S31520002DD0084B9A42F9D3FFF713F800F0B5FC00F040
S31520002DE00DF87047C4420020C44200203043002022
S31520002DF03843002054B10020FEE700002DE9F043BF
S31520002E00B94BBA4AC3F8082189B0B948B94CBA4F68
S31520002E10BA4EDFF83893DFF83883FEF799FEB84BC1
S31520002E20B84ADA60DA68D243C2F302220F2313418A
S31520002E301B01B54A03F0100382F832334FF4802386
S31520002E405360202382F8323304A8FDF780FCAF4A72
S31520002E50136C43F001031364069BAD4A5B00B3FB7E
S31520002E60F2F3013B4FF080429BB20025A4F838359F
S31520002E70A4F84055A4F83A55118821F45C71090448
S31520002E804FF0FF30090CC4F83C051180D062138541
S31520002E900123938293899F489BB243F00103938138
S31520002EA013889BB243F001031380FEF751FECDE950
S31520002EB0007601234022494640460135FEF7BCFEF6
S31520002EC0322D07F5B87706F15C06F0D1924B0193C7
S31520002ED05C3392490093802201239148FEF7ACFE91
S31520002EE0C4F8AC0404A8FDF732FC884A136C43F0FE
S31520002EF008031364069A864B5200B2FBF3F20023B2
S31520002F00013AA4F8583AA4F8523A92B2854BA4F85A
S31520002F10502A198821F45C7109044FF4FD60090CCC
S31520002F20C4F8540A1980D8621A8501229A829A898D
S31520002F307D4992B242F001029A81D8621A8892B2F1
S31520002F4042F001021A8004AA11F8013B02F8013B63
S31520002F50002BF9D1754D7648019505F15C0200925A
S31520002F6004A98022FEF768FE6060002800F08381B5
S31520002F70FDF764FAD4F8E814002967D105F5177629
S31520002F803046FDF78DF805F51C70FDF789F85023BE
S31520002F900393039BC4F8A464502BC4F8A00408D060
S31520002FA04FF0100383F31188BFF36F8FBFF34F8F5A
S31520002FB0FEE7039B05F53573C4F8E03C0A23C4F805
S31520002FC01C3D0C23C4F8203DFDF738FAD4F8200D1B
S31520002FD0D4F81C3DD4F8E02CC4F8E42C4343D6188E
S31520002FE01B1A1A4405F52570FF23C4F8EC2CC4F8E7
S31520002FF0181DC4F8E86C84F8243D05F5217684F87C
S31520003000253DFDF74DF805F52A7005F55375FDF7B5
S3152000301047F8FDF72DFA84F82C1DC4F8E8640B4612
S315200030202A466868B04205D102EBC301414BC1E98B
S3152000303000360BE019B92868002808BF2946013355
S31520003040082B05F10805ECD10029EFD1FDF710FA80
S31520003050D4F8E83443B94FF0100383F31188BFF353
S315200030606F8FBFF34F8FFEE7334B01935C33009393
S315200030703249334803234FF48072FEF7DDFD0028E2
S31520003080E9D04FF0100383F31188BFF36F8FBFF39E
S315200030904F8F01234FF0FF310025C4F88C14C4F85C
S315200030A0EC34C4F89054FDF72DF84FF0E023254A70
S315200030B0D3F8000D904208D14FF0100383F3118806
S315200030C0BFF36F8FBFF34F8FFEE7D3F8000D1E4A75
S315200030D090423FD14FF0100383F31188BFF36F8FD7
S315200030E0BFF34F8FFEE700BF00C00120F10700208D
S315200030F0AD40002038430020746700207C55002016
S3152000310000ED00E00003FA0500E100E0003802408F
S3152000311040420F00BE4000207C480020D9400020BD
S31520003120751B0020000C0040E0400020944D00203C
S3152000313069170020E540002020510020EA400020A9
S315200031400519002071C20F4170C20F41CE400020E8
S31520003150511800204B4A4C48C3F8082D4B4ED063DB
S315200031604B489063D662D3F8083DDA6AB24208D05B
S315200031704FF0100383F31188BFF36F8FBFF34F8F88
S31520003180FEE79B6B834208D04FF0100383F3118830
S31520003190BFF36F8FBFF34F8FFEE73E4B04951A7830
S315200031A0D2B28DF80A2019701B78DBB28DF80B305D
S315200031B09DF80B3003F0100384F8B03443B94FF078
S315200031C0100383F31188BFF36F8FBFF34F8FFEE792
S315200031D09DF80B30DB0610D44FF0100383F31188D3
S315200031E0BFF36F8FBFF34F8FFEE7013304939DF834
S315200031F00B305B00DBB28DF80B309DF80B3013F0F3
S31520003200800F049BF1D1082B18BF049B214A14BFC1
S31520003210C3F1070300231B0203F4E063C4F8B434AC
S315200032209DF80A304FF0E024DBB21370D4F8203D2D
S31520003230194A43F47F03C4F8203DD4F8203D43F0D7
S315200032407F43C4F8203D0023C4F81C3D2361A361BD
S31520003250626107222261114A1360FDF729FAD4F828
S31520003260343F43F04043C4F8343FFDF7D3F8FEF72C
S31520003270EDFDFDF7A1F80A4B1B6E002009B0BDE855
S31520003280F08300BF00C0012085060020ED0300204A
S315200032902506002000E400E03F900200C442002002
S315200032A0F03F0020002301461A46184600F090BA47
S315200032B008B5064B044613B1002100F0E5FA044B8D
S315200032C01B6803B19847204600F040FD893800204E
S315200032D0A8B00020002310B50446C0E90033C0E999
S315200032E00433836081814366C28183611946082243
S315200032F05C3000F07CF90D4B63620D4BA3620D4BE5
S31520003300E3620D4B23630D4B24629C4206D003F1EE
S315200033106802944202D0D0339C4205D104F1580071
S31520003320BDE8104000F049BA10BD00BF6535002049
S315200033308B350020C3350020E735002070AF0020F4
S31520003340024A0349034800F0EFB800BFCC420020F0
S315200033503D3C0020DC42002041680C4B994210B5D0
S31520003360044601D000F06AFCA168094B994202D0BC
S31520003370204600F063FCE168064B994204D02046C3
S31520003380BDE8104000F05ABC10BD00BF70AF002051
S31520003390D8AF002040B0002008B54B6EDA0705D420
S315200033A08B899B0502D4886D00F00BFA002008BD9E
S315200033B008B54B6EDA0705D48B899B0502D4886D38
S315200033C000F005FA002008BD10B50B4B0B4C0C4A3B
S315200033D01A60204600220421FFF77CFF04F16800D2
S315200033E001220921FFF776FF04F1D0000222BDE871
S315200033F010401221FFF76EBFA8B0002070AF00204A
S3152000340041330020014800F0DCB900BFB7B00020EE
S31520003410014800F0DCB900BFB7B00020F8B5074678
S31520003420FFF7F0FF234B1B680BB9FFF7CDFF224EAA
S31520003430D6E90134013B0FD53568002D37D14FF43D
S31520003440D671384600F0EAFA044628BB3060FFF70A
S31520003450DFFF0C233B601BE0B4F90C50D5B9174BAA
S31520003460E36004F15800656600F0A7F9FFF7D0FF86
S31520003470C4E90155C4E904552560A56108222946F9
S3152000348004F15C0000F0B3F8C4E90D55C4E9125507
S315200034902046F8BD6834CDE70423056043600C3030
S315200034A0A0604FF4D072294600F0A1F83460366847
S315200034B0BEE700BFA8B00020CC4200200100FFFFDD
S315200034C010B50446FFF79EFF236A1BB1BDE81040E6
S315200034D0FFF79EBF044B2362044B1B68002BF5D1DC
S315200034E0FFF772FFF2E700BF59330020A8B0002093
S315200034F008B5FFF787FFBDE80840024A02490020C9
S3152000350000F012B8CC4200209933002008B5044AB6
S315200035100449002000F008F8BDE80840FFF778BF0E
S31520003520CC420020B13300202DE9F84307468846D7
S3152000353014460026D4E90195B9F1010905D5246878
S31520003540002CF7D13046BDE8F883AB89012B07D98B
S31520003550B5F90E30013303D029463846C047064315
S315200035606835E9E710B50C46B1F90E1000F0C8F839
S315200035700028ABBF636DA3891B1823F48053ACBF0F
S315200035806365A38110BD002070472DE9F0411F46D9
S315200035908B89DB0505460C46164605D5B1F90E1076
S315200035A00223002200F09AF8A389B4F90E1023F41E
S315200035B08053A38132463B462846BDE8F04100F0C1
S315200035C0B1B810B50C46B1F90E1000F087F8431CBF
S315200035D0A38915BF606523F4805343F48053A381E8
S315200035E018BFA38110BDB1F90E1000F009B802442E
S315200035F00346934200D1704703F8011BF9E7000008
S3152000360038B5064D0023044608462B6000F070FBB3
S31520003610431C02D12B6803B1236038BDACB0002017
S315200036202D4B1B68834270B5044653D0C3691BB328
S31520003630DB6863B10025E369DB685959B1B9043504
S31520003640802DF8D1E3692046D96800F07BF9E3693B
S31520003650196811B1204600F075F9E3699D685DB1DE
S31520003660294620462D6800F06DF9F8E70E682046B9
S3152000367000F068F93146E1E7616911B1204600F0B2
S3152000368061F9E16911B1204600F05CF9216B11B1B5
S31520003690204600F057F9616B11B1204600F052F92F
S315200036A0A16B11B1204600F04DF9A16C11B1204655
S315200036B000F048F9616C11B1204600F043F9E16A47
S315200036C011B1204600F03EF9236A1BB12046BDE821
S315200036D07040184770BD00BFD842002038B5074D4E
S315200036E004460846114600222A601A4600F008FBC6
S315200036F0431C02D12B6803B1236038BDACB0002037
S3152000370038B5074D04460846114600222A601A4657
S3152000371000F0FEFA431C02D12B6803B1236038BDAA
S31520003720ACB0002038B5074D0446084611460022A5
S315200037302A601A4600F002FB431C02D12B6803B113
S31520003740236038BDACB0002070B50D4D0D4C641B08
S31520003750A4100026A64209D10B4D0C4C00F0DCFC2F
S31520003760641BA4100026A64205D170BD55F8043B63
S3152000377098470136EEE755F8043B98470136F2E7BD
S315200037800000000000000000000000000000000013
S3152000379038B5074D074C641BA4101CB9BDE838404A
S315200037A000F0C0BC013C55F824309847F5E700BF2F
S315200037B00000000000000000704770477047704707
S315200037C07047704701207047012070477047704747
S315200037D02DE9F843274D0746286891460E46984618
S315200037E0FFF7EFFF244A14683CB9244B1360244AA0
S315200037F012B11268C3F88820204C63681F2B06DD9F
S315200038002868FFF7E4FF4FF0FF30BDE8F8832FB3B9
S31520003810D4F8880068B91B4B002BF1D04FF4847084
S31520003820AFF300800028EBD00023C0E94033C4F872
S315200038308800636840F8239001229A4000EB8301B8
S31520003840D0F800311343C0F80031022FC1F8808030
S3152000385002BFD0F804311343C0F8043163682868E6
S315200038605A1C0233626044F82360FFF7B0FF002041
S31520003870CBE700BF2C43002044B10020B8B0002085
S3152000388000000000000000002DE9F74FDFF8AC80B3
S315200038900190D8F80000DFF8A8900F46FFF791FFB7
S315200038A0D9F8005035B9D8F8000003B0BDE8F04F7C
S315200038B0FFF78DBF6C68D5F888B0661E013405EB1E
S315200038C084040BF1800A002EEDDB4FB1BBF1000F13
S315200038D002D1013E043CF6E75AF82620BA42F8D136
S315200038E0696822680139B14216BF00236E602360E1
S315200038F0002AEED06B680093BBF1000F07D0DBF8EF
S315200039000011012303FA06FC1CEA010F09D1904796
S315200039106968009BD9F800209942C1D19542D8D038
S31520003920BEE7DBF804015BF826101CEA000F02D183
S3152000393001989047ECE708469047E9E72C4300209A
S3152000394044B1002038B50546002941D051F8043C41
S315200039500C1F002BB8BFE41800F0E0F81D4A1368CE
S3152000396033B9636014602846BDE8384000F0DCB8FF
S31520003970A34208D9206821188B4201BF19685B68C9
S3152000398009182160EDE71A465B680BB1A342FAD904
S3152000399011685018A0420BD1206801445018834268
S315200039A01160E0D118685B68536008441060DAE75C
S315200039B002D90C232B60D6E7206821188B4204BF3E
S315200039C019685B68636004BF091821605460CAE700
S315200039D038BD00BF4CB1002070B50F4E0C46316883
S315200039E0054611B900F066F930602146284600F0F8
S315200039F061F9431C03D14FF0FF34204670BDC41C2F
S31520003A0024F00304A042F8D0211A284600F052F9E7
S31520003A100130F2D1EFE700BF48B100202DE9F8438D
S31520003A20CD1C25F0030508350C2D38BF0C25002D9F
S31520003A30064601DBA94204D90C2333600020BDE8E9
S31520003A40F883DFF8D48000F069F8D8F800301C46F7
S31520003A5044BB29463046FFF7BFFF431C044658D1D6
S31520003A60D8F800402746002F43D1002C4BD023689E
S31520003A703946304604EB030900F01CF9814542D152
S31520003A8021686D1A29463046FFF7A6FF01303AD045
S31520003A9023682B442360D8F800305A6862BBC8F8E4
S31520003AA000700FE02268521B20D40B2A17D9611907
S31520003AB0A342256018BF5960636808BFC8F8001084
S31520003AC062514B60304600F02FF804F10B00231DA5
S31520003AD020F00700C21A1CBF1B1AA350AFE762686A
S31520003AE0A3420CBFC8F800205A60EBE7234664685F
S31520003AF0AEE73C467F68B6E71A465B68A342FBD131
S31520003B0000235360DEE70C233360304600F00CF8C8
S31520003B1094E70560D6E700BF4CB100200148FFF7C7
S31520003B2050BE00BFB4B000200148FFF750BE00BF12
S31520003B30B4B00020B1F90C202DE9F0411607054656
S31520003B400C4654D44B68002B02DC0B6C002B48DD52
S31520003B50E66A002E45D0002312F480522F68216A8F
S31520003B602B6030D0626DA389590705D56368D21AB8
S31520003B70636B0BB1236CD21A0023E66A216A2846AE
S31520003B80B047431CA38906D129681D292BD82A4A68
S31520003B90CA40D60727D500226260D904226922604E
S31520003BA004D5421C01D12B6803B96065616B2F6077
S31520003BB0B9B104F14403994202D02846FFF7C2FE68
S31520003BC0002363630DE001232846B0470246501CBC
S31520003BD0C9D12B68002BC6D01D2B01D0162B1ED188
S31520003BE02F60002022E043F040031BB21BE00F6948
S31520003BF0002FF6D093070E6808BF4B690F6018BFD9
S31520003C000023A6EB07088B60B8F1000FE9DD216AD7
S31520003C10A66A43463A462846B047002808DCB4F947
S31520003C200C3043F04003A3814FF0FF30BDE8F08114
S31520003C300744A8EB0008E7E70100402038B50B69E8
S31520003C4005460C4613B90025284638BD18B1036A27
S31520003C500BB9FFF735FCB4F90C30002BF3D0626EAC
S31520003C60D00704D4990502D4A06DFFF7AAFD2846F3
S31520003C702146FFF75FFF636EDA070546E4D4A38982
S31520003C809B05E1D4A06DFFF7A2FDDDE7014620B933
S31520003C90044A05490548FFF747BC054B1868FFF756
S31520003CA0CDBF00BFCC4200203D3C0020DC4200209E
S31520003CB0D842002038B5064D0023044608462B601E
S31520003CC000F02EF8431C02D12B6803B1236038BDC7
S31520003CD0ACB000200A44914200F1FF3300D1704776
S31520003CE010B511F8014B03F8014F9142F9D110BDDF
S31520003CF0024B58221A604FF0FF307047ACB00020BC
S31520003D00024B58221A604FF0FF307047ACB00020AB
S31520003D10024B58221A604FF0FF307047ACB000209B
S31520003D20044A05491368002B08BF0B461844106047
S31520003D301846704750B1002054B10020024B58223B
S31520003D401A604FF0FF307047ACB00020FEE700BF8E
S31520003D502DE9F04786468C460846089E1546744649
S31520003D601946002B40F0C2808542B2FA82F245D92C
S31520003D704AB1C2F1200300FA02FC2EFA03F3954061
S31520003D8043EA0C0C94404FEA154EA8B2BCFBFEF851
S31520003D90230C0EFB18CC08FB00F943EA0C4399458B
S31520003DA028D9EB1808F1FF3704D2994502D9A8F192
S31520003DB002072B44A3EB0903A4B2B3FBFEFC0EFBC4
S31520003DC01C330CFB00F044EA0344A04214D92C19FE
S31520003DD00CF1FF3304D2A04202D9ACF102032C44E9
S31520003DE0241A43EA07401EB1D4400023346073608E
S31520003DF0BDE8F0874746DDE76346F1E792BB431B04
S31520003E0001214FEA154EAFB2B3FBFEFC200C0EFB90
S31520003E101C330CFB07F840EA0343984562D9EB189C
S31520003E200CF1FF3004D2984502D9ACF102002B44A4
S31520003E30A3EB0803A4B2B3FBFEFC0EFB1C330CFB66
S31520003E4007F744EA0344A7424ED92C190CF1FF3355
S31520003E5004D2A74202D9ACF102032C44E41B43EA64
S31520003E600040C0E7C2F1200320FA03F195409040BC
S31520003E702EFA03F303434FEA154EAFB2B1FBFEFC15
S31520003E800EFB1C10190C0CFB07F841EA0041884573
S31520003E9004FA02F422D969180CF1FF3004D28845BD
S31520003EA002D9ACF102002944A1EB08019BB2B1FB77
S31520003EB0FEFC0EFB1C110CFB07F743EA01439F4255
S31520003EC00ED9EB180CF1FF3104D29F4202D9ACF186
S31520003ED002012B44DB1B41EA004192E76046E3E7FF
S31520003EE06146F7E76046A3E76346B7E7834206D90C
S31520003EF016B9002108467BE7C6E900E0F9E7B3FAE0
S31520003F0083F78FB9834201D3724508D8BEEB0204EA
S31520003F1060EB030301209C461EB9002168E7384662
S31520003F20FAE7C6E9004CF8E7C7F1200CBB4022FAB5
S31520003F300CF41C432EFA0CF120FA0CF3B840014382
S31520003F404FEA14490EFA07F5B3FBF9F81FFA84FE77
S31520003F5009FB18300B0C08FB0EFA43EA00439A457E
S31520003F6002FA07F240D9E31808F1FF3004D29A4545
S31520003F7002D9A8F102002344A3EB0A0389B2B3FBBA
S31520003F80F9F809FB183308FB0EFE41EA03418E457A
S31520003F902CD9611808F1FF3304D28E4502D9A8F135
S31520003FA00203214443EA0040A0FB0298A1EB0E0144
S31520003FB04145CE46434602D306D14D4504D2B9EB00
S31520003FC0020E68EB04030138002EA6D0B5EB0E02D4
S31520003FD061EB030101FA0CFC22FA07F34CEA030316
S31520003FE0F940C6E9003198E74046C5E74346D9E798
S31520003FF00000000001020304010203040607080969
S31520004000000000000000F03F0000000000002440F7
S3152000401000000000000059400000000000408F40D2
S31520004020000000000088C34000000000006AF8403D
S315200040300000000080842E4100000000D012634161
S315200040400000000084D797410000000065CDCD41D7
S31520004050370000003E410C411141274136410341C2
S31520004060064115410F410E41264113412941024186
S3152000407019410A410B410000666E692B00666E6984
S31520004080006E616E00666E692D007461736B206D23
S31520004090656C6F647920737061776E65640049443E
S315200040A04C452074696D653A20256C75004861720F
S315200040B0647761726520626567696E0A0D004861E2
S315200040C072647761726520646F6E650A0D004241E5
S315200040D0434B47524F554E44004D454C4F44590093
S315200040E049444C4500546D725100546D72205376EC
S315200040F063003E410C4111412741364103410641AF
S3152000410015410F410E4126411341294102411941D2
S30D200041100A410B4100000000EA
S31120004118F8B500BFF8BC08BC9E467047F6
S31120004124F8B500BFF8BC08BC9E467047EA
S309200041300000000065
S30D20004134E4BEFF7F010000003C
S3152000413CFCBF0120B12D0020F92D0020F92D0020E7
S3152000414CF92D0020F92D0020F92D0020000000006B
S3152000415C000000000000000000000000ED0300201D
S3152000416CF92D0020000000002506002085060020E1
S3152000417CF92D0020F92D0020F92D0020F92D0020F5
S3152000418CF92D0020F92D0020F92D0020F92D0020E5
S3152000419CF92D0020F92D0020F92D0020F92D0020D5
S315200041ACF92D0020F92D0020F92D0020F92D0020C5
S315200041BCF92D0020F92D0020F92D0020F92D0020B5
S315200041CCF92D0020F92D0020F92D0020F92D0020A5
S315200041DCF92D0020F92D0020F92D0020F92D002095
S315200041ECF92D0020F92D0020F92D0020F92D002085
S315200041FCF92D0020F92D0020F92D0020F92D002075
S3152000420CF92D0020F92D0020F92D0020F92D002064
S3152000421CF92D0020F92D0020F92D0020F92D002054
S3152000422CF92D0020F92D0020F92D0020F92D002044
S3152000423CF92D0020F92D0020F1070020F92D002062
S3152000424CF92D0020F92D0020F92D0020F92D002024
S3152000425CF92D0020F92D0020F92D0020F92D002014
S3152000426CF92D0020F92D0020F92D0020F92D002004
S3152000427CF92D0020F92D0020F92D0020F92D0020F4
S3152000428CF92D0020F92D0020F92D0020F92D0020E4
S3152000429CF92D0020F92D0020F92D0020F92D0020D4
S315200042ACF92D0020F92D0020F92D0020F92D0020C4
S30D200042BCF92D0020F92D002048
S315200042C4AAAAAAAA00000000000000000300000019
S315200042D470AF0020DC4200200000000070AF0020F8
S315200042E4D8AF002040B000200000000000000000ED
S315200042F40000000000000000000000000000000094
S315200043040000000000000000000000000000000083
S315200043140000000000000000000000000000000073
S311200043240000000089380020B6B0002000
S30920004330952D002081
S30920004334712D0020A1
S70520000000DA
