S02B00002F686F6D652F73696D6F6E2F4D542D432F4D443430372D6D656C6F64792F44656275672F4D4434301B
S3152000000000BFDFF810D008F059FB08F045FC08F0D7
S3152000001063BBFEE700C00120A3F5803A704700BF0E
S31520000020154B002B08BF114B9D46FFF7F5FF00210E
S315200000308B460F461148124A121A09F054FF0C4BF0
S31520000040002B00D098470B4B002B00D09847002060
S31520000050002104000D000B4809F0A0FD09F0E8FF7F
S315200000602000290008F018FC09F09EFD0000080079
S31520000070000000000000000000000000D0A90020C1
S315200000802CA5012079A0002054A9002054A90020E5
S31520000090C4A90020D0A900202CA501200E49D1F802
S315200000A0883043F47003C1F888300C4B1A6842F04C
S315200000B001021A60002098601A6822F0847222F4E5
S315200000C080321A60064A5A601A6822F480221A6020
S315200000D0D860044B8B60704700ED00E0003802408A
S315200000E01030002400C00120224B9B6803F00C0333
S315200000F0042B11D0082B13D0002B37D11E4B1F4AAF
S315200001001A601C4B9B68C3F303131D4AD15C1A4A21
S315200001101368CB4013607047174B1A4A1A60F0E7F2
S31520000120144B59685A6802F03F0211F4800F13D01D
S31520000130144BB3FBF2F30F4A5268C2F3881202FB48
S3152000014003F30C4A5268C2F3014201325200B3FB58
S31520000150F2F3094A1360D4E7084BB3FBF2F3054ADE
S315200001605268C2F3881202FB03F3EAE7024B034A02
S315200001701A60C6E70038024054A900200024F40083
S3152000018034A6002000127A001AB9084205D110467A
S315200001907047814303D0002070470120704701201B
S315200001A0704780B110B582B004461C230193019B91
S315200001B01C2B11D04FF0100383F31188BFF36F8FE0
S315200001C0BFF34F8FFEE74FF0100383F31188BFF381
S315200001D06F8FBFF34F8FFEE7002340F8043B00F0FC
S315200001E0B8F9204602B010BD88B12DE9F0410C4681
S315200001F016461D460746B1F1807F11D34FF01003F6
S3152000020083F31188BFF36F8FBFF34F8FFEE74FF055
S31520000210100383F31188BFF36F8FBFF34F8FFEE771
S3152000022041B94FF0100383F31188BFF36F8FBFF3EB
S315200002304F8FFEE703F0D4F850B9069B43B14FF039
S31520000240100383F31188BFF36F8FBFF34F8FFEE741
S3152000025002F0A4FAD7F800802A4621464046FFF746
S3152000026093FFF8B18EB328EA04033B60002306937C
S3152000027002F0D0FB069B93B148B94FF0E0234FF034
S315200002808052C3F8042DBFF34F8FBFF36F8F03F057
S31520000290D7F9804610F0007F1AD028F07F484046D4
S315200002A0BDE8F081069B002BE2D05EB900210DB19E
S315200002B041F08061069A2143381D02F0C7FD4FF0B8
S315200002C00008D5E74FF08071F1E700230693CFE7CA
S315200002D004F050F9D7F800802A4621464046FFF719
S315200002E053FF18B116B128EA04043C6004F064F9FF
S315200002F0D3E770B170B50C460546B1F1807F11D3B6
S315200003004FF0100383F31188BFF36F8FBFF34F8F26
S31520000310FEE74FF0100383F31188BFF36F8FBFF30F
S315200003204F8FFEE704F026F92E6826EA04042C6097
S3152000033004F042F9304670BDEFF311834FF01002FE
S3152000034082F31188BFF36F8FBFF34F8F006883F35B
S3152000035011887047F8B568B10D460446B1F1807F23
S3152000036011D34FF0100383F31188BFF36F8FBFF3C0
S315200003704F8FFEE74FF0100383F31188BFF36F8F83
S31520000380BFF34F8FFEE700F10C0602F007FA206953
S3152000039023682B43236000270AE0216832EA010103
S315200003A005D111E0216841F0007102F035FE2846A2
S315200003B0B0420ED04568036823F07F4213F0806F69
S315200003C0EBD121681142F2D013F0807FEAD0174397
S315200003D0E8E7236823EA0703236002F01BFB206873
S315200003E0F8BDB2F1807F08D34FF0100383F3118854
S315200003F0BFF36F8FBFF34F8FFEE72DE9F04107461E
S315200004000D4614461E4642B94FF0100383F3118859
S31520000410BFF36F8FBFF34F8FFEE702F0E1FF48B9BE
S3152000042046B14FF0100383F31188BFF36F8FBFF3EC
S315200004304F8FFEE702F0B2F9D7F8008029463846FA
S31520000440FFF788FF48EA050534EA05031AD0FEB906
S315200004503D6802F0DFFA96B148B94FF0E0234FF03D
S315200004608052C3F8042DBFF34F8FBFF36F8F03F075
S31520000470E7F8054610F0007F12D025F07F45284684
S31520000480BDE8F0813B6823EA04033B600026E0E7F1
S31520000490324644F0A061381D02F0D8FC0025D8E78A
S315200004A004F068F83D6834EA050302D004F084F8C5
S315200004B0E3E725EA04043C60F8E778B110B5044682
S315200004C002F06CF96368DBB1206904F10C039842F1
S315200004D00DD04FF0007102F09FFDF3E74FF01003AF
S315200004E083F31188BFF36F8FBFF34F8FFEE74FF073
S315200004F0100383F31188BFF36F8FBFF34F8FFEE78F
S3152000050002F088FA10BD18B159B108600120704771
S315200005104FF0100383F31188BFF36F8FBFF34F8F14
S31520000520FEE74FF0100383F31188BFF36F8FBFF3FD
S315200005304F8FFEE708B5FFF70DFF08BD08B5FFF79B
S31520000540D8FE08BD08B180697047002070478161D8
S31520000550704700F1080343604FF0FF328260C360AA
S3152000056003610023036070470023036170474368DB
S315200005704B609A688A60516099600861036801330C
S315200005800360704730B40D68B5F1FF3F11D000F11C
S3152000059008031C465B681A68AA42FAD963684B604E
S315200005A099608C606160086103680133036030BC28
S315200005B070470469F2E70369416882688A60416886
S315200005C051605A68824206D0002202611A68013AB6
S315200005D01A601868704782685A60F5E70346406AD1
S315200005E018B11B6B1868C0F13800704710B5044667
S315200005F003F0C0FFA26BE36B9A4204D0002403F001
S31520000600DBFF204610BD0124F9E710B5044603F0B0
S31520000610B1FFA36B23B9012403F0CEFF204610BD02
S315200006200024F9E770B504461546866B026C5AB964
S3152000063003681BB100200136A66370BD806802F0F6
S3152000064041FF0023A360F6E76DB9406809F034FD49
S315200006506368226C13446360A268934219D32368AB
S3152000066063602846E7E7C06809F026FDE368226C48
S3152000067051429B1AE3602268934202D2A3680B443C
S31520000680E360022D01D00020D5E726B1013E0020EF
S31520000690D1E72846CFE70020CDE70346026C6AB1B2
S315200006A010B50846D9681144D9609C68A14201D387
S315200006B01968D960D96809F0FFFC10BD704738B5B4
S315200006C0054603F057FF95F8454064B201E0013C2A
S315200006D064B2002C0ADD6B6A43B105F1240002F0F6
S315200006E01FFC0028F3D002F071FDF0E7FF2385F808
S315200006F0453003F061FF03F03DFF95F8444064B2B6
S3152000070001E0013C64B2002C0ADD2B6943B105F1FE
S31520000710100002F005FC0028F3D002F057FDF0E7A8
S31520000720FF2385F8443003F047FF38BD38B590B134
S315200007300D460446C36B2BB1026C0021A2FB03239A
S3152000074093B999B14FF0100383F31188BFF36F8FDC
S31520000750BFF34F8FFEE74FF0100383F31188BFF3EB
S315200007606F8FBFF34F8FFEE70121EAE703F002FF09
S315200007702368E26B216C01FB0230A0600020A0639D
S315200007806360013A02FB0133E360FF2384F84430BF
S3152000079084F84530B5B923691BB903F00DFF012054
S315200007A038BD04F1100002F0BBFB0028F5D04FF055
S315200007B0E0234FF08052C3F8042DBFF34F8FBFF3D1
S315200007C06F8FEAE704F11000FFF7C3FE04F124005F
S315200007D0FFF7BFFEE1E738B51D46049C0B4649B935
S315200007E02460E063236401212046FFF79FFF84F8FD
S315200007F04C5038BD2260F4E773B110B584B01C4666
S3152000080008B192B199B94FF0100383F31188BFF361
S315200008106F8FBFF34F8FFEE74FF0100383F31188DE
S31520000820BFF36F8FBFF34F8FFEE70029EBD1502325
S315200008300393039B502B08D04FF0100383F31188AA
S31520000840BFF36F8FBFF34F8FFEE7039B00949DF896
S315200008501830FFF7C0FF204604B010BD034630B164
S3152000086072B109B1006808601360012070474FF02B
S31520000870100383F31188BFF36F8FBFF34F8FFEE70B
S315200008804FF0100383F31188BFF36F8FBFF34F8FA1
S31520000890FEE750B110B5044603F06CFE23686BB931
S315200008A0A46803F089FE204610BD4FF0100383F3A1
S315200008B01188BFF36F8FBFF34F8FFEE70024F0E759
S315200008C018B1026852B9806870474FF0100383F35D
S315200008D01188BFF36F8FBFF34F8FFEE7002070475D
S315200008E010B582B010B10C46884208D24FF01003E2
S315200008F083F31188BFF36F8FBFF34F8FFEE7022379
S315200009000093134600221146FFF776FF00B1846359
S3152000091002B010BDF0B585B0019288B10F461D46D4
S315200009200446B1B1022D20D1E36B012B1DD04FF02F
S31520000930100383F31188BFF36F8FBFF34F8FFEE74A
S315200009404FF0100383F31188BFF36F8FBFF34F8FE0
S31520000950FEE7036C002BE5D04FF0100383F31188DC
S31520000960BFF36F8FBFF34F8FFEE702F039FD0646C8
S3152000097058B9019B002B48D04FF0100383F3118800
S31520000980BFF36F8FBFF34F8FFEE700263DE02A4669
S3152000099039462046FFF746FE636A7BB948B14FF0D9
S315200009A0E0234FF08052C3F8042DBFF34F8FBFF3DF
S315200009B06F8F03F001FE012005B0F0BD04F1240085
S315200009C002F0AEFA0028F4D04FF0E0234FF0805228
S315200009D0C3F8042DBFF34F8FBFF36F8FE9E703F002
S315200009E0EBFD0020E8E702A802F0A2FB012619E0B1
S315200009F0002384F8443021E0002384F8453023E0A6
S31520000A002046FFF75CFE02F005F803F0B3FDA26B6B
S31520000A10E36B9A42BBD3022DB9D0019B002BDED0CB
S31520000A20002EE0D003F0C8FD01F0B8FE03F0A2FDD1
S31520000A3094F8442052B2B2F1FF3FD9D094F8452021
S31520000A4052B2B2F1FF3FD7D003F0B6FD01A902A8FA
S31520000A5002F078FBD8B92046FFF7C8FD0028CFD092
S31520000A60019904F1100002F0D7F92046FFF727FE7E
S31520000A7001F0D0FF0028C8D14FF0E0234FF080527C
S31520000A80C3F8042DBFF34F8FBFF36F8FBDE720460A
S31520000A90FFF715FE01F0BEFF00208DE748B108B52F
S31520000AA0002181600160C1600B460A46FFF732FFD4
S31520000AB008BD704710B582B00B4600900022114643
S31520000AC00120FFF799FE0446FFF7E8FF204602B013
S31520000AD010BD38B538B10446856802F071FC8542F0
S31520000AE00AD0002038BD4FF0100383F31188BFF3DE
S31520000AF06F8FBFF34F8FFEE7E368013BE3600BB1D7
S31520000B000120EFE71A4619462046FFF703FF01208A
S31520000B10E8E72DE9F84390B10F4616461C460546F0
S31520000B20B1B1022C20D1EB6B012B1DD04FF010035D
S31520000B3083F31188BFF36F8FBFF34F8FFEE74FF01C
S31520000B40100383F31188BFF36F8FBFF34F8FFEE738
S31520000B50036C002BE5D04FF0100383F31188BFF30D
S31520000B606F8FBFF34F8FFEE703F01AFEEFF3118866
S31520000B704FF0100383F31188BFF36F8FBFF34F8FAE
S31520000B80AA6BEB6B9A4206D3022C04D0002088F382
S31520000B901188BDE8F88395F845904FFA89F9AB6B33
S31520000BA0224639462846FFF73DFDB9F1FF3F0CD1D5
S31520000BB06B6A0BB90120EAE705F1240002F0B0F9CF
S31520000BC0D0B1DEB101203060E1E701F001FE8145C0
S31520000BD016D2B9F17F0F06D009F101035BB285F871
S31520000BE045300120D3E74FF0100383F31188BFF37C
S31520000BF06F8FBFF34F8FFEE70120C8E70120C6E7BE
S31520000C000120C4E7F8B560B10D460446036C8BB1EC
S31520000C104FF0100383F31188BFF36F8FBFF34F8F0D
S31520000C20FEE74FF0100383F31188BFF36F8FBFF3F6
S31520000C304F8FFEE70368DBB103F0B2FDEFF31186B9
S31520000C404FF0100383F31188BFF36F8FBFF34F8FDD
S31520000C50A36BE26B9A4235D994F845707FB2013383
S31520000C60A363B7F1FF3F18D1636A6BB901202AE06D
S31520000C708368002BE0D04FF0100383F31188BFF375
S31520000C806F8FBFF34F8FFEE704F1240002F048F97F
S31520000C90E0B1EDB10120286015E001F099FD874211
S31520000CA018D27F2F05D07B1C5BB284F845300120FB
S31520000CB009E04FF0100383F31188BFF36F8FBFF362
S31520000CC04F8FFEE7002086F31188F8BD0120FAE752
S31520000CD00120F8E70120F6E7F0B585B0019290B142
S31520000CE00F460446C1B102F07BFB064600BB019BC2
S31520000CF0002B5ED04FF0100383F31188BFF36F8F64
S31520000D00BFF34F8FFEE74FF0100383F31188BFF335
S31520000D106F8FBFF34F8FFEE7036C002BE3D04FF0AE
S31520000D20100383F31188BFF36F8FBFF34F8FFEE756
S31520000D3000263EE039462046FFF7AFFC013DA5637D
S31520000D40236923B903F038FC012005B0F0BD04F176
S31520000D50100002F0E5F80028F4D04FF0E0234FF021
S31520000D608052C3F8042DBFF34F8FBFF36F8FE9E78F
S31520000D7003F022FC0020E8E702A802F0D9F90126B8
S31520000D8021E0002384F8443029E0002384F845300C
S31520000D902BE02046FFF793FC01F03CFE09E02046BD
S31520000DA0FFF78DFC01F036FE2046FFF72EFC0028CB
S31520000DB03FD103F0DFFBA56B002DBBD1019B002BA0
S31520000DC0D6D0002ED8D003F0F7FB01F0E7FC03F0D5
S31520000DD0D1FB94F844305BB2B3F1FF3FD1D094F805
S31520000DE045305BB2B3F1FF3FCFD003F0E5FB01A95D
S31520000DF002A802F0A7F90028D1D12046FFF705FC6A
S31520000E000028C6D0019904F1240002F005F82046F6
S31520000E10FFF755FC01F0FEFD0028CAD14FF0E02374
S31520000E204FF08052C3F8042DBFF34F8FBFF36F8F5F
S31520000E30BFE7002089E770B584B0019158B1044618
S31520000E40036C8BB14FF0100383F31188BFF36F8FC0
S31520000E50BFF34F8FFEE74FF0100383F31188BFF3E4
S31520000E606F8FBFF34F8FFEE702F0BAFA054650B9EF
S31520000E70019B5BB14FF0100383F31188BFF36F8F93
S31520000E80BFF34F8FFEE7002635464BE0064649E086
S31520000E90013BA363236833B1236943B903F08CFB79
S31520000EA0012004B070BD02F0DBFBA060F4E704F182
S31520000EB0100002F035F80028F0D04FF0E0234FF074
S31520000EC08052C3F8042DBFF34F8FBFF36F8FE5E732
S31520000ED003F072FB0020E4E702A802F029F90125BD
S31520000EE02AE0002384F8443032E0002384F8453099
S31520000EF034E003F03FFBA06802F082FA064603F0D6
S31520000F005BFB3BE02046FFF7DAFB01F083FD09E0BF
S31520000F102046FFF7D4FB01F07DFD2046FFF775FB49
S31520000F20002842D103F026FBA36B002BB0D1019BF6
S31520000F30002BCDD0002DCFD003F03EFB01F02EFCB0
S31520000F4003F018FB94F844305BB2B3F1FF3FC8D0EE
S31520000F5094F845305BB2B3F1FF3FC6D003F02CFBCB
S31520000F6001A902A802F0EEF80028D1D12046FFF709
S31520000F704CFB0028C6D02368002BBAD0019904F177
S31520000F80240001F049FF2046FFF799FB01F042FDBE
S31520000F900028C7D14FF0E0234FF08052C3F8042D2C
S31520000FA0BFF34F8FBFF36F8FBCE70EB9002078E7F2
S31520000FB003F0E0FA2046FFF711FB0146A06802F095
S31520000FC0DBFA03F0F9FAF1E780B170B50C46054675
S31520000FD0866802F0F5F9864211D021462846FFF7A9
S31520000FE02AFF80B1EB680133EB600CE04FF0100371
S31520000FF083F31188BFF36F8FBFF34F8FFEE7EB6844
S315200010000133EB60012070BD70B584B0019290B1C0
S315200010100E460446C1B102F0E3F9054600BB019B2A
S31520001020002B5ED04FF0100383F31188BFF36F8F30
S31520001030BFF34F8FFEE74FF0100383F31188BFF302
S315200010406F8FBFF34F8FFEE7036C002BE3D04FF07B
S31520001050100383F31188BFF36F8FBFF34F8FFEE723
S3152000106000253EE0E56831462046FFF716FBE560A1
S31520001070636A23B903F0A0FA012004B070BD04F11D
S31520001080240001F04DFF0028F4D04FF0E0234FF06C
S315200010908052C3F8042DBFF34F8FBFF36F8FE9E75C
S315200010A003F08AFA0020E8E702A802F041F80125B9
S315200010B021E0002384F8443029E0002384F84530D9
S315200010C02BE02046FFF7FBFA01F0A4FC09E02046BE
S315200010D0FFF7F5FA01F09EFC2046FFF796FA002866
S315200010E03FD103F047FAA36B002BBBD1019B002B0A
S315200010F0D6D0002DD8D003F05FFA01F04FFB03F0D5
S3152000110039FA94F844305BB2B3F1FF3FD1D094F86A
S3152000111045305BB2B3F1FF3FCFD003F04DFA01A9C2
S3152000112002A802F00FF80028D1D12046FFF76DFA69
S315200011300028C6D0019904F1240001F06DFE204656
S31520001140FFF7BDFA01F066FC0028CAD14FF0E02374
S315200011504FF08052C3F8042DBFF34F8FBFF36F8F2C
S31520001160BFE7002089E72DE9F843B0B10E46904647
S315200011700446D9B103F014FBEFF311854FF01003A9
S3152000118083F31188BFF36F8FBFF34F8FA76BCFB950
S31520001190002085F31188BDE8F8834FF0100383F310
S315200011A01188BFF36F8FBFF34F8FFEE7036C002BC1
S315200011B0E0D04FF0100383F31188BFF36F8FBFF396
S315200011C04F8FFEE794F844904FFA89F9314620462E
S315200011D0FFF763FA7B1EA363B9F1FF3F0FD12369A3
S315200011E00BB90120D5E704F1100001F099FEE8B112
S315200011F0B8F1000F1CD00120C8F80000C9E701F0A3
S31520001200E7FA814516D2B9F17F0F06D009F101031D
S315200012105BB284F844300120BBE74FF0100383F320
S315200012201188BFF36F8FBFF34F8FFEE70120B0E722
S315200012300120AEE70120ACE7F8B568B10D460446BB
S3152000124099B1236CEBB94FF0100383F31188BFF3E8
S315200012506F8FBFF34F8FFEE74FF0100383F3118894
S31520001260BFF36F8FBFF34F8FFEE7036C002BE8D0E1
S315200012704FF0100383F31188BFF36F8FBFF34F8FA7
S31520001280FEE703F08DFAEFF311864FF0100383F398
S315200012901188BFF36F8FBFF34F8FA36B1BB900204D
S315200012A086F31188F8BDE76829462046FFF7F5F949
S315200012B0E7600120F4E740B110B5044603F05AF97F
S315200012C0A46B03F079F9204610BD4FF0100383F389
S315200012D01188BFF36F8FBFF34F8FFEE738B548B144
S315200012E0054603F047F9EC6BAB6BE41A03F064F99F
S315200012F0204638BD4FF0100383F31188BFF36F8F5C
S31520001300BFF34F8FFEE708B1806B70474FF0100395
S3152000131083F31188BFF36F8FBFF34F8FFEE7806C87
S3152000132070478164704790F84C007047006C704796
S31520001330C06B704718B1836B53B9012070474FF0CB
S31520001340100383F31188BFF36F8FBFF34F8FFEE730
S315200013500020704728B1826BC36B9A420AD00020C6
S3152000136070474FF0100383F31188BFF36F8FBFF3DD
S315200013704F8FFEE70120704728B110B4044631B3E1
S31520001380002003460DE04FF0100383F31188BFF3CE
S315200013906F8FBFF34F8FFEE70E4800EBC30014E0BC
S315200013A00133072B10D80B4A02EBC3025268A24224
S315200013B0F2D00028F4D1074A52F83320002AEFD180
S315200013C0044800EBC300EBE708B1016044605DF818
S315200013D0044B7047D0A90020014650B10023072BAB
S315200013E014D80B4A02EBC30252688A420AD0013350
S315200013F0F5E74FF0100383F31188BFF36F8FBFF328
S315200014004F8FFEE7024A52F833007047002070479C
S31520001410D0A90020014650B10023072B18D80D4A29
S3152000142002EBC30252688A420AD00133F5E74FF035
S31520001430100383F31188BFF36F8FBFF34F8FFEE73F
S31520001440044A002142F8331002EBC3025160704770
S31520001450704700BFD0A9002008B510B1FFF7DAFF0A
S3152000146008BD4FF0100383F31188BFF36F8FBFF3CE
S315200014704F8FFEE770B504460D46164603F07AF800
S3152000148094F844305BB2B3F1FF3F0DD094F8453069
S315200014905BB2B3F1FF3F0BD003F08EF8A36B5BB1C9
S315200014A02046FFF70CF970BD002384F84430EDE7A1
S315200014B0002384F84530EFE73246294604F124001C
S315200014C001F000FDECE700BF826843681344006822
S315200014D0181A824200D8801A7047F8B507460C467B
S315200014E016461D465521204608F0FDFC844208D0AC
S315200014F04FF0100383F31188BFF36F8FBFF34F8F25
S31520001500FEE728220021384608F0EDFCBC61BE60CB
S31520001510FD609DF818303B77F8BD42B94FF01003B7
S3152000152083F31188BFF36F8FBFF34F8FFEE72DE94B
S31520001530F041064688461C46174683681D1B954281
S3152000154028BF15466219934208D24FF0100383F341
S315200015501188BFF36F8FBFF34F8FFEE780692A464E
S31520001560204408F0A9FDAF4211D97A1BB3689A42EC
S3152000157008D94FF0100383F31188BFF36F8FBFF3A1
S315200015804F8FFEE708EB0501B06908F095FD381985
S31520001590B268824200D8801ABDE8F081F0B583B0E7
S315200015A005460F4616461C464368027F12F0010F79
S315200015B00DD00196089A944201D200240BE0042211
S315200015C00DEB0201FFF7A9FF0346344602E0B442C1
S315200015D028BF344614B9204603B0F0BD224639460A
S315200015E02846FFF79AFF6860F5E742B94FF01003E7
S315200015F083F31188BFF36F8FBFF34F8FFEE72DE97B
S31520001600F041064688461C46174683681D1B9542B0
S3152000161028BF15466219934208D24FF0100383F370
S315200016201188BFF36F8FBFF34F8FFEE781692A467C
S315200016302144404608F040FDAF4206D83819B36829
S31520001640834200D8C01ABDE8F0817A1BB16908EB45
S31520001650050008F031FDF1E7F0B583B005460F46E9
S3152000166016461C460368027F12F0010F06D1B442CB
S3152000167028BF344684B9204603B0F0BD04220DEBC2
S315200016800201FFF7B2FF0346019A043C964201D3BA
S315200016901646ECE70026EAE7224639462846FFF7B3
S315200016A0A4FF2860E7E77BB100B587B09C46089B7E
S315200016B09BB181421AD94FF0100383F31188BFF3EF
S315200016C06F8FBFF34F8FFEE74FF0100383F3118820
S315200016D0BFF36F8FBFF34F8FFEE74FF0100383F3F7
S315200016E01188BFF36F8FBFF34F8FFEE701B901213A
S315200016F052B1042817D84FF0100383F31188BFF393
S315200017006F8FBFF34F8FFEE7022228230593059B99
S31520001710282B0AD04FF0100383F31188BFF36F8F65
S31520001720BFF34F8FFEE70322EFE70A9B0293099B45
S31520001730019300920B46024661460898FFF7CDFEBC
S31520001740089B1B7F43F00203089A1377104607B0C5
S315200017505DF804FB034650B191B1D2B1007F10F081
S31520001760020F1FD0986908601360012070474FF060
S31520001770100383F31188BFF36F8FBFF34F8FFEE7FC
S315200017804FF0100383F31188BFF36F8FBFF34F8F92
S31520001790FEE74FF0100383F31188BFF36F8FBFF37B
S315200017A04F8FFEE70020704708B578B1027F12F010
S315200017B0020F14D1B0F1FF3F15D04FF0100383F381
S315200017C01188BFF36F8FBFF34F8FFEE74FF01003E3
S315200017D083F31188BFF36F8FBFF34F8FFEE7282265
S315200017E0002108F080FB08BD68B130B585B00446FD
S315200017F0056A02F0BFFE236973B1002402F0DCFE05
S31520001800204605B030BD4FF0100383F31188BFF397
S315200018106F8FBFF34F8FFEE763690BB10024EDE7AF
S3152000182002930193237F0093E368A268A16920466F
S31520001830FFF753FE25620124E0E7034638B101B9DC
S3152000184001219A688A420BD9D960012070474FF04E
S31520001850100383F31188BFF36F8FBFF34F8FFEE71B
S3152000186000207047034680B110B419689A6818683A
S3152000187010445C68001B1C688C42F6D101388242F9
S3152000188000D8801A5DF8044B70474FF0100383F39D
S315200018901188BFF36F8FBFF34F8FFEE708B510B1E6
S315200018A0FFF712FE08BD4FF0100383F31188BFF334
S315200018B06F8FBFF34F8FFEE72DE9F04186B003937C
S315200018C0A9B1044616468846D0B18768013F037FF2
S315200018D013F0010F23D0131D9A421AD34FF0100391
S315200018E083F31188BFF36F8FBFF34F8FFEE74FF05F
S315200018F0100383F31188BFF36F8FBFF34F8FFEE77B
S315200019004FF0100383F31188BFF36F8FBFF34F8F10
S31520001910FEE79F4230D2002203921F4602E0BA42DF
S3152000192000D81746039B002B34D004A801F0E6FB11
S3152000193002F020FE2046FFF795FF0546874226D96E
S31520001940616A002002F0B6F96369BBB901F038FD7F
S31520001950606102F031FE039B009300231A4619466C
S31520001960606A01F0F3FE0023636103A904A801F075
S31520001970E9FB0028DCD00CE01F46D3E74FF010032C
S3152000198083F31188BFF36F8FBFF34F8FFEE702F00B
S3152000199013FE1DB92046FFF765FF054600972B4627
S315200019A0324641462046FFF7F9FD054618B9284636
S315200019B006B0BDE8F0812046FFF786FDE368984231
S315200019C0F5D300F0EBFE236943B12069002600968B
S315200019D033463246616A01F037FF266101F01AF874
S315200019E0E5E7F1B12DE9F04182B0044615461E46E1
S315200019F00F46F8B1037F13F0010F24D002F104083B
S31520001A002046FFF72FFF0346CDF800802A463946A9
S31520001A102046FFF7C3FD0546B8B9284602B0BDE803
S31520001A20F0814FF0100383F31188BFF36F8FBFF35C
S31520001A304F8FFEE74FF0100383F31188BFF36F8FAC
S31520001A40BFF34F8FFEE79046DAE72046FFF73CFDCF
S31520001A50E3689842E1D3EFF311874FF0100383F345
S31520001A601188BFF36F8FBFF34F8F23694BB1206966
S31520001A7001960026009633463246616A01F0A2FF9F
S31520001A80266187F31188C8E731B32DE9F04383B087
S31520001A90044617461E46884638B3037F13F0010FC7
S31520001AA02CD04FF00409002E40D002F063FD2046D2
S31520001AB0FFF70AFD0546814526D3616A002002F01C
S31520001AC0F9F82369EBB14FF0100383F31188BFF3C4
S31520001AD06F8FBFF34F8FFEE74FF0100383F311880C
S31520001AE0BFF36F8FBFF34F8FFEE74FF0100383F3E3
S31520001AF01188BFF36F8FBFF34F8FFEE74FF00009BA
S31520001B00D1E701F05DFC206102F056FDA94511D315
S31520001B10009600231A461946606A01F017FE002334
S31520001B2023612046FFF7D0FC054603E02046FFF759
S31520001B30CBFC05464D4504D80025284603B0BDE814
S31520001B40F0832B463A4641462046FFF785FD05465B
S31520001B500028F2D000F022FE636943B160690026B6
S31520001B60009633463246616A01F06EFE666100F0E9
S31520001B7051FFE2E748B110B582B00446037F13F067
S31520001B80010F0BD1002002B010BD4FF0100383F3DC
S31520001B901188BFF36F8FBFF34F8FFEE7FFF794FCDB
S31520001BA004280AD80028EED04FF0100383F31188BA
S31520001BB0BFF36F8FBFF34F8FFEE7236804220DEB31
S31520001BC002012046FFF711FD0198DCE7B9B12DE9A6
S31520001BD0F04182B0044616461D460F46C0B1037F2B
S31520001BE013F0010F1DD04FF004082046FFF76CFCC0
S31520001BF0804519D30026304602B0BDE8F0814FF06B
S31520001C00100383F31188BFF36F8FBFF34F8FFEE767
S31520001C104FF0100383F31188BFF36F8FBFF34F8FFD
S31520001C20FEE74FF00008E0E70346324639462046F5
S31520001C30FFF712FD06460028DDD0EFF311874FF09F
S31520001C40100383F31188BFF36F8FBFF34F8F636940
S31520001C504BB160690195002500952B462A46616A9D
S31520001C6001F0B0FE656187F31188C4E728B10268E8
S31520001C70436893420AD0002070474FF0100383F345
S31520001C801188BFF36F8FBFF34F8FFEE70120704798
S31520001C9068B110B50346027F12F0010F10D004245C
S31520001CA01846FFF7DFFDA0420CD8012010BD4FF0EB
S31520001CB0100383F31188BFF36F8FBFF34F8FFEE7B7
S31520001CC00024EDE70020F1E7E8B170B582B00546C3
S31520001CD0EFF311844FF0100383F31188BFF36F8F56
S31520001CE0BFF34F8F0369BBB10069019100260096AF
S31520001CF033463246696A01F065FE2E61012084F37F
S31520001D00118802B070BD4FF0100383F31188BFF322
S31520001D106F8FBFF34F8FFEE70020F0E7E8B170B575
S31520001D2082B00546EFF311844FF0100383F3118838
S31520001D30BFF36F8FBFF34F8F4369BBB140690191EA
S31520001D400026009633463246696A01F03BFE6E61F4
S31520001D50012084F3118802B070BD4FF0100383F385
S31520001D601188BFF36F8FBFF34F8FFEE70020F0E798
S31520001D7008B1406A70474FF0100383F31188BFF310
S31520001D806F8FBFF34F8FFEE750B102698AB14FF0D4
S31520001D90100383F31188BFF36F8FBFF34F8FFEE7D6
S31520001DA04FF0100383F31188BFF36F8FBFF34F8F6C
S31520001DB0FEE7426942B14FF0100383F31188BFF367
S31520001DC06F8FBFF34F8FFEE741B14FF0100383F3C0
S31520001DD01188BFF36F8FBFF34F8FFEE741627047C5
S31520001DE0006A704701627047007F00F0010070476B
S31520001DF0034628B14169134A91420AD00020704710
S31520001E004FF0100383F31188BFF36F8FBFF34F8F0B
S31520001E10FEE7826A0C498A420FD04AB100207047F9
S31520001E20991891F85810C9B2012908D0013200E05A
S31520001E300022002AF4DD0120704700207047002090
S31520001E40704700BF10AA002024AA0020002301E02A
S31520001E50013001330278A52AFAD098087047074B3B
S31520001E609B6A1B6823B9054B4FF0FF32DA62704735
S31520001E70024B9A6AD2681268DA62704710AA00206A
S31520001E802DE9F84380460D4616469946089F0A9C3A
S31520001E909200A521206B08F026F8226B06F18043DC
S31520001EA0013B02EB830222F0070665B100220F2ACE
S31520001EB006D8AB5CA11881F834300BB10132F6E7B5
S31520001EC0002384F84330372F08D94FF0100383F3CB
S31520001ED01188BFF36F8FBFF34F8FFEE7E762E7648A
S31520001EE0201DFEF741FB04F11800FEF73DFB24619F
S31520001EF0C7F13807A76164624A464146304602F078
S31520001F0011FB2060099B03B11C60BDE8F8832DE915
S31520001F10F04186B00D9F9FB180460E4615461C4661
S31520001F200E9BB3B15C230593059B5C2B1AD04FF017
S31520001F30100383F31188BFF36F8FBFF34F8FFEE734
S31520001F404FF0100383F31188BFF36F8FBFF34F8FCA
S31520001F50FEE74FF0100383F31188BFF36F8FBFF3B3
S31520001F604F8FFEE7059B5C2200210E9807F0BBFFF2
S31520001F700E9B1F63002303930E9B02930F9B0193DB
S31520001F800C9B009323462A4631464046FFF778FFAE
S31520001F900E9806B0BDE8F08170B5002407E004EB8A
S31520001FA08402930010481844FEF7D3FA0134372CE4
S31520001FB0F5D90E4C04F592663046FEF7CAFA04F2BD
S31520001FC0A4452846FEF7C5FA04F11400FEF7C1FA27
S31520001FD004F59760FEF7BDFA2046FEF7BAFAA66228
S31520001FE0C4F8CC5470BD00BF40AA002010AA00201F
S31520001FF038B5044602F0BEFA304BD3F8D02401326D
S31520002000C3F8D024D3F8D43473B12C4BD3F8D834B6
S315200020108BB92A4BD3F8D434DA6AE36A9A420AD8BF
S31520002020264BC3F8D44406E0244BC3F8D444D3F853
S31520002030D034012B3FD0214AD2F8DC340133C2F808
S31520002040DC346364E36AD2F8E024934202D91B4A63
S31520002050C2F8E034194D03EB830305EB83035B6B76
S31520002060A3609968E160221D4A609A60E36A05F1DF
S31520002070300203EB830102EB8102626105EB8102F0
S31520002080126B013205EB81031A6302F095FAD5F83B
S31520002090D8347BB1D5F8D434DA6AE36A9A4209D2C5
S315200020A04FF0E0234FF08052C3F8042DBFF34F8F3B
S315200020B0BFF36F8F38BDFFF76FFFBCE710AA002074
S315200020C0104BD3F8E434DBB110B502F053FA0D4CC3
S315200020D0D4F8C434D8680430FEF76DFAD4F8D03476
S315200020E0013BC4F8D034D4F8E434013BC4F8E434DA
S315200020F002F062FA034BD3F8E434002BE5D110BD8D
S31520002100704700BF10AA002008B5FFF7D9FF074B7C
S315200021101B6B012BF9D94FF0E0234FF08052C3F807
S31520002120042DBFF34F8FBFF36F8FEEE710AA002069
S315200021302DE9F04104460D46214BD3F8E8649F6A09
S31520002140D3F8CC84D3F8D4040430FEF734FAB4F1AF
S31520002150FF3F0FD034441A4BD3F8D4345C60A642E8
S3152000216022D9174BD3F8D41404314046FEF70AFA85
S31520002170BDE8F081002DEDD0114B5A68D3F8D41468
S315200021808A60D3F8D4149068C860D3F8D414043184
S315200021904160D3F8D41404319160D3F8D424536128
S315200021A01A6801321A60E3E7054DD5F8D4140431D4
S315200021B03846FEF7E7F9EB6AA342D9D9EC62D7E7AE
S315200021C010AA002010B586B00024059405AC03940F
S315200021D00A9C0294099C0194089C0094FFF797FEA0
S315200021E008B1FFF705FF059806B010BD30B58DB0D4
S315200021F000230F2B09DC164AD25C03F13001694417
S3152000220001F8102C0AB10133F3E70024002C02DD7B
S3152000221001200DB030BD00250595069507AA06A913
S3152000222005A806F0DFFB059B0293069B019300950C
S315200022302B46079A08A90748FFF7C4FF064B03EB6E
S315200022408403C3F8EC0408B10134DFE70020E0E79B
S31520002250D4A600200921002010AA002070B504462B
S3152000226002F088F96CB3251D2846FEF7A4F9A36A67
S315200022701BB104F11800FEF79EF9284BD3F8DC2495
S315200022800132C3F8DC24D3F8D434A3421DD0002273
S31520002290224BD3F8D83403B1CAB9204AD2F8D03465
S315200022A0013BC2F8D034FFF7DAFD02F085F91B4B6B
S315200022B0D3F8D83423B1194BD3F8D434A34214D04D
S315200022C070BD164BD3F8D444CDE70122E0E7134E78
S315200022D0294606F59760FEF74AF9D6F8E434013325
S315200022E0C6F8E43402F068F9E1E70C4BD3F8F03491
S315200022F043B14FF0100383F31188BFF36F8FBFF301
S315200023004F8FFEE74FF0E0234FF08052C3F8042DA5
S31520002310BFF34F8FBFF36F8FD2E700BF10AA002005
S315200023202DE9F84308B30446244BD3F8D43483422A
S3152000233037D002F01FF96669A76A204DD5F82880A4
S31520002340D5F8CC9402F038F91435AF422CD0464556
S315200023502CD04E452CD0A5F114039E420ED0184BFE
S315200023609E4229D0DEB101201CE04FF0100383F3FA
S315200023701188BFF36F8FBFF34F8FFEE7A36A4BB170
S3152000238002200FE0E21892F85820D2B2012A11D08A
S31520002390013300E00023002BF4DD032002E00420BB
S315200023A000E00020BDE8F8830120FBE70220F9E7E2
S315200023B00220F7E70220F5E70420F3E710AA002021
S315200023C0C8AE002010B5044602F0D4F824B1E46A61
S315200023D002F0F2F8204610BD014BD3F8D444F6E7BC
S315200023E010AA002010B5044602F0DAF9EFF31183A3
S315200023F04FF0100282F31188BFF36F8FBFF34F8F18
S315200024001CB1E06A83F3118810BD024AD2F8D44485
S31520002410F7E700BF10AA002010B5044602F0AAF87C
S3152000242024B1E46C02F0C8F8204610BD014BD3F865
S31520002430D444F6E710AA002010B5044602F0B0F9FD
S31520002440EFF311834FF0100282F31188BFF36F8FE1
S31520002450BFF34F8F1CB1E06C83F3118810BD024A85
S31520002460D2F8D444F7E700BF10AA0020372908D9AC
S315200024704FF0100383F31188BFF36F8FBFF34F8F95
S31520002480FEE770B504460D4602F074F884B1E26C9E
S31520002490954237D010D9344BD3F8D434A34234D014
S315200024A0314BD3F8D434DB6AAB4230D3002609E073
S315200024B02D4BD3F8D444EAE72B4BD3F8D434A3429C
S315200024C027D00026E36A9A4201D09D4200D9E562D0
S315200024D0E564A269002A02DBC5F13805A5616169B8
S315200024E003EB8303214A02EB8303994213D04EB1B7
S315200024F04FF0E0234FF08052C3F8042DBFF34F8FE7
S31520002500BFF36F8F02F058F870BD0026DAE7012678
S31520002510D8E70126D6E7251D2846FEF74CF8E36ABC
S31520002520114AD2F8E024934202D90F4AC2F8E03485
S315200025300D4A03EB830302EB83035B6BA36099686D
S31520002540E1604D609D60E36A02F1300103EB830098
S3152000255001EB8001616102EB8001096B013102EB25
S3152000256080021163C3E700BF10AA002040AA002002
S3152000257038B570B10446274BD3F8D434834207D0FC
S3152000258001F0F8FF2046FFF733FC58B902F014F8A3
S3152000259038BD4FF0100383F31188BFF36F8FBFF35D
S315200025A04F8FFEE7251D2846FEF705F8E36A194AF0
S315200025B0D2F8E024934202D9164AC2F8E034154AEA
S315200025C003EB830302EB83035B6BA3609968E160F3
S315200025D04D609D60E36A02F1300103EB830001EB5D
S315200025E08001616102EB8001096B013102EB8003FE
S315200025F01963D2F8D434DA6AE36A9A42C6D24FF023
S31520002600E0234FF08052C3F8042DBFF34F8FBFF362
S315200026106F8FBBE710AA0020F8B500284DD00446DE
S3152000262002F0BEF8EFF311854FF0100383F3118803
S31520002630BFF36F8FBFF34F8F2046FFF7D9FB0646B8
S31520002640002836D0264BD3F8F034002B40D1E26A4E
S31520002650234BD3F8D434DB6A9A4237D90126204B50
S31520002660C3F8F464271D3846FDF7A5FFE36A1C4A24
S31520002670D2F8E024934202D9194AC2F8E034184A23
S3152000268003EB830302EB83035B6BA3609968E16032
S315200026904F609F60E36A02F1300103EB830001EB98
S315200026A08001616102EB8001096B013102EB80023E
S315200026B0116385F311883046F8BD4FF0100383F37C
S315200026C01188BFF36F8FBFF34F8FFEE70026C9E750
S315200026D004F118010348FDF74AFF0026E9E700BF89
S315200026E010AA002024AA002008B5FFF77FFD0128A4
S315200026F005D0B0F1FF3F1FD0144B1B6808BD01F079
S31520002700E6FC0128F5D14FF0100383F31188BFF3BF
S315200027106F8FBFF34F8F0E484FF0FF33C3620123F5
S31520002720C0F8D8340023C0F8E83400F2D44006F0CC
S3152000273013F901F063FFDFE74FF0100383F31188ED
S31520002740BFF36F8FBFF34F8FFEE700BF4CA600206D
S3152000275010AA002010B501F079FDFFF77FFD0024B7
S31520002760002C10DDFFF7ACFC4FF0100383F311882B
S31520002770BFF36F8FBFF34F8F074B0022C3F8D824C8
S3152000278001F0E6FE10BD044B03EB8403D3F8EC0402
S31520002790FFF764FD0134E3E710AA0020034AD2F8CC
S315200027A0F0340133C2F8F034704700BF10AA00207D
S315200027B0014BD3F8E804704710AA002008B501F0B1
S315200027C0EFFF024BD3F8E80408BD00BF10AA002093
S315200027D0014BD3F8D004704710AA0020034610B14D
S315200027E003F134007047074BD3F8D434002BF7D1CC
S315200027F04FF0100383F31188BFF36F8FBFF34F8F12
S31520002800FEE700BF10AA00200B4631B172B1B0B16D
S31520002810016B19601060012070474FF0100383F39D
S315200028201188BFF36F8FBFF34F8FFEE74FF0100372
S3152000283083F31188BFF36F8FBFF34F8FFEE70249F3
S31520002840D1F8D404E4E700BF10AA0020064BD3F841
S31520002850EC0400B170474FF0100383F31188BFF3E7
S315200028606F8FBFF34F8FFEE710AA002040B14FF0C5
S31520002870100383F31188BFF36F8FBFF34F8FFEE7EB
S31520002880074B03EB8003D3F8EC0400B170474FF0FD
S31520002890100383F31188BFF36F8FBFF34F8FFEE7CB
S315200028A010AA00205A4BD3F8F034002B40F0A58014
S315200028B070B5574BD3F8E8440134C3F8E844CCB993
S315200028C09B6A1B6843B14FF0100383F31188BFF353
S315200028D06F8FBFF34F8FFEE74D4B9A6AD3F8CC1418
S315200028E09962C3F8CC24D3F8F8240132C3F8F8242B
S315200028F0FFF7B5FA464BDB6AA34212D90020444AB9
S31520002900D2F8D434DB6A03EB830399000A44136BB1
S31520002910012B00D901203E4BD3F8F434002B74D17F
S3152000292070BD00203EE03A4B4FF0FF32DA62E6E718
S31520002930374BDA62E3E7D968516049E000219962B2
S31520002940116801391160DA6A3149D1F8E0148A42F6
S3152000295002D92F49C1F8E0242D4902EB82024FEA21
S31520002960820C8C44DCF834209A609668DE607560B0
S315200029709560DA6A01F1300502EB820E4FEA8E0C81
S3152000298065445D618C44DCF8305001354FEA8E0C8D
S315200029908C44CCF83050DA6AD1F8D434DB6A9A42C7
S315200029A000D901201A4B9B6A1B68002BBBD0184B01
S315200029B09B6ADB68DB685A689442B9D35A699D687A
S315200029C0D968A9609D684D6051681D1DA942B2D085
S315200029D0002159611168013911609A6A002AB2D022
S315200029E0DE69196AB160DE694E60566803F1180126
S315200029F08E42A3D1196A5160A0E7054AD2F8FC3469
S31520002A000133C2F8FC3400207047012088E700BF5C
S31520002A1010AA002010B501F0ADFD534BD3F8F034C9
S31520002A2043B94FF0100383F31188BFF36F8FBFF3C1
S31520002A304F8FFEE74C4BD3F8F024013AC3F8F0242D
S31520002A40D3F8F034002B40F08A80474BD3F8D034AB
S31520002A503BB9002484E0196A516015E0D9685160B9
S31520002A6021E00023404A5269002A4FD03E4B1B6A80
S31520002A70DB689A6AD869196A8160D86948605068A3
S31520002A8003F118018842E6D00021996211680139C4
S31520002A9011605A699868D968816098684860516859
S31520002AA0181D8142DAD0002159611168013911605F
S31520002AB0DA6A2D49D1F8E0148A4202D92A49C1F8A6
S31520002AC0E024294902EB820201EB8202526B9A60D2
S31520002AD09468DC6060609060DA6A01F1300002EB95
S31520002AE0820400EB8400586101EB8400006B013006
S31520002AF001EB84021063D86AD1F8D424D26A9042BA
S31520002B00B0D90A460121C2F8F414ABE70BB1FFF79E
S31520002B10A6F9154BD3F8FC449CB9134BD3F8F444CF
S31520002B20F4B1D3F8D4344FF0E0234FF08052C3F8F9
S31520002B30042DBFF34F8FBFF36F8F012410E0013CAC
S31520002B4008D0FFF7AFFE0028F9D0074B0122C3F8C3
S31520002B50F424F4E7044B0022C3F8FC24DDE7002428
S31520002B6001F02AFD204610BD10AA002038B558B124
S31520002B700C46054689B94FF0100383F31188BFF33D
S31520002B806F8FBFF34F8FFEE74FF0100383F311884B
S31520002B90BFF36F8FBFF34F8FFEE7FFF7FFFD1E4B8F
S31520002BA0D3F8E804D3F8F034012B08D04FF0100303
S31520002BB083F31188BFF36F8FBFF34F8FFEE72B6828
S31520002BC01C4483420BD9A34202D82C60002410E077
S31520002BD0A04202D32C6000240BE02C6004E0A34228
S31520002BE001D8A04214D22C600021201AFFF7A0FAA7
S31520002BF00124FFF70FFF48B94FF0E0234FF0805232
S31520002C00C3F8042DBFF34F8FBFF36F8F204638BD17
S31520002C102C600024EDE700BF10AA002010B550B9A3
S31520002C204FF0E0234FF08052C3F8042DBFF34F8FAF
S31520002C30BFF36F8F10BD0446FFF7B0FD0B4BD3F8E3
S31520002C40F034012B08D04FF0100383F31188BFF323
S31520002C506F8FBFF34F8FFEE700212046FFF768FAFC
S31520002C60FFF7D8FE0028E5D1DAE700BF10AA00203A
S31520002C700E4BD3F8F03443B14FF0100383F3118891
S31520002C80BFF36F8FBFF34F8FFEE710B50446FFF7F4
S31520002C9085FD01F06FFC054AD2F8FC342344C2F8C6
S31520002CA0FC3401F089FCFFF7B5FE10BD10AA002008
S31520002CB0254BD3F8F03423B1234B0122C3F8F42457
S31520002CC0704710B5204C0023C4F8F43404F2D440E5
S31520002CD005F046FED4F8E03403EB830291001A4A4D
S31520002CE00A44126B5AB90BB1013BF5E74FF01003BA
S31520002CF083F31188BFF36F8FBFF34F8FFEE7124A1E
S31520002D001144486B40684863303203EB8304A100CA
S31520002D1008310A44904211D00B4C03EB83018A0000
S31520002D202244526BD268C4F8D424C4F8E03404F2A6
S31520002D30D44005F011FED4F8D43410BDA100024AC7
S31520002D400A44D16B5163E7E710AA002038B5044640
S31520002D5001F010FCE4B1251D2846FDF72CFCA36AE2
S31520002D601BB104F11800FDF726FC29462948FDF77A
S31520002D70FEFB0023002B0FDD01F01EFC254BD3F8B4
S31520002D80D834B3B9234BD3F8D434A34218D038BDA2
S31520002D90204BD3F8D444DEE7E21892F85820D2B27A
S31520002DA0012A01D00133E5E7E218002182F8581004
S31520002DB0F8E701F0DFFBFFF752F801F0FDFBE1E752
S31520002DC0144BD3F8D834BBB1124BD3F8F03443B1FB
S31520002DD04FF0100383F31188BFF36F8FBFF34F8F2C
S31520002DE0FEE74FF0E0234FF08052C3F8042DBFF3E7
S31520002DF04F8FBFF36F8FCAE7064B1A68D3F8D034CC
S31520002E00934204D1034B0022C3F8D424BFE7FFF733
S31520002E104FFFBCE710AA002060B110B50C460A4A45
S31520002E20D2F8D4141831FDF7ADFB01212046FFF767
S31520002E307FF910BD4FF0100383F31188BFF36F8F16
S31520002E40BFF34F8FFEE700BF10AA002038B568B148
S31520002E5003461B48D0F8F00488B94FF0100383F3DB
S31520002E601188BFF36F8FBFF34F8FFEE74FF010032C
S31520002E7083F31188BFF36F8FBFF34F8FFEE71048A0
S31520002E80D0F8D44441F00041A1615968D0F8D44427
S31520002E90E161D0F8D4548C682C62D0F8D45418351B
S31520002EA06560D0F8D44418348C60D0F8D4148B6282
S31520002EB019680131196001211046FFF739F938BD2B
S31520002EC010AA002038B500B38C4611460546426844
S31520002ED0124BD3F8D404C261D3F8D40494680462A4
S31520002EE0D3F8D40418306060D3F8D4041830906036
S31520002EF0D3F8D4349D622B6801332B6009B14FF08F
S31520002F00FF3C6046FFF714F938BD4FF0100383F3FA
S31520002F101188BFF36F8FBFF34F8FFEE710AA0020F3
S31520002F20C368DB68002B55D010B49A6AD869196A31
S31520002F308160D8694860516803F11800814252D0F7
S31520002F4000219962116801391160324AD2F8F024C1
S31520002F50002A4ED15A699868D96881609868486075
S31520002F605168181D814241D00021596111680139EB
S31520002F701160DA6A2749D1F8E0148A4202D9254934
S31520002F80C1F8E024234902EB820201EB8202526B54
S31520002F909A609468DC6060609060DA6A01F13000C3
S31520002FA002EB820400EB8400586101EB8400006B85
S31520002FB0013001EB84010863DA6A164BD3F8D43466
S31520002FC0DB6A9A4223D90120124BC3F8F4045DF838
S31520002FD0044B70474FF0100383F31188BFF36F8FB4
S31520002FE0BFF34F8FFEE7196A5160A9E7D968516090
S31520002FF0BAE7084A9169D9618C681C62606088606A
S3152000300002F114019962516901315161D4E700201E
S31520003010DDE700BF10AA0020374BD3F8F03443B9C0
S315200030204FF0100383F31188BFF36F8FBFF34F8FD9
S31520003030FEE741F000410160C268002A4CD010B47E
S31520003040036944688168A16044684C60596881427C
S315200030504BD00021016119680139196053699068C4
S31520003060D1688160906848605968101D81423FD0C0
S3152000307000215161196801391960D36A1E49D1F8B6
S31520003080E0148B4202D91C49C1F8E0341A4903EBFB
S31520003090830301EB83035B6B93609C68D460606061
S315200030A09860D36A01F1300003EB830400EB8400BF
S315200030B0506101EB8400006B013001EB840318633F
S315200030C0D26AD1F8D434DB6A9A4202D90122C1F8F5
S315200030D0F4245DF8044B70474FF0100383F31188F6
S315200030E0BFF36F8FBFF34F8FFEE781685960B0E75C
S315200030F0D1685960BCE700BF10AA002068B110B59E
S31520003100044601F037FA094BD3F8F8242260D3F8A5
S31520003110E834636001F050FA10BD4FF0100383F3DA
S315200031201188BFF36F8FBFF34F8FFEE710AA0020E1
S31520003130034BD3F8F8240260D3F8E8344360704791
S3152000314010AA0020F8B5C8B10C460546F9B101F021
S3152000315011FA1D4BD3F8E8146B68C81A2268B2F12D
S31520003160FF3F2BD0184ED6F8F8642F68B74217D0F9
S315200031708B4215D800232360012420E04FF0100352
S3152000318083F31188BFF36F8FBFF34F8FFEE74FF0A6
S31520003190100383F31188BFF36F8FBFF34F8FFEE7C2
S315200031A0824203D800232360012408E05B1A1344DB
S315200031B023602846FFF7BCFF002400E0002401F02E
S315200031C0FBF92046F8BD00BF10AA0020024B0122C1
S315200031D0C3F8F424704700BF10AA002008B1806C01
S315200031E070470020704700B18164704770B50C4667
S315200031F01646054618B3256005F134026260EA6A70
S3152000320022612A6BE2616A6CA260EA6C626100222A
S31520003210A261052B34D01F4AD2F8D424AA4212D058
S315200032202373032B12D001F0A5F9AA6A1A4B9A42EE
S3152000323023D001F0C1F946BB0023236270BD154A95
S31520003240D2F8D454D7E700232373F4E7FFF7A6FA7E
S31520003250AB6A3BB102232373FFF7DCFBE3E70223D0
S315200032602373F9E70023002BF6DCEA1892F858209E
S31520003270D2B2012AF3D00133F5E701232373D8E72D
S315200032802846FFF74DF82073D5E7286BFEF7DEFDBD
S315200032902062D3E710AA002024AA00202DE9F047B7
S315200032A00D683DB307460C4690464B685B684B60FD
S315200032B001F108094B4504D06368D3F80CA000251A
S315200032C010E0CB684B60F7E76368DE6805EBC50165
S315200032D04346012207EB81013046FFF787FF013580
S315200032E0B24507D06368596861608945ECD1E368C7
S315200032F06360E9E72846BDE8F0872DE9F0410646F8
S315200033000C461746FFF74AFA244BD3F8D034A3428B
S315200033103ED838240025013C05EBC50004EB84018A
S3152000332001221F4B03EB810106EB8000FFF7B6FF5E
S315200033300544002CEFD105EBC500DFF86080D8F8F6
S315200033402810022206EB8000FFF7A8FF441904EBA1
S31520003350C400D8F8CC14022206EB8000FFF79EFFAB
S31520003360044404EBC400042208F5976106EB8000B0
S31520003370FFF794FF044404EBC4000322414606EB06
S315200033808000FFF78BFF04441FB100233B6000E061
S315200033900024FFF73FFB2046BDE8F08110AA00205D
S315200033A040AA002008B5034618B1186BFEF74EFD5B
S315200033B008BD024BD3F8D434F7E700BF10AA00208B
S315200033C0014BD3F8D404704710AA002018B9034B38
S315200033D0D3F8D40470470020704700BF10AA0020FD
S315200033E0064BD3F8D8343BB1044BD3F8F0340BB1A9
S315200033F000207047022070470120704710AA002045
S31520003400002856D038B50446C36A2C4AD2F8D424AC
S31520003410D26A934244D28269002A06DB274AD2F82E
S31520003420D424D26AC2F138028261616903EB830334
S31520003430234A02EB8303994206D0204BD3F8D43497
S31520003440DB6AE362012038BD251D2846FDF7B3F867
S315200034501A4AD2F8D434DB6AE362D2F8E0249342E3
S3152000346002D9164AC2F8E034144A03EB830302EB6E
S3152000347083035B6BA3609968E1604D609D60E36A9E
S3152000348002F1300103EB830001EB8001616102EB65
S315200034908001096B013102EB800211630120D2E722
S315200034A0C26C064BD3F8D434DB6A9A4203D300208D
S315200034B0C9E7002070470120C5E700BF10AA0020F9
S315200034C040AA0020002850D038B50446294BD3F80E
S315200034D0D434834208D04FF0100383F31188BFF30E
S315200034E06F8FBFF34F8FFEE7036D43B94FF0100385
S315200034F083F31188BFF36F8FBFF34F8FFEE7013B36
S315200035000365C16AC26C914231D00BB1002038BD2F
S31520003510051D2846FDF74FF8E36CE362C3F1380238
S31520003520A261144AD2F8E024934202D9114AC2F881
S31520003530E034104A03EB830302EB83035B6BA36047
S315200035409968E1604D609D60E36A02F1300103EB0A
S31520003550830001EB8001616102EB8001096B01317F
S3152000356002EB800211630120D1E700207047002082
S31520003570CDE700BF10AA002000285BD038B504464E
S31520003580036D43B94FF0100383F31188BFF36F8F98
S31520003590BFF34F8FFEE7C26C8A4200D20A46E16A29
S315200035A0914201D0012B00D038BD234BD3F8D4341F
S315200035B0A34236D0E262A369002B02DBC2F13802B5
S315200035C0A261626901EB81011C4B03EB81039A42E4
S315200035D0EAD1251D2846FCF7EEFFE36A164AD2F803
S315200035E0E024934202D9144AC2F8E034124A03EB8B
S315200035F0830302EB83035B6BA3609968E1604D60F4
S315200036009D60E36A02F1300103EB830001EB800148
S31520003610616102EB8001096B013102EB80021163CB
S31520003620C2E74FF0100383F31188BFF36F8FBFF308
S315200036304F8FFEE7704700BF10AA002040AA002047
S31520003640064AD2F8D4349869D2F8D434DB6AD2F850
S31520003650D424C3F138039361704700BF10AA002019
S31520003660034BD3F8D40410B1036D013303657047BF
S3152000367010AA002040B14FF0100383F31188BFF346
S315200036806F8FBFF34F8FFEE770B50E461446054683
S31520003690FFF784F800F06EFF2B4BD3F8D43405F1F6
S315200036A0140203EB82035B6853BB274BD3F8D43455
S315200036B02B44012283F8582034BB00F07DFFFFF70E
S315200036C0A9F94CBB00F056FF1F4BD3F8D43405F1B3
S315200036D0140203EB82035C683CB156B31A4BD3F851
S315200036E0D43403EB820300225A60174BD3F8D43428
S315200036F02B44002283F8582000F05EFF204670BD40
S3152000370000F05AFF0024DAE700F056FF0121204698
S31520003710FEF70EFD0124D2E70028D3D14FF0E02397
S315200037204FF08052C3F8042DBFF34F8FBFF36F8F36
S31520003730C8E7054BD3F8D434621E05F1140103EB18
S3152000374081035A60D1E700BF10AA0020F8B540B126
S315200037504FF0100383F31188BFF36F8FBFF34F8FA2
S31520003760FEE70D4616461C460746FFF717F800F0FB
S3152000377001FF344BD3F8D4343B4493F85830DBB2B2
S31520003780022B39D02F49D1F8D43407F1140203EB98
S3152000379082035A6822EA05025A60D1F8D4343B449F
S315200037A0012283F85820069B53BB00F005FF002515
S315200037B0FFF730F965BB00F0DDFE44B1214BD3F8AD
S315200037C0D43407F1140203EB82035B6823601D4B9C
S315200037D0D3F8D4343B4493F85830DBB2022B24D0B0
S315200037E00024184BD3F8D4343B44002283F85820C5
S315200037F000F0E2FE2046F8BD00F0DEFE0025D7E709
S3152000380000F0DAFE01210698FEF792FC0125CFE7AB
S315200038100028D0D14FF0E0234FF08052C3F8042D7A
S31520003820BFF34F8FBFF36F8FC5E7064BD3F8D43462
S3152000383007F1140203EB82035A6822EA06025A6051
S315200038400124CEE710AA0020F8B541B14FF01003AD
S3152000385083F31188BFF36F8FBFF34F8FFEE70446C4
S3152000386017461E460D46C0B100F084FE069B33B1B6
S3152000387005F1140304EB83035B68069A136063194E
S3152000388093F85820D2B2022183F85810042E31D84A
S31520003890DFE806F0130C1A2228004FF0100383F3FA
S315200038A01188BFF36F8FBFF34F8FFEE705F1140327
S315200038B004EB8303596839435960012A28D001242F
S315200038C000F07AFE2046F8BD05F1140304EB8303CD
S315200038D0596801315960F0E705F1140304EB8303BD
S315200038E05F60EAE7022A66D005F1140304EB83033E
S315200038F05F60E2E7324BD3F8E834002BDDD04FF09F
S31520003900100383F31188BFF36F8FBFF34F8FFEE74A
S315200039106369A168E2688A60A16851605A68211DBE
S315200039208A4232D0002262611A68013A1A60E36A3A
S31520003930234AD2F8E024934202D9214AC2F8E0343D
S315200039401F4A03EB830302EB83035B6BA360986838
S31520003950E06041609960E36A02F1300103EB830085
S3152000396001EB8001616102EB8001096B013102EB01
S3152000397080021163A36A5BB14FF0100383F31188B1
S31520003980BFF36F8FBFF34F8FFEE7E2685A60C9E738
S315200039900B4BD3F8D434DA6AE36A9A420DD24FF04D
S315200039A0E0234FF08052C3F8042DBFF34F8FBFF3AF
S315200039B06F8F012484E7002482E7012480E700BF7B
S315200039C010AA0020F8B568B10C4617461D460646D3
S315200039D089B14FF0100383F31188BFF36F8FBFF3C4
S315200039E04F8FFEE74FF0100383F31188BFF36F8FDD
S315200039F0BFF34F8FFEE700F0D3FEEFF311814FF0B8
S31520003A00100383F31188BFF36F8FBFF34F8F069B8D
S31520003A1033B104F1140306EB83035B68069A136043
S31520003A20331993F85820D2B2022083F85800042D77
S31520003A3027D8DFE805F00A0310181E0004F1140346
S31520003A4006EB8303586838435860012A27D00120A3
S31520003A5081F31188F8BD04F1140306EB830358683B
S31520003A6001305860F1E704F1140306EB83035F602D
S31520003A70EBE7022A79D004F1140306EB83035F6097
S31520003A80E3E73C4BD3F8E834002BDED04FF01003AD
S31520003A9083F31188BFF36F8FBFF34F8FFEE7B36AAF
S31520003AA043B14FF0100383F31188BFF36F8FBFF339
S31520003AB04F8FFEE72F4BD3F8F034002B45D1736997
S31520003AC0B068F2688260B06850605A68301D8242E1
S31520003AD038D0002272611A68013A1A60F36A254AC0
S31520003AE0D2F8E024934202D9224AC2F8E034214A8D
S31520003AF003EB830302EB83035B6BB3609C68F46088
S31520003B0060609860F36A02F1300003EB830400EBF7
S31520003B108400706102EB8400006B013002EB8402AA
S31520003B201063F26A134BD3F8D434DB6A9A421ED957
S31520003B30079B13B10123079A136001200D4BC3F88D
S31520003B40F40485E7F2685A60C3E70A4B9A69F26182
S31520003B509468346206F118006060906003F11402E4
S31520003B60B2625A6901325A61DBE7002070E7012010
S31520003B706EE700BF10AA002068B170B50C46154646
S31520003B80064689B14FF0100383F31188BFF36F8F78
S31520003B90BFF34F8FFEE74FF0100383F31188BFF377
S31520003BA06F8FBFF34F8FFEE700F0FAFDEFF3118022
S31520003BB04FF0100383F31188BFF36F8FBFF34F8F3E
S31520003BC0331993F85820D2B2022183F8581004F101
S31520003BD0140306EB8303596801315960012A02D088
S31520003BE080F3118870BDB36A43B14FF0100383F39D
S31520003BF01188BFF36F8FBFF34F8FFEE72C4BD3F89F
S31520003C00F034002B43D17369B168F2688A60B168D9
S31520003C1051605A68311D8A4236D0002272611A6874
S31520003C20013A1A60F36A224AD2F8E024934202D972
S31520003C301F4AC2F8E0341E4A03EB830302EB8303D8
S31520003C405B6BB3609C68F46061609960F36A02F113
S31520003C50300103EB830401EB8401716102EB8401E3
S31520003C60096B013102EB84021163F26A104BD3F81F
S31520003C70D434DB6A9A42B3D90DB101232B600C4BA5
S31520003C800122C3F8F424ABE7F2685A60C5E7084B73
S31520003C909A69F2619468346206F118016160916054
S31520003CA003F11402B2625A6901325A61DDE700BF9C
S31520003CB010AA002038B541B14FF0100383F31188C4
S31520003CC0BFF36F8FBFF34F8FFEE704460D4660B1FB
S31520003CD000F050FC631993F85830DBB2022B08D061
S31520003CE0002400F069FC204638BD054BD3F8D444A7
S31520003CF0EEE72C44002384F858300124F1E700BF76
S31520003D0010AA002041B14FF0100383F31188BFF3AE
S31520003D106F8FBFF34F8FFEE770B5044616460D46EC
S31520003D2068B100F027FC143504EB850465686368E8
S31520003D3023EA0603636000F03FFC284670BD024B71
S31520003D40D3F8D444EDE700BF10AA0020114A00237F
S31520003D50C2F8D434C2F8E434C2F8D034C2F8E83415
S31520003D60C2F8E034C2F8D834C2F8FC34002B09DD9E
S31520003D70084B0022C3F8F824C3F8DC24DA62C3F81F
S31520003D80F0247047034A02EB83020021C2F8F414A0
S31520003D900133EBE710AA0020064B1A6813682BB9EB
S31520003DA00123036023B9D368186870470023F8E716
S31520003DB00020704710AF002008B541600061914295
S31520003DC00CD8D21A83699A4201D3012008BD011D5D
S31520003DD0094B5868FCF7D6FB0020F7E79A4201D238
S31520003DE0994206D2011D044B1868FCF7CBFB002034
S31520003DF0ECE70120EAE700BF10AF002070B50446CB
S31520003E000D46164604E0A3691D44236A20469847BA
S31520003E10A1692B46324629442046FFF7CDFF0028CC
S31520003E20F1D170BD70B505460E460D4B1B68DB689B
S31520003E30DC68201DFCF7BFFB94F8283013F0040F34
S31520003E4007D123F0010384F82830236A20469847B7
S31520003E5070BD324629462046FFF7D0FFF5E700BF62
S31520003E6010AF002008B505E0DB684FF0FF31186879
S31520003E70FFF7D8FF044B1B681A68002AF4D1024AC0
S31520003E8051681160536008BD10AF002038B5054653
S31520003E90FEF78EFC0446074B9B68834205D8002319
S31520003EA02B60044B9C60204638BDFFF7DBFF0123C7
S31520003EB02B60F6E710AF002070B582B006460C46A0
S31520003EC0FEF76CFC01A8FFF7E1FF019B33BB05461B
S31520003ED0E4B9B04213D22246711B124BD868FDF7C3
S31520003EE0C9FAFEF797FDD8B94FF0E0234FF080527C
S31520003EF0C3F8042DBFF34F8FBFF36F8F10E0FEF78B
S31520003F0089FD29463046FFF78DFF09E0054A5268AC
S31520003F1012680AB90124DEE71C46DCE7FEF77AFDC3
S31520003F2002B070BD10AF002030B585B000230193DC
S31520003F3002930393002201A9354BD868FCF7CCFEE7
S31520003F40002862D0019B002BF4DB039C636913B12C
S31520003F50201DFCF730FB6846FFF798FF0546019BBE
S31520003F60013B082BE6D8DFE803F005052930490593
S31520003F700529300094F8283043F0010384F82830CE
S31520003F80029BA169024619442046FFF715FF002827
S31520003F90D0D094F8283013F0040F07D123F0010372
S31520003FA084F82830236A20469847C3E7A3692A461F
S31520003FB0029919442046FFF721FFF3E794F82830A9
S31520003FC023F0010384F82830B4E794F8283043F02E
S31520003FD0010384F828300299A16131B103460246D3
S31520003FE001442046FFF7E8FEA4E74FF0100383F3D1
S31520003FF01188BFF36F8FBFF34F8FFEE794F82830F9
S3152000400023F0010384F8283094E705B030BD00BFC3
S3152000401010AF002000B583B001A8FFF7BDFE0199BF
S31520004020FFF74AFFFFF780FFF6E770B582B000F092
S31520004030A1FA124BDB681BB100F0BEFA02B070BDCC
S315200040400E4C04F110063046FCF783FA04F12405E1
S315200040502846FCF77EFA266065600023009304F16B
S31520004060380304F188020C210A20FCF7C5FBE06026
S315200040700028E1D00249FDF77FF9DDE710AF0020E7
S31520004080DCA600202DE9F041079F41B94FF010032F
S3152000409083F31188BFF36F8FBFF34F8FFEE706467A
S315200040A014461D468846FFF7C0FF3E60C7F81880B5
S315200040B0FD61069B3B62381DFCF756FA2CB197F83A
S315200040C0283043F0040387F82830BDE8F08110B586
S315200040D088B0FFF7AAFF134BDB68D3B10024059401
S315200040E0069407AA06A905A804F08CFC059B029352
S315200040F0069B0193032300932346079A0A490B48FC
S31520004100FEF760F8074BC3F8000110B1012008B094
S3152000411010BD4FF0100383F31188BFF36F8FBFF3E9
S315200041204F8FFEE710AF0020E4A6002015400020A8
S3152000413010B584B084462C20039003982C2808D0F0
S315200041404FF0100383F31188BFF36F8FBFF34F8FA8
S31520004150FEE70398079860B10220079C84F82800A0
S315200041600194069800906046FFF78CFF079804B0EC
S3152000417010BD4FF0100383F31188BFF36F8FBFF389
S315200041804F8FFEE798B103461948C06870B300B553
S3152000419085B0019102920393052911DD4FF010039A
S315200041A083F31188BFF36F8FBFF34F8FFEE74FF076
S315200041B0100383F31188BFF36F8FBFF34F8FFEE792
S315200041C0FFF70EF9022809D000231A4601A908484C
S315200041D0C068FCF79FFB05B05DF804FB0023069A38
S315200041E001A90348C068FCF795FBF4E70020704757
S315200041F010AF0020A0B19C4603461348C06800B308
S3152000420000B585B0019102920393052911DC4FF088
S31520004210100383F31188BFF36F8FBFF34F8FFEE731
S315200042204FF0100383F31188BFF36F8FBFF34F8FC7
S31520004230FEE70023624601A9FCF76BFC05B05DF89A
S3152000424004FB0020704700BF10AF0020064BD3F8B8
S31520004250000100B170474FF0100383F31188BFF3BC
S315200042606F8FBFF34F8FFEE710AF002008B1806934
S3152000427070474FF0100383F31188BFF36F8FBFF39E
S315200042804F8FFEE738B568B10C46054600F072F947
S315200042908CB195F8283043F0040385F8283000F0D7
S315200042A08BF938BD4FF0100383F31188BFF36F8F5E
S315200042B0BFF34F8FFEE795F8283023F0040385F8E7
S315200042C02830ECE768B110B5044600F053F994F8AD
S315200042D0283013F0040F0DD1002400F06DF920468C
S315200042E010BD4FF0100383F31188BFF36F8FBFF318
S315200042F04F8FFEE70124F0E708B5FFF7E3FF08BD7F
S3152000430008B1406870474FF0100383F31188BFF35C
S315200043106F8FBFF34F8FFEE739B190F8283013F037
S31520004320020F0BD00860012070474FF0100383F373
S315200043301188BFF36F8FBFF34F8FFEE700207047C2
S3152000434008B1006870474FF0100383F31188BFF35C
S315200043506F8FBFF34F8FFEE768B110B5044600F0AC
S3152000436009F994F8283013F0010F0DD1002400F03C
S3152000437023F9204610BD4FF0100383F31188BFF3B5
S315200043806F8FBFF34F8FFEE70124F0E740B110B5E2
S31520004390044600F0EFF8E46900F00EF9204610BD5F
S315200043A04FF0100383F31188BFF36F8FBFF34F8F46
S315200043B0FEE738B538B10C46054600F0DBF8EC616F
S315200043C000F0FAF838BD4FF0100383F31188BFF3DD
S315200043D06F8FBFF34F8FFEE7406A70474162704789
S315200043E0024B0022DA60C3F80021704710AF00208C
S315200043F082B0002301930D4B1B68B3F1FF3F08D019
S315200044004FF0100383F31188BFF36F8FBFF34F8FE5
S31520004410FEE74FF0100383F31188BFF36F8FBFF3CE
S315200044204F8F019B002BFCD002B0704758A900206B
S31520004430074B19680868B0E8F04F80F30988BFF386
S315200044406F8F4FF0000080F311887047AFF3008024
S31520004450E4AE002008480068006880F308884FF022
S31520004460000080F3148862B661B6BFF34F8FBFF3A6
S315200044706F8F00DF00BF000008ED00E0EFF309803A
S31520004480BFF36F8F164B1A681EF0100F08BF20ED72
S31520004490108A20E9F04F10602DE909004FF0100036
S315200044A080F31188BFF34F8FBFF36F8FFEF700FCA9
S315200044B04FF0000080F3118809BC19680868B0E83D
S315200044C0F04F1EF0100F08BFB0EC108A80F3098859
S315200044D0BFF36F8F704700BFAFF30080AFF300804C
S315200044E0E4AE0020DFF80C00016841F470010160A1
S315200044F07047000088ED00E008B54FF0100383F305
S315200045001188BFF36F8FBFF34F8FFEF7CBF928B11A
S315200045104FF0E0234FF08052C3F8042D002383F39D
S31520004520118808BD4FF0807340F8043C21F001014A
S3152000453040F8081C054B40F80C3C40F8202C6FF046
S31520004540020340F8243C4438704700BFF143002062
S31520004550074B1B68B3F57A7F08D04FF0100383F31F
S315200045601188BFF36F8FBFF34F8FFEE7704700BFF1
S3152000457058A900204FF0100383F31188BFF36F8FE3
S31520004580BFF34F8F0B4A136801331360012B00D002
S3152000459070474FF0E023D3F8043D13F0FF0FF7D018
S315200045A04FF0100383F31188BFF36F8FBFF34F8F44
S315200045B0FEE700BF58A90020094B1B6843B94FF0FE
S315200045C0100383F31188BFF36F8FBFF34F8FFEE77E
S315200045D0013B034A13600BB983F31188704700BF70
S315200045E058A900204FF0E02300221A619A61024A5E
S315200045F05A6107221A6170473F9002004FF0E0236C
S31520004600D3F8002D5D4B9A421FD04FF0E023D3F80C
S31520004610002D5B4B9A4221D04FF0E021594BC1F837
S31520004620083D594ADA63594A9A63594ADA62D1F8F7
S31520004630083DD96A91421AD04FF0100383F31188AE
S31520004640BFF36F8FBFF34F8FFEE74FF0100383F357
S315200046501188BFF36F8FBFF34F8FFEE74FF0100324
S3152000466083F31188BFF36F8FBFF34F8FFEE79A6BEB
S31520004670464B9A4208D04FF0100383F31188BFF3BC
S315200046806F8FBFF34F8FFEE730B583B000230193C2
S31520004690404B1A78D2B28DF80220FF221A701B786E
S315200046A0DBB28DF803309DF8033003F010033A4A4D
S315200046B0137043B94FF0100383F31188BFF36F8F44
S315200046C0BFF34F8FFEE79DF8033013F0100F08D18C
S315200046D04FF0100383F31188BFF36F8FBFF34F8F13
S315200046E0FEE79DF8033013F0800F09D0019B0133BC
S315200046F001939DF803305B00DBB28DF80330F0E7C1
S31520004700019B082B36D0019BC3F10703224A536035
S31520004710214A53681B02536003F4E06353609DF8FB
S315200047200230DBB21B4A13704FF0E024D4F8203D50
S3152000473043F47F03C4F8203DD4F8203D43F07F4363
S31520004740C4F8203D0025C4F81C5DFFF74BFF134B32
S315200047501D60FFF7C7FED4F8343F43F04043C4F84A
S31520004760343FFFF777FEFEF7A3FAFFF741FE284610
S3152000477003B030BD084B00225A60C9E771C20F4111
S3152000478070C20F4100C00120F94400207D44002062
S315200047903144002000E400E014B0002058A9002095
S315200047A0EFF305830F2B0FD9114A9B5CDBB2114A1D
S315200047B012789A4208D94FF0100383F31188BFF379
S315200047C06F8FBFF34F8FFEE74FF0E023D3F80C3DFA
S315200047D003F4E063074A5268934208D94FF0100366
S315200047E083F31188BFF36F8FBFF34F8FFEE77047B8
S315200047F0F0E300E014B00020084201D00120704709
S315200048000020704708B50C4B98420AD001214FF082
S31520004810806001F0F1F800214FF0806001F0ECF8A3
S3152000482008BD01214FF0007001F0E6F800214FF09D
S31520004830007001F0E1F8F3E700640040036823F01C
S3152000484002030360036843F0010303600023426808
S3152000485012F0010F05D14FF6FF72934201D00133BA
S31520004860F5E7436813F0010F6BD08B79012B3BD012
S31520004870036823F080030360CB79012B39D00368CA
S3152000488023F0400303600B7A012B37D0036823F013
S31520004890200303604B7A012B35D0036823F01003E5
S315200048A003608B7A012B33D0036823F0080303605F
S315200048B0CB7A012B31D0036823F0040303608A7876
S315200048C0CB781B0643EA82730A7943EA02434A7984
S315200048D043EA02530A88013A1343C361036823F06B
S315200048E00103036000231EE0036843F08003036096
S315200048F0C2E7036843F040030360C4E7036843F05C
S3152000490020030360C6E7036843F010030360C8E78B
S31520004910036843F008030360CAE7036843F004030F
S315200049200360CCE70133426812F0010F03D04FF643
S31520004930FF729342F6D1436813F0010F03D0002093
S315200049407047002070470120704710B5827A0123F6
S3152000495093403F4AD2F8001241F00101C2F80012FA
S31520004960D2F81C126FEA030C21EA0301C2F81C12CA
S31520004970027BD2B9364AD2F80C120CEA0101C2F8EF
S315200049800C12B0F806E04488817A44EA0E44483195
S3152000499042F831408488018890F80AE041EA0441CF
S315200049A00EF1480E02EBCE025160027B012A20D086
S315200049B0C27A002A37D12649D1F804220CEA02020B
S315200049C0C1F80422028932B92149D1F814220CEA0D
S315200049D00202C1F814220289012A2BD0427B012A25
S315200049E02FD01B4AD2F8003223F00103C2F800323E
S315200049F010BD174AD2F80C121943C2F80C12B0F89F
S31520004A0000E04488817A44EA0E44483142F8314035
S31520004A10B0F804E0C188847A41EA0E41483402EBBA
S31520004A20C4025160C4E70A49D1F804221A43C1F8E6
S31520004A300422C7E70649D1F814221A43C1F81422E2
S31520004A40CCE70349D1F81C221343C1F81C32C8E72E
S31520004A500064004000238371C37103724372837222
S31520004A60C3728370C370032303710223437101232E
S31520004A70038070470D4BD3F8002242F00102C3F8A1
S31520004A800022D3F8002222F47C5222F00E02C3F830
S31520004A900022D3F8002242EA0022C3F80022D3F8EB
S31520004AA0002222F00102C3F8002270470064004071
S31520004AB021B1036843F4803303607047036823F40D
S31520004AC0803303607047B1B1036843F0800303600D
S31520004AD0D0F8843143F48073C0F88431D0F894310F
S31520004AE043F48073C0F89431D0F8A43143F4807332
S31520004AF0C0F8A4317047036823F080030360D0F820
S31520004B00843123F48073C0F88431D0F8943123F4AF
S31520004B108073C0F89431D0F8A43123F48073C0F8A0
S31520004B20A43170470346826812F0806F09D18268EB
S31520004B3012F0006F4FD1826812F0805F5BD00220A6
S31520004B4000E0002070B5864600F1180212019C583C
S31520004B5004F001049C500A7A002A3ED100F1180282
S31520004B6012019C584D7A0E6845EA46552C439C50B6
S31520004B708A7A02F00F028A720EF118024FEA021C9C
S31520004B8003EB0212546824F00F04546054688D7AA3
S31520004B902C4354608C7B4A7B120442EA04620C7BD1
S31520004BA042EA0422CC7A224303EB0E1ECEF8882159
S31520004BB08C7C4A7C120442EA04620C7C42EA04227F
S31520004BC0C97B0A43CEF88C2153F80C2042F001020F
S31520004BD043F80C2070BD0120B4E700F1180424012D
S31520004BE01D594E6842EAC60291F809C042EA0C02F3
S31520004BF02A431A51BCE704207047012918D00229FC
S31520004C001AD069BB836823F07B4323F47F0323F404
S31520004C107F4323F0FC031A4A934223D014D8194A1F
S31520004C20934221D00232934220D00BBB0220704700
S31520004C308268154B1340EEE7836823F06F4323F415
S31520004C407C031B0C1B04E6E7104A934212D002F5A4
S31520004C500032934210D00C4A93420FD10120704764
S31520004C6002207047002070470020704701207047BF
S31520004C7000207047002070470120704700207047B1
S31520004C8000010008010000040003000800000110D4
S31520004C90012907D002290AD069B9836843F0800325
S31520004CA083607047836843F400438360704783685A
S31520004CB043F400038360704710B401F11B031B010A
S31520004CC0C35803F004031372002B3FD101F11B03D9
S31520004CD01B01C3585B0D136001F11B031C0100EB84
S31520004CE00313045904F0020454725C6804F00F04A0
S31520004CF094725B681B0AD37400EB0113D3F8B84196
S31520004D00D472D3F8B841240A1473D3F8B841240CCA
S31520004D105473D3F8B841240E9473D3F8BC41D4739A
S31520004D20D3F8BC41240A1474D3F8BC414FEA144C7E
S31520004D3082F811C0D3F8BC311B0E937469B9C368CD
S31520004D4043F02003C3605DF8044B704701F11B0359
S31520004D501B01C358DB085360BEE7036943F02003F9
S31520004D600361F0E721B9C36843F02003C3607047AD
S31520004D70036943F020030361704719B9C06800F046
S31520004D8003007047012901D000207047006900F018
S31520004D90030070478C46B1B9036823F0030343F040
S31520004DA0010303604FF6FF72436803F00303012BF0
S31520004DB002D00AB1013AF7E7436803F00303012B57
S31520004DC033D060467047012903D0022915D0002030
S31520004DD07047036823F0030303604FF6FF7300E078
S31520004DE0013B426812F0030F01D0002BF8D1436833
S31520004DF013F0030F1BD000207047036823F0030332
S31520004E0043F0020303604FF6FF7200E0013A436865
S31520004E1003F00303022B01D0002AF7D1436803F0E5
S31520004E200303022B05D000207047012070476046FF
S31520004E30704701207047036823F0030343F0020301
S31520004E400360436803F00303022B01D00020704760
S31520004E5001207047036823F0020303604FF6FF73B7
S31520004E60426812F0020F02D00BB1013BF8E743680B
S31520004E7013F0020F01D0002070470120704780698F
S31520004E8000F0700070478069000E70478069C0F39B
S31520004E90074070471AB143690B4343617047436922
S31520004EA023EA01034361704711F4700F06D083692A
S31520004EB00B40C3F3130333B30120704711F0807FF7
S31520004EC006D043680B40C3F31303F3B101207047A8
S31520004ED011F0006F06D083680B40C3F31303B3B100
S31520004EE00120704711F0007F06D0C3680B40C3F342
S31520004EF0130373B10120704703690B40C3F31303F7
S31520004F004BB10120704700207047002070470020D9
S31520004F10704700207047002070470C4B994206D0FE
S31520004F20C1F3130311F0007F04D0C3607047002340
S31520004F308361704711F0806F01D00361704711F0D3
S31520004F40006F01D083607047436070477000F03077
S31520004F5008B543690B427DD0B1F5807F66D021D854
S31520004F60202916D8002977D001391F2976D8DFE8DD
S31520004F7001F03A3F75447575754975757575757582
S31520004F80754E7575757575757575757575757575D2
S31520004F907553402904D100691021FFF72DFC5AE0F2
S31520004FA0002058E0B1F5004F4FD00FD8B1F5806FF3
S31520004FB041D0B1F5006F43D0B1F5007F04D18069AF
S31520004FC00221FFF719FC46E0002044E0B1F5803FBE
S31520004FD027D0B1F5003F04D140681021FFF70CFC23
S31520004FE039E0002037E080681D49FFF705FC32E0F4
S31520004FF0C0680321FFF700FC2DE0C0680821FFF7F9
S31520005000FBFB28E0C0681021FFF7F6FB23E00069D0
S315200050100321FFF7F1FB1EE000690821FFF7ECFBF7
S3152000502019E040680821FFF7E7FB14E080690121B9
S31520005030FFF7E2FB0FE080690421FFF7DDFB0AE0C2
S3152000504080697021FFF7D8FB05E040680421FFF74F
S31520005050D3FB00E0002008BD0020FCE70020FAE793
S3152000506001010100B1F5007F4ED021D8202916D8A4
S31520005070002953D001391F2950D8DFE801F0334FDA
S315200050804F364F4F4F394F4F4F4F4F4F4F4F4F4F39
S315200050904F4F4F4F4F4F4F4F4F4F4F4F4F3C402942
S315200050A02CD0B1F5807F02D104234360704770472E
S315200050B0B1F5004F2ED008D9B1F5803F21D0B1F5FA
S315200050C0003F0ED1102343607047B1F5806F1ED08C
S315200050D0B1F5006F04D10023836104234360704738
S315200050E0704770470E4B836070470823C360704734
S315200050F01023C360704708230361704710230361A0
S315200051007047082343607047042343607047042395
S31520005110436070470023836104234360704700BFC8
S315200051200101010008B501214FF0005000F064FC98
S3152000513000214FF0005000F05FFC08BD30B4094C50
S31520005140226840F6FE73834022EA03020B684D680C
S315200051502B438D682B43C9680B438340134323603D
S3152000516030BC7047007400400023036043608360B6
S31520005170C360704731B107490B680122824013434F
S315200051800B60704703490B680122824023EA020321
S315200051900B6070470074004039B108494B6800091C
S315200051A00122824013434B60704704494B68000933
S315200051B00122824023EA02034B60704700740040BC
S315200051C028B1064A536843F0030353607047034AE5
S315200051D0536823F003035360704700BF00740040F8
S315200051E02AB1064A136881400B4313607047034A6D
S315200051F01368814023EA010313607047007400405E
S3152000520082B000230193054B0193019B034408338D
S315200052100193019B196002B0704700BF00740040E3
S3152000522082B000230193054B0193019B0344143361
S315200052300193019B196002B0704700BF00740040C3
S31520005240082804D042EA0142024BC250704742EA83
S315200052500122F9E72074004082B000230193064B17
S315200052600193019B03EB90032C330193019B186858
S3152000527080B202B0704700BF0074004039B10849BF
S315200052800B684FF48052824013430B6070470449E9
S315200052900B684FF48052824023EA02030B6070476A
S315200052A0007400402AB1064A136881400B431360FC
S315200052B07047034A1368814023EA0103136070474D
S315200052C000740040044B5B6B81400B4201D00120EF
S315200052D070470020704700BF007400408140014B9A
S315200052E05963704700740040064A136881400B409A
S315200052F0526B114202D01BB9002070470020704724
S3152000530001207047007400408140014B596370476B
S3152000531000740040044B00221A605A609A60DA60DA
S31520005320024A5A61704700BF003C0140FFFF7F00E0
S315200053308379002B36D010B4204B1A68016822EAF4
S3152000534001021A605A68016822EA01025A6002794B
S3152000535002F1804202F59E321168046821431160F1
S315200053609A68016822EA01029A60DA68016822EAEC
S315200053700102DA604379102B0AD003F1804303F54A
S315200053809E331A6801680A431A605DF8044B704719
S315200053900A4B9A6801680A439A60DA6801680A43E8
S315200053A0DA60F2E7037903F1804303F59E331A6846
S315200053B0016822EA01021A60704700BF003C0140E2
S315200053C00023036003710C22427183717047024AE5
S315200053D01369034313617047003C0140034B5B692B
S315200053E0034201D00120704700207047003C014055
S315200053F0014B5861704700BF003C0140034B5B697D
S31520005400034201D00120704700207047003C014034
S31520005410014B5861704700BF003C014008B5374B2F
S31520005420984218D0364B98421ED0364B984224D0FC
S31520005430354B98422AD0354B984230D0344B98423F
S3152000544036D0344B98423CD0334B984242D0334BE3
S31520005450984248D008BD0121084600F0A3FA002151
S31520005460012000F09FFAF5E70121022000F09AFAC8
S315200054700021022000F096FAECE70121042000F03A
S3152000548091FA0021042000F08DFAE3E7012108209B
S3152000549000F088FA0021082000F084FADAE70121DA
S315200054A0102000F07FFA0021102000F07BFAD1E7CF
S315200054B00121202000F076FA0021202000F072FA47
S315200054C0C8E70121402000F06DFA0021402000F0BD
S315200054D069FABFE70121802000F064FA00218020CC
S315200054E000F060FAB6E701214FF4807000F05AFA16
