:020000040800F2
:1000000000200020D9090008290A0008290A000850
:1000100000000000000000000000000000000000E0
:10002000000000000000000000000000290A000895
:100030000000000000000000290A0008290A00084A
:10004000290A0008290A0008290A0008290A0008C4
:10005000290A0008290A0008290A0008290A0008B4
:10006000290A0008290A0008290A0008290A0008A4
:10007000290A0008290A0008290A0008290A000894
:10008000290A0008290A000800000000290A0008BF
:10009000290A0008290A0008290A0008290A000874
:1000A000290A0008290A0008290A0008290A000864
:1000B000290A000800000000290A000800000000CA
:0400C0005FF808F1EC
:1000C400902310B5DB05984217D0224B98421FD0DD
:1000D400214B984227D0214B984203D0204B984281
:1000E4002CD010BD80200121400300F00BFB8020A8
:1000F4000021400300F006FBF3E780200121800289
:1001040000F000FB80200021800200F0FBFAE8E709
:1001140080200121C00200F0F5FA80200021C002F5
:1001240000F0F0FADDE780200121000300F0EAFA94
:1001340080200021000300F0E5FAD2E780200121AD
:10014400C00300F0DFFA80200021C00300F0DAFAD7
:10015400C7E7C0460004004800080048000C0048F7
:1001640000140048F0B5DE46454657464E46012485
:10017400E0B50B68A34602349C4600220023A04647
:1001840083B003E001330232102B38D05C4665465D
:100194009C402540AC42F5D146469640F7430D7944
:1001A40001976E1E012E14D886683E4086608668CC
:1001B400B2464E799640B14656464F463E43866017
:1001C4008688A64386808E7984889E403443A4B270
:1001D400848095400468019E0133264006600468CB
:1001E4002543056045469540C468AC43C460CC795A
:1001F400C56894402C43C4600232102BC6D103B0AE
:10020400F0BCBB46B246A946A046F0BD024B036013
:1002140080239B0043607047FFFF0000802382B06F
:100224005B020193019B0B430193019BC361C16179
:10023400019BC361C3690193C369019302B0704711
:10024400038A19400800431E9841C0B27047C04653
:10025400008A80B27047C046838A19400800431E52
:100264009841C0B27047C046808A80B27047C04689
:100274008161704701857047002A01D08161704710
:100284000185FCE781827047072310B50F240B40DA
:100294009B009C409A40C90889004018016AA14308
:1002A4000162016A0A43026210BDC0460121114B7A
:1002B40011481A680A431A605A6802405A601A6858
:1002C4000E4802401A601A680D4802401A605A68C3
:1002D4000C4802400F205A60DA6A8243DA621A6BD1
:1002E400094802401A635A6B8A435A6300229A608F
:1002F4007047C046001002400CB8FFF8FFFFF6FE3E
:10030400FFFFFBFFFFFFC0FFACFEFFFF0022024B1D
:100314001A7018707047C0460210024000238022F1
:10032400A02082B00B4901939202C0000B681342D3
:1003340009D0019B01330193019B064B186880038C
:10034400C00F02B07047019B01330193019B8342AC
:10035400ECD1F2E700100240F821034AC000136810
:100364008B4318431060704700100240054A012176
:100374001368002802D00B43136070478B4313604B
:10038400FBE7C04600100240F821034AC000536B4B
:100394008B4318435063704700100240054A012103
:1003A400536B002802D00B43536370478B43536352
:1003B400FBE7C04600100240054A0421536B0028A5
:1003C40002D08B43536370470B435363FBE7C04630
:1003D400001002400121064B1A6A8A431A621A6A03
:1003E40003318A431A621A6A02431A627047C0468A
:1003F400001002401821044B1A6A8A431A621A6ACE
:1004040002431A627047C04600100240054A0121A7
:10041400536A002802D00B43536270478B435362E4
:10042400FBE7C04600100240054A10B55368054C6E
:100434002340536053680B430343536010BDC046CD
:1004440000100240FFFFC2FF064A002805D08023A7
:1004540011685B040B4313607047136802490B4037
:100464001360F9E700100240FFFFFFFE0F21034A6B
:10047400D36A8B430343D3627047C04600100240E3
:10048400064A002805D0802311681B030B43136020
:100494007047136802490B401360F9E700100240EB
:1004A400FFFFF7FF014B18707047C046071002406A
:1004B4000321034A53688B43034353607047C04688
:1004C400001002400C20024B5B6818407047C04685
:1004D40000100240F021034A53688B4303435360E6
:1004E4007047C04600100240034A044953680B4059
:1004F400034353607047C04600100240FFF8FFFFFB
:10050400094B0A495A680A405A6059680204120C95
:100514000A435A601A6B0649000C0A401A631A6BA4
:10052400104318637047C04600100240FFBFFFFF2E
:10053400FFFEFFFF4021044B1A6B8A431A631A6BB8
:1005440002431A637047C046001002401021044B56
:100554001A6B8A431A631A6B02431A637047C046C4
:10056400001002400321044B1A6B8A431A631A6B6E
:1005740002431A637047C046001002400C23344AF9
:1005840070B5516804000B40082B42D0314802007A
:100594002F4920604B68304D1B061B0FEB5CDA4083
:1005A40062604B685B055B0FEB5CDA40A2600B6B2F
:1005B400DB051BD549689308490428D5112524492E
:1005C400E3600B6B5B06DB17AB43244DAC46634423
:1005D40023610B6B0100DB0600D41E490323616118
:1005E4001B490D6B2B4203D1A26170BD1C4BE5E787
:1005F4000A6B1A40012A1CD00A6B1A40022A22D024
:100604000A6B1340032BF0D1124BA361EDE753089F
:10061400D4E70F2150685368800C0840851CDB0325
:1006240009D46A01521B93019B1ADB005B1918025F
:10063400ADE7A061D9E7D36A06481940013100F05B
:10064400C5F86843A3E780231B02A361CDE7C04636
:100654000010024000127A00740A000812800000A0
:10066400809FD500024A136A034313627047C04651
:1006740000100240064A002805D08023116A1B029C
:100684000B4313627047136A02490B401362F9E784
:1006940000100240FF7FFFFF064A002805D0802398
:1006A400116A5B020B4313627047136A02490B40E1
:1006B4001362F9E700100240FFFFFEFF044A53698A
:1006C400002902D003435361704783435361FBE71E
:1006D40000100240044A9369002902D00343936145
:1006E400704783439361FBE700100240044AD369D7
:1006F400002902D00343D36170478343D361FBE7EE
:1007040000100240044A936A002902D00343936212
:10071400704783439362FBE700100240044AD368A6
:10072400002902D00343D36070478343D360FBE7BF
:1007340000100240044A1369002902D003431361E4
:10074400704783431361FBE700100240044A1378A7
:10075400002902D003431370704783431370FBE7EF
:1007640009100240430907D10A4B1A681F230340AA
:10077400DA40012010407047012B04D0022B05D031
:10078400044B5A6BF2E7034B1A6AEFE7014B5A6AC0
:10079400ECE7C046001002408023034A5B04516A20
:1007A4000B4353627047C04600100240034B9B68E2
:1007B40003405A1E9341D8B27047C046001002400D
:1007C400014B18707047C0460A100240002934D00B
:1007D4000123002210B488422CD301242407A1420F
:1007E40004D2814202D209011B01F8E7E400A142CC
:1007F40004D2814202D249005B00F8E7884201D367
:10080400401A1A434C08A04202D3001B5C0822433E
:100814008C08A04202D3001B9C082243CC08A042AF
:1008240002D3001BDC082243002803D01B0901D09B
:100834000909E3E7100010BC704701B5002000F07F
:100844000BF802BD0029F8D003B5FFF7C1FF0EBCB9
:100854004243891A1847C0467047C046802010B5E5
:1008640001218002FFF72AFF802001210003FFF706
:1008740025FFC023174C9B00236002232100FF3374
:1008840015486360FFF76EFC01239020236000236A
:1008940021002371E371C0059024FFF763FCE40594
:1008A40001212000FFF7CCFC80218900002808D01A
:1008B4000948FFF7DDFC802107484900FFF7DAFC0F
:1008C400EEE70548FFF7D6FC802103484900FFF70F
:1008D400CFFCE5E7000000200008004813B5012123
:1008E4000F24354B35481A680A431A605A68024087
:1008F4005A601A68324802401A601A683148024045
:100904001A605A68304802405A60DA6AA243DA62CE
:100914001A6B2E4C22401A635A6BA0248A435A63E2
:1009240000229A60009201928022196852020A43BE
:100934001A608022E4009202196811400191009922
:10094400013100910199002902D10099A142F3D10A
:1009540019680C00144011422BD001220192019A13
:10096400012A25D111211A4A11605A685A605A681D
:100974005A605A6802405A608822596852030A43EE
:100984005A608022196852040A431A608022920431
:1009940019681142FCD003215A688A435A60022222
:1009A40059680A430C215A605A680A40082AFBD144
:1009B40013BD0194D3E7C046001002400CB8FFF801
:1009C400FFFFF6FEFFFFFBFFFFFFC0FFACFEFFFFD4
:1009D400002002400D488546002103E00C4B5B5883
:1009E400435004310B480C4B42189A42F6D30B4A3D
:1009F40002E0002313600432094B9A42F9D3FFF753
:100A04006DFF00F011F8FFF729FFFEE7002000203A
:100A14009C0A0008000000200000002000000020C4
:100A240008000020FEE7000070B50D4B0D4D5E1B65
:100A3400B610AB4205D0002408CD01349847A64235
:100A4400FAD800F01DF8084B084D5E1BB610AB42F7
:100A540005D0002408CD01349847A642FAD870BDC9
:100A64000000000000000000000000000000000082
:100A74000000000001020304010203040607080940
:100A8400F8B5C046F8BC08BC9E467047F8B5C046E9
:080A9400F8BC08BC9E46704747
:04000005080009D90D
:00000001FF
